{
  "contractName": "BetterTimesToken",
  "abi": [
    {
      "inputs": [],
      "stateMutability": "nonpayable",
      "type": "constructor"
    },
    {
      "anonymous": false,
      "inputs": [
        {
          "indexed": true,
          "internalType": "address",
          "name": "owner",
          "type": "address"
        },
        {
          "indexed": true,
          "internalType": "address",
          "name": "spender",
          "type": "address"
        },
        {
          "indexed": false,
          "internalType": "uint256",
          "name": "value",
          "type": "uint256"
        }
      ],
      "name": "Approval",
      "type": "event"
    },
    {
      "anonymous": false,
      "inputs": [
        {
          "indexed": false,
          "internalType": "string",
          "name": "guidelineSummary",
          "type": "string"
        },
        {
          "indexed": false,
          "internalType": "string",
          "name": "guideline",
          "type": "string"
        }
      ],
      "name": "GuidelineCreated",
      "type": "event"
    },
    {
      "anonymous": false,
      "inputs": [
        {
          "indexed": true,
          "internalType": "address",
          "name": "previousOwner",
          "type": "address"
        },
        {
          "indexed": true,
          "internalType": "address",
          "name": "newOwner",
          "type": "address"
        }
      ],
      "name": "OwnershipTransferred",
      "type": "event"
    },
    {
      "anonymous": false,
      "inputs": [
        {
          "indexed": false,
          "internalType": "string",
          "name": "BetterTimesMessage",
          "type": "string"
        }
      ],
      "name": "SacredEvent",
      "type": "event"
    },
    {
      "anonymous": false,
      "inputs": [
        {
          "indexed": true,
          "internalType": "address",
          "name": "user",
          "type": "address"
        },
        {
          "indexed": false,
          "internalType": "uint256",
          "name": "thisAmount",
          "type": "uint256"
        },
        {
          "indexed": false,
          "internalType": "uint256",
          "name": "entireAmount",
          "type": "uint256"
        },
        {
          "indexed": false,
          "internalType": "uint256",
          "name": "timestamp",
          "type": "uint256"
        }
      ],
      "name": "Staked",
      "type": "event"
    },
    {
      "anonymous": false,
      "inputs": [
        {
          "indexed": true,
          "internalType": "address",
          "name": "from",
          "type": "address"
        },
        {
          "indexed": true,
          "internalType": "address",
          "name": "to",
          "type": "address"
        },
        {
          "indexed": false,
          "internalType": "uint256",
          "name": "value",
          "type": "uint256"
        }
      ],
      "name": "Transfer",
      "type": "event"
    },
    {
      "inputs": [
        {
          "internalType": "address",
          "name": "",
          "type": "address"
        }
      ],
      "name": "WhitelistedToCallSacredMessages",
      "outputs": [
        {
          "internalType": "bool",
          "name": "",
          "type": "bool"
        }
      ],
      "stateMutability": "view",
      "type": "function"
    },
    {
      "inputs": [
        {
          "internalType": "address",
          "name": "owner",
          "type": "address"
        },
        {
          "internalType": "address",
          "name": "spender",
          "type": "address"
        }
      ],
      "name": "allowance",
      "outputs": [
        {
          "internalType": "uint256",
          "name": "",
          "type": "uint256"
        }
      ],
      "stateMutability": "view",
      "type": "function"
    },
    {
      "inputs": [
        {
          "internalType": "address",
          "name": "spender",
          "type": "address"
        },
        {
          "internalType": "uint256",
          "name": "amount",
          "type": "uint256"
        }
      ],
      "name": "approve",
      "outputs": [
        {
          "internalType": "bool",
          "name": "",
          "type": "bool"
        }
      ],
      "stateMutability": "nonpayable",
      "type": "function"
    },
    {
      "inputs": [
        {
          "internalType": "address",
          "name": "account",
          "type": "address"
        }
      ],
      "name": "balanceOf",
      "outputs": [
        {
          "internalType": "uint256",
          "name": "",
          "type": "uint256"
        }
      ],
      "stateMutability": "view",
      "type": "function"
    },
    {
      "inputs": [],
      "name": "decimals",
      "outputs": [
        {
          "internalType": "uint8",
          "name": "",
          "type": "uint8"
        }
      ],
      "stateMutability": "view",
      "type": "function"
    },
    {
      "inputs": [
        {
          "internalType": "address",
          "name": "spender",
          "type": "address"
        },
        {
          "internalType": "uint256",
          "name": "subtractedValue",
          "type": "uint256"
        }
      ],
      "name": "decreaseAllowance",
      "outputs": [
        {
          "internalType": "bool",
          "name": "",
          "type": "bool"
        }
      ],
      "stateMutability": "nonpayable",
      "type": "function"
    },
    {
      "inputs": [
        {
          "internalType": "uint256",
          "name": "",
          "type": "uint256"
        }
      ],
      "name": "guidelines",
      "outputs": [
        {
          "internalType": "string",
          "name": "summary",
          "type": "string"
        },
        {
          "internalType": "string",
          "name": "guideline",
          "type": "string"
        }
      ],
      "stateMutability": "view",
      "type": "function"
    },
    {
      "inputs": [
        {
          "internalType": "address",
          "name": "_staker",
          "type": "address"
        }
      ],
      "name": "hasStake",
      "outputs": [
        {
          "internalType": "bool",
          "name": "isStaking",
          "type": "bool"
        },
        {
          "internalType": "uint256",
          "name": "stakedAmount",
          "type": "uint256"
        },
        {
          "internalType": "uint256",
          "name": "claimableReward",
          "type": "uint256"
        },
        {
          "internalType": "uint256",
          "name": "totalAmount",
          "type": "uint256"
        },
        {
          "internalType": "uint256",
          "name": "SecondsToEndOfStakingRewards",
          "type": "uint256"
        }
      ],
      "stateMutability": "view",
      "type": "function"
    },
    {
      "inputs": [
        {
          "internalType": "address",
          "name": "spender",
          "type": "address"
        },
        {
          "internalType": "uint256",
          "name": "addedValue",
          "type": "uint256"
        }
      ],
      "name": "increaseAllowance",
      "outputs": [
        {
          "internalType": "bool",
          "name": "",
          "type": "bool"
        }
      ],
      "stateMutability": "nonpayable",
      "type": "function"
    },
    {
      "inputs": [],
      "name": "name",
      "outputs": [
        {
          "internalType": "string",
          "name": "",
          "type": "string"
        }
      ],
      "stateMutability": "view",
      "type": "function"
    },
    {
      "inputs": [],
      "name": "numberOfGuidelines",
      "outputs": [
        {
          "internalType": "uint256",
          "name": "",
          "type": "uint256"
        }
      ],
      "stateMutability": "view",
      "type": "function"
    },
    {
      "inputs": [],
      "name": "owner",
      "outputs": [
        {
          "internalType": "address",
          "name": "",
          "type": "address"
        }
      ],
      "stateMutability": "view",
      "type": "function"
    },
    {
      "inputs": [],
      "name": "renounceOwnership",
      "outputs": [],
      "stateMutability": "nonpayable",
      "type": "function"
    },
    {
      "inputs": [],
      "name": "returnAllGuidelines",
      "outputs": [
        {
          "components": [
            {
              "internalType": "string",
              "name": "summary",
              "type": "string"
            },
            {
              "internalType": "string",
              "name": "guideline",
              "type": "string"
            }
          ],
          "internalType": "struct SacredCoin.Guideline[]",
          "name": "",
          "type": "tuple[]"
        }
      ],
      "stateMutability": "view",
      "type": "function"
    },
    {
      "inputs": [
        {
          "internalType": "uint256",
          "name": "_index",
          "type": "uint256"
        }
      ],
      "name": "returnSingleGuideline",
      "outputs": [
        {
          "internalType": "string",
          "name": "",
          "type": "string"
        },
        {
          "internalType": "string",
          "name": "",
          "type": "string"
        }
      ],
      "stateMutability": "view",
      "type": "function"
    },
    {
      "inputs": [],
      "name": "symbol",
      "outputs": [
        {
          "internalType": "string",
          "name": "",
          "type": "string"
        }
      ],
      "stateMutability": "view",
      "type": "function"
    },
    {
      "inputs": [],
      "name": "totalSupply",
      "outputs": [
        {
          "internalType": "uint256",
          "name": "",
          "type": "uint256"
        }
      ],
      "stateMutability": "view",
      "type": "function"
    },
    {
      "inputs": [
        {
          "internalType": "address",
          "name": "recipient",
          "type": "address"
        },
        {
          "internalType": "uint256",
          "name": "amount",
          "type": "uint256"
        }
      ],
      "name": "transfer",
      "outputs": [
        {
          "internalType": "bool",
          "name": "",
          "type": "bool"
        }
      ],
      "stateMutability": "nonpayable",
      "type": "function"
    },
    {
      "inputs": [
        {
          "internalType": "address",
          "name": "sender",
          "type": "address"
        },
        {
          "internalType": "address",
          "name": "recipient",
          "type": "address"
        },
        {
          "internalType": "uint256",
          "name": "amount",
          "type": "uint256"
        }
      ],
      "name": "transferFrom",
      "outputs": [
        {
          "internalType": "bool",
          "name": "",
          "type": "bool"
        }
      ],
      "stateMutability": "nonpayable",
      "type": "function"
    },
    {
      "inputs": [
        {
          "internalType": "address",
          "name": "newOwner",
          "type": "address"
        }
      ],
      "name": "transferOwnership",
      "outputs": [],
      "stateMutability": "nonpayable",
      "type": "function"
    },
    {
      "inputs": [
        {
          "internalType": "address",
          "name": "_address",
          "type": "address"
        }
      ],
      "name": "isInSacredMessagesWhitelist",
      "outputs": [
        {
          "internalType": "bool",
          "name": "",
          "type": "bool"
        }
      ],
      "stateMutability": "view",
      "type": "function"
    },
    {
      "inputs": [
        {
          "internalType": "address",
          "name": "_whitelistedAddress",
          "type": "address"
        }
      ],
      "name": "addToSacredMessagesWhitelist",
      "outputs": [],
      "stateMutability": "nonpayable",
      "type": "function"
    },
    {
      "inputs": [
        {
          "internalType": "address",
          "name": "_whitelistedAddress",
          "type": "address"
        }
      ],
      "name": "removeFromSacredMessagesWhitelist",
      "outputs": [],
      "stateMutability": "nonpayable",
      "type": "function"
    },
    {
      "inputs": [
        {
          "internalType": "address",
          "name": "to",
          "type": "address"
        },
        {
          "internalType": "uint256",
          "name": "tokens",
          "type": "uint256"
        },
        {
          "internalType": "string",
          "name": "yourDeeds",
          "type": "string"
        }
      ],
      "name": "transferSacredOne",
      "outputs": [],
      "stateMutability": "nonpayable",
      "type": "function"
    },
    {
      "inputs": [
        {
          "internalType": "address",
          "name": "to",
          "type": "address"
        },
        {
          "internalType": "uint256",
          "name": "tokens",
          "type": "uint256"
        },
        {
          "internalType": "string",
          "name": "name",
          "type": "string"
        },
        {
          "internalType": "string",
          "name": "gratitudeObject",
          "type": "string"
        }
      ],
      "name": "transferSacredTwo",
      "outputs": [],
      "stateMutability": "nonpayable",
      "type": "function"
    },
    {
      "inputs": [
        {
          "internalType": "address",
          "name": "sender",
          "type": "address"
        },
        {
          "internalType": "address",
          "name": "recipient",
          "type": "address"
        },
        {
          "internalType": "uint256",
          "name": "amount",
          "type": "uint256"
        },
        {
          "internalType": "string",
          "name": "yourDeeds",
          "type": "string"
        }
      ],
      "name": "transferFromSacredOne",
      "outputs": [],
      "stateMutability": "nonpayable",
      "type": "function"
    },
    {
      "inputs": [
        {
          "internalType": "address",
          "name": "sender",
          "type": "address"
        },
        {
          "internalType": "address",
          "name": "recipient",
          "type": "address"
        },
        {
          "internalType": "uint256",
          "name": "amount",
          "type": "uint256"
        },
        {
          "internalType": "string",
          "name": "name",
          "type": "string"
        },
        {
          "internalType": "string",
          "name": "story",
          "type": "string"
        }
      ],
      "name": "transferFromSacredTwo",
      "outputs": [],
      "stateMutability": "nonpayable",
      "type": "function"
    },
    {
      "inputs": [
        {
          "internalType": "uint256",
          "name": "_amount",
          "type": "uint256"
        },
        {
          "internalType": "string",
          "name": "yourDeeds",
          "type": "string"
        },
        {
          "internalType": "uint8",
          "name": "timeframe",
          "type": "uint8"
        }
      ],
      "name": "stakeOne",
      "outputs": [],
      "stateMutability": "nonpayable",
      "type": "function"
    },
    {
      "inputs": [
        {
          "internalType": "uint256",
          "name": "_amount",
          "type": "uint256"
        },
        {
          "internalType": "string",
          "name": "name",
          "type": "string"
        },
        {
          "internalType": "string",
          "name": "story",
          "type": "string"
        },
        {
          "internalType": "uint8",
          "name": "timeframe",
          "type": "uint8"
        }
      ],
      "name": "stakeTwo",
      "outputs": [],
      "stateMutability": "nonpayable",
      "type": "function"
    },
    {
      "inputs": [],
      "name": "withdrawStake",
      "outputs": [],
      "stateMutability": "nonpayable",
      "type": "function"
    }
  ],
  "bytecode": "0x60806040526101f4600b55610271600c556103e8600d553480156200002357600080fd5b506040518060400160405280601281526020017f4265747465722054696d657320546f6b656e00000000000000000000000000008152506040518060400160405280600581526020017f55504e55500000000000000000000000000000000000000000000000000000008152508160039080519060200190620000a892919062000537565b508060049080519060200190620000c192919062000537565b506012600560006101000a81548160ff021916908360ff16021790555050506000620000f26200029d60201b60201c565b905080600560016101000a81548173ffffffffffffffffffffffffffffffffffffffff021916908373ffffffffffffffffffffffffffffffffffffffff1602179055508073ffffffffffffffffffffffffffffffffffffffff16600073ffffffffffffffffffffffffffffffffffffffff167f8be0079c531659141344cd1fd0a4f28419497f9722a3daafe3b4186f6b6457e060405160405180910390a350600960018160018154018082558091505003906000526020600020905050620001ef33620001c4620002a560201b60201c565b600a620001d2919062000781565b632878b7c0620001e39190620007d2565b620002bc60201b60201c565b620002506040518060400160405280601681526020017f48656c7020746f2072656d6f766520706f76657274790000000000000000000081525060405180610120016040528060fb8152602001620046b360fb91396200045360201b60201c565b62000297604051806060016040528060218152602001620047ae6021913960405180610160016040528061013281526020016200458161013291396200045360201b60201c565b62000ac2565b600033905090565b6000600560009054906101000a900460ff16905090565b600073ffffffffffffffffffffffffffffffffffffffff168273ffffffffffffffffffffffffffffffffffffffff1614156200032f576040517f08c379a0000000000000000000000000000000000000000000000000000000008152600401620003269062000894565b60405180910390fd5b62000343600083836200053260201b60201c565b80600254620003539190620008b6565b600281905550806000808473ffffffffffffffffffffffffffffffffffffffff1673ffffffffffffffffffffffffffffffffffffffff16815260200190815260200160002054620003a59190620008b6565b6000808473ffffffffffffffffffffffffffffffffffffffff1673ffffffffffffffffffffffffffffffffffffffff168152602001908152602001600020819055508173ffffffffffffffffffffffffffffffffffffffff16600073ffffffffffffffffffffffffffffffffffffffff167fddf252ad1be2c89b69c2b068fc378daa952ba7f163c4a11628f55a4df523b3ef8360405162000447919062000924565b60405180910390a35050565b6000604051806040016040528084815260200183815250905060088190806001815401808255809150506001900390600052602060002090600202016000909190919091506000820151816000019080519060200190620004b692919062000537565b506020820151816001019080519060200190620004d592919062000537565b5050507ffeb3900704f1da20c6c7adbbed3b6e4244f5bb27d544d1e5bad423c970434f8183836040516200050b929190620009d4565b60405180910390a160066000815480929190620005289062000a0f565b9190505550505050565b505050565b828054620005459062000a8c565b90600052602060002090601f016020900481019282620005695760008555620005b5565b82601f106200058457805160ff1916838001178555620005b5565b82800160010185558215620005b5579182015b82811115620005b457825182559160200191906001019062000597565b5b509050620005c49190620005c8565b5090565b5b80821115620005e3576000816000905550600101620005c9565b5090565b7f4e487b7100000000000000000000000000000000000000000000000000000000600052601160045260246000fd5b60008160011c9050919050565b6000808291508390505b600185111562000675578086048111156200064d576200064c620005e7565b5b60018516156200065d5780820291505b80810290506200066d8562000616565b94506200062d565b94509492505050565b60008262000690576001905062000763565b81620006a0576000905062000763565b8160018114620006b95760028114620006c457620006fa565b600191505062000763565b60ff841115620006d957620006d8620005e7565b5b8360020a915084821115620006f357620006f2620005e7565b5b5062000763565b5060208310610133831016604e8410600b8410161715620007345782820a9050838111156200072e576200072d620005e7565b5b62000763565b62000743848484600162000623565b925090508184048111156200075d576200075c620005e7565b5b81810290505b9392505050565b6000819050919050565b600060ff82169050919050565b60006200078e826200076a565b91506200079b8362000774565b9250620007ca7fffffffffffffffffffffffffffffffffffffffffffffffffffffffffffffffff84846200067e565b905092915050565b6000620007df826200076a565b9150620007ec836200076a565b9250817fffffffffffffffffffffffffffffffffffffffffffffffffffffffffffffffff0483118215151615620008285762000827620005e7565b5b828202905092915050565b600082825260208201905092915050565b7f45524332303a206d696e7420746f20746865207a65726f206164647265737300600082015250565b60006200087c601f8362000833565b9150620008898262000844565b602082019050919050565b60006020820190508181036000830152620008af816200086d565b9050919050565b6000620008c3826200076a565b9150620008d0836200076a565b9250827fffffffffffffffffffffffffffffffffffffffffffffffffffffffffffffffff03821115620009085762000907620005e7565b5b828201905092915050565b6200091e816200076a565b82525050565b60006020820190506200093b600083018462000913565b92915050565b600081519050919050565b60005b838110156200096c5780820151818401526020810190506200094f565b838111156200097c576000848401525b50505050565b6000601f19601f8301169050919050565b6000620009a08262000941565b620009ac818562000833565b9350620009be8185602086016200094c565b620009c98162000982565b840191505092915050565b60006040820190508181036000830152620009f0818562000993565b9050818103602083015262000a06818462000993565b90509392505050565b600062000a1c826200076a565b91507fffffffffffffffffffffffffffffffffffffffffffffffffffffffffffffffff82141562000a525762000a51620005e7565b5b600182019050919050565b7f4e487b7100000000000000000000000000000000000000000000000000000000600052602260045260246000fd5b6000600282049050600182168062000aa557607f821691505b6020821081141562000abc5762000abb62000a5d565b5b50919050565b613aaf8062000ad26000396000f3fe608060405234801561001057600080fd5b50600436106101da5760003560e01c80639ede4fc011610104578063da4dd05a116100a2578063e3f54e5811610071578063e3f54e581461057d578063e73e14bf14610599578063f2409e67146105cd578063f2fde38b146105eb576101da565b8063da4dd05a146104e4578063dd62ed3e14610500578063dda9db7c14610530578063e2bff3ba1461054c576101da565b8063bed9d861116100de578063bed9d86114610472578063c147896f1461047c578063d485c97914610498578063da2f2a06146104c8576101da565b80639ede4fc0146103f4578063a457c2d714610412578063a9059cbb14610442576101da565b806370a082311161017c5780638f48ec3f1161014b5780638f48ec3f1461036d57806395d89b411461039e57806396e436f1146103bc578063995212a0146103d8576101da565b806370a08231146102f9578063715018a6146103295780637df1d479146103335780638da5cb5b1461034f576101da565b806323b872dd116101b857806323b872dd1461024b578063313ce5671461027b57806339509351146102995780635863ec28146102c9576101da565b806306fdde03146101df578063095ea7b3146101fd57806318160ddd1461022d575b600080fd5b6101e7610607565b6040516101f49190612773565b60405180910390f35b6102176004803603810190610212919061283d565b610699565b6040516102249190612898565b60405180910390f35b6102356106b7565b60405161024291906128c2565b60405180910390f35b610265600480360381019061026091906128dd565b6106c1565b6040516102729190612898565b60405180910390f35b610283610779565b604051610290919061294c565b60405180910390f35b6102b360048036038101906102ae919061283d565b610790565b6040516102c09190612898565b60405180910390f35b6102e360048036038101906102de9190612967565b61083c565b6040516102f09190612898565b60405180910390f35b610313600480360381019061030e9190612967565b610892565b60405161032091906128c2565b60405180910390f35b6103316108da565b005b61034d60048036038101906103489190612af5565b610a32565b005b610357610a4c565b6040516103649190612ba3565b60405180910390f35b61038760048036038101906103829190612bbe565b610a76565b604051610395929190612beb565b60405180910390f35b6103a6610be4565b6040516103b39190612773565b60405180910390f35b6103d660048036038101906103d19190612967565b610c76565b005b6103f260048036038101906103ed9190612c22565b610d68565b005b6103fc610d81565b60405161040991906128c2565b60405180910390f35b61042c6004803603810190610427919061283d565b610d87565b6040516104399190612898565b60405180910390f35b61045c6004803603810190610457919061283d565b610e33565b6040516104699190612898565b60405180910390f35b61047a610e51565b005b61049660048036038101906104919190612c91565b610e6a565b005b6104b260048036038101906104ad9190612967565b610e85565b6040516104bf9190612898565b60405180910390f35b6104e260048036038101906104dd9190612967565b610ea5565b005b6104fe60048036038101906104f99190612d30565b610f97565b005b61051a60048036038101906105159190612d9f565b610faf565b60405161052791906128c2565b60405180910390f35b61054a60048036038101906105459190612ddf565b611036565b005b61056660048036038101906105619190612bbe565b611051565b604051610574929190612beb565b60405180910390f35b61059760048036038101906105929190612e62565b611195565b005b6105b360048036038101906105ae9190612967565b6111b2565b6040516105c4959493929190612f15565b60405180910390f35b6105d561137c565b6040516105e291906130b8565b60405180910390f35b61060560048036038101906106009190612967565b6114ff565b005b60606003805461061690613109565b80601f016020809104026020016040519081016040528092919081815260200182805461064290613109565b801561068f5780601f106106645761010080835404028352916020019161068f565b820191906000526020600020905b81548152906001019060200180831161067257829003601f168201915b5050505050905090565b60006106ad6106a66116c6565b84846116ce565b6001905092915050565b6000600254905090565b60006106ce848484611899565b61076e846106da6116c6565b84600160008973ffffffffffffffffffffffffffffffffffffffff1673ffffffffffffffffffffffffffffffffffffffff16815260200190815260200160002060006107246116c6565b73ffffffffffffffffffffffffffffffffffffffff1673ffffffffffffffffffffffffffffffffffffffff16815260200190815260200160002054610769919061316a565b6116ce565b600190509392505050565b6000600560009054906101000a900460ff16905090565b600061083261079d6116c6565b8484600160006107ab6116c6565b73ffffffffffffffffffffffffffffffffffffffff1673ffffffffffffffffffffffffffffffffffffffff16815260200190815260200160002060008873ffffffffffffffffffffffffffffffffffffffff1673ffffffffffffffffffffffffffffffffffffffff1681526020019081526020016000205461082d919061319e565b6116ce565b6001905092915050565b6000600e60008373ffffffffffffffffffffffffffffffffffffffff1673ffffffffffffffffffffffffffffffffffffffff16815260200190815260200160002060009054906101000a900460ff169050919050565b60008060008373ffffffffffffffffffffffffffffffffffffffff1673ffffffffffffffffffffffffffffffffffffffff168152602001908152602001600020549050919050565b6108e26116c6565b73ffffffffffffffffffffffffffffffffffffffff16600560019054906101000a900473ffffffffffffffffffffffffffffffffffffffff1673ffffffffffffffffffffffffffffffffffffffff1614610971576040517f08c379a000000000000000000000000000000000000000000000000000000000815260040161096890613240565b60405180910390fd5b600073ffffffffffffffffffffffffffffffffffffffff16600560019054906101000a900473ffffffffffffffffffffffffffffffffffffffff1673ffffffffffffffffffffffffffffffffffffffff167f8be0079c531659141344cd1fd0a4f28419497f9722a3daafe3b4186f6b6457e060405160405180910390a36000600560016101000a81548173ffffffffffffffffffffffffffffffffffffffff021916908373ffffffffffffffffffffffffffffffffffffffff160217905550565b610a3c8482611b06565b610a468383611b6b565b50505050565b6000600560019054906101000a900473ffffffffffffffffffffffffffffffffffffffff16905090565b60608060088381548110610a8d57610a8c613260565b5b906000526020600020906002020160000160088481548110610ab257610ab1613260565b5b9060005260206000209060020201600101818054610acf90613109565b80601f0160208091040260200160405190810160405280929190818152602001828054610afb90613109565b8015610b485780601f10610b1d57610100808354040283529160200191610b48565b820191906000526020600020905b815481529060010190602001808311610b2b57829003601f168201915b50505050509150808054610b5b90613109565b80601f0160208091040260200160405190810160405280929190818152602001828054610b8790613109565b8015610bd45780601f10610ba957610100808354040283529160200191610bd4565b820191906000526020600020905b815481529060010190602001808311610bb757829003601f168201915b5050505050905091509150915091565b606060048054610bf390613109565b80601f0160208091040260200160405190810160405280929190818152602001828054610c1f90613109565b8015610c6c5780601f10610c4157610100808354040283529160200191610c6c565b820191906000526020600020905b815481529060010190602001808311610c4f57829003601f168201915b5050505050905090565b610c7e6116c6565b73ffffffffffffffffffffffffffffffffffffffff16600560019054906101000a900473ffffffffffffffffffffffffffffffffffffffff1673ffffffffffffffffffffffffffffffffffffffff1614610d0d576040517f08c379a0000000000000000000000000000000000000000000000000000000008152600401610d0490613240565b60405180910390fd5b6001600e60008373ffffffffffffffffffffffffffffffffffffffff1673ffffffffffffffffffffffffffffffffffffffff16815260200190815260200160002060006101000a81548160ff02191690831515021790555050565b610d728383610e33565b50610d7c81611bc7565b505050565b60065481565b6000610e29610d946116c6565b848460016000610da26116c6565b73ffffffffffffffffffffffffffffffffffffffff1673ffffffffffffffffffffffffffffffffffffffff16815260200190815260200160002060008873ffffffffffffffffffffffffffffffffffffffff1673ffffffffffffffffffffffffffffffffffffffff16815260200190815260200160002054610e24919061316a565b6116ce565b6001905092915050565b6000610e47610e406116c6565b8484611899565b6001905092915050565b6000610e5b611c20565b9050610e673382611da7565b50565b610e748484610e33565b50610e7f8282611b6b565b50505050565b600e6020528060005260406000206000915054906101000a900460ff1681565b610ead6116c6565b73ffffffffffffffffffffffffffffffffffffffff16600560019054906101000a900473ffffffffffffffffffffffffffffffffffffffff1673ffffffffffffffffffffffffffffffffffffffff1614610f3c576040517f08c379a0000000000000000000000000000000000000000000000000000000008152600401610f3390613240565b60405180910390fd5b6000600e60008373ffffffffffffffffffffffffffffffffffffffff1673ffffffffffffffffffffffffffffffffffffffff16815260200190815260200160002060006101000a81548160ff02191690831515021790555050565b610fa18382611b06565b610faa82611bc7565b505050565b6000600160008473ffffffffffffffffffffffffffffffffffffffff1673ffffffffffffffffffffffffffffffffffffffff16815260200190815260200160002060008373ffffffffffffffffffffffffffffffffffffffff1673ffffffffffffffffffffffffffffffffffffffff16815260200190815260200160002054905092915050565b6110418484846106c1565b5061104b81611bc7565b50505050565b6008818154811061106157600080fd5b906000526020600020906002020160009150905080600001805461108490613109565b80601f01602080910402602001604051908101604052809291908181526020018280546110b090613109565b80156110fd5780601f106110d2576101008083540402835291602001916110fd565b820191906000526020600020905b8154815290600101906020018083116110e057829003601f168201915b50505050509080600101805461111290613109565b80601f016020809104026020016040519081016040528092919081815260200182805461113e90613109565b801561118b5780601f106111605761010080835404028352916020019161118b565b820191906000526020600020905b81548152906001019060200180831161116e57829003601f168201915b5050505050905082565b6111a08585856106c1565b506111ab8282611b6b565b5050505050565b600080600080600080600a60008873ffffffffffffffffffffffffffffffffffffffff1673ffffffffffffffffffffffffffffffffffffffff168152602001908152602001600020549050600081141561121f576000955060009450600093506000925060009150611372565b600195506009818154811061123757611236613260565b5b90600052602060002090600502016001015494506112fe6009828154811061126257611261613260565b5b90600052602060002090600502016040518060a00160405290816000820160009054906101000a900473ffffffffffffffffffffffffffffffffffffffff1673ffffffffffffffffffffffffffffffffffffffff1673ffffffffffffffffffffffffffffffffffffffff168152602001600182015481526020016002820154815260200160038201548152602001600482015481525050611f2d565b9350838561130c919061319e565b92506009818154811061132257611321613260565b5b9060005260206000209060050201600401546009828154811061134857611347613260565b5b90600052602060002090600502016002015442611365919061316a565b61136f919061319e565b91505b5091939590929450565b60606008805480602002602001604051908101604052809291908181526020016000905b828210156114f657838290600052602060002090600202016040518060400160405290816000820180546113d390613109565b80601f01602080910402602001604051908101604052809291908181526020018280546113ff90613109565b801561144c5780601f106114215761010080835404028352916020019161144c565b820191906000526020600020905b81548152906001019060200180831161142f57829003601f168201915b5050505050815260200160018201805461146590613109565b80601f016020809104026020016040519081016040528092919081815260200182805461149190613109565b80156114de5780601f106114b3576101008083540402835291602001916114de565b820191906000526020600020905b8154815290600101906020018083116114c157829003601f168201915b505050505081525050815260200190600101906113a0565b50505050905090565b6115076116c6565b73ffffffffffffffffffffffffffffffffffffffff16600560019054906101000a900473ffffffffffffffffffffffffffffffffffffffff1673ffffffffffffffffffffffffffffffffffffffff1614611596576040517f08c379a000000000000000000000000000000000000000000000000000000000815260040161158d90613240565b60405180910390fd5b600073ffffffffffffffffffffffffffffffffffffffff168173ffffffffffffffffffffffffffffffffffffffff161415611606576040517f08c379a00000000000000000000000000000000000000000000000000000000081526004016115fd90613301565b60405180910390fd5b8073ffffffffffffffffffffffffffffffffffffffff16600560019054906101000a900473ffffffffffffffffffffffffffffffffffffffff1673ffffffffffffffffffffffffffffffffffffffff167f8be0079c531659141344cd1fd0a4f28419497f9722a3daafe3b4186f6b6457e060405160405180910390a380600560016101000a81548173ffffffffffffffffffffffffffffffffffffffff021916908373ffffffffffffffffffffffffffffffffffffffff16021790555050565b600033905090565b600073ffffffffffffffffffffffffffffffffffffffff168373ffffffffffffffffffffffffffffffffffffffff16141561173e576040517f08c379a000000000000000000000000000000000000000000000000000000000815260040161173590613393565b60405180910390fd5b600073ffffffffffffffffffffffffffffffffffffffff168273ffffffffffffffffffffffffffffffffffffffff1614156117ae576040517f08c379a00000000000000000000000000000000000000000000000000000000081526004016117a590613425565b60405180910390fd5b80600160008573ffffffffffffffffffffffffffffffffffffffff1673ffffffffffffffffffffffffffffffffffffffff16815260200190815260200160002060008473ffffffffffffffffffffffffffffffffffffffff1673ffffffffffffffffffffffffffffffffffffffff168152602001908152602001600020819055508173ffffffffffffffffffffffffffffffffffffffff168373ffffffffffffffffffffffffffffffffffffffff167f8c5be1e5ebec7d5bd14f71427d1e84f3dd0314c0f7b2291e5b200ac8c7c3b9258360405161188c91906128c2565b60405180910390a3505050565b600073ffffffffffffffffffffffffffffffffffffffff168373ffffffffffffffffffffffffffffffffffffffff161415611909576040517f08c379a0000000000000000000000000000000000000000000000000000000008152600401611900906134b7565b60405180910390fd5b600073ffffffffffffffffffffffffffffffffffffffff168273ffffffffffffffffffffffffffffffffffffffff161415611979576040517f08c379a000000000000000000000000000000000000000000000000000000000815260040161197090613549565b60405180910390fd5b611984838383611f96565b806000808573ffffffffffffffffffffffffffffffffffffffff1673ffffffffffffffffffffffffffffffffffffffff168152602001908152602001600020546119ce919061316a565b6000808573ffffffffffffffffffffffffffffffffffffffff1673ffffffffffffffffffffffffffffffffffffffff16815260200190815260200160002081905550806000808473ffffffffffffffffffffffffffffffffffffffff1673ffffffffffffffffffffffffffffffffffffffff16815260200190815260200160002054611a5a919061319e565b6000808473ffffffffffffffffffffffffffffffffffffffff1673ffffffffffffffffffffffffffffffffffffffff168152602001908152602001600020819055508173ffffffffffffffffffffffffffffffffffffffff168373ffffffffffffffffffffffffffffffffffffffff167fddf252ad1be2c89b69c2b068fc378daa952ba7f163c4a11628f55a4df523b3ef83604051611af991906128c2565b60405180910390a3505050565b611b0f33610892565b8210611b50576040517f08c379a0000000000000000000000000000000000000000000000000000000008152600401611b47906135db565b60405180910390fd5b611b5d828260ff16611f9b565b611b6733836123bb565b5050565b7f7f731b7b4a0303837e68a08203313dd7b3741c073cc72958a608262f721690e08282604051602001611b9f929190613683565b604051602081830303815290604052604051611bbb9190612773565b60405180910390a15050565b7f7f731b7b4a0303837e68a08203313dd7b3741c073cc72958a608262f721690e081604051602001611bf99190613724565b604051602081830303815290604052604051611c159190612773565b60405180910390a150565b600080600a60003373ffffffffffffffffffffffffffffffffffffffff1673ffffffffffffffffffffffffffffffffffffffff1681526020019081526020016000205490506000811415611ca9576040517f08c379a0000000000000000000000000000000000000000000000000000000008152600401611ca090613792565b60405180910390fd5b600060098281548110611cbf57611cbe613260565b5b90600052602060002090600502016001015490506000611d8860098481548110611cec57611ceb613260565b5b90600052602060002090600502016040518060a00160405290816000820160009054906101000a900473ffffffffffffffffffffffffffffffffffffffff1673ffffffffffffffffffffffffffffffffffffffff1673ffffffffffffffffffffffffffffffffffffffff168152602001600182015481526020016002820154815260200160038201548152602001600482015481525050611f2d565b9050611d9383612541565b8082611d9f919061319e565b935050505090565b600073ffffffffffffffffffffffffffffffffffffffff168273ffffffffffffffffffffffffffffffffffffffff161415611e17576040517f08c379a0000000000000000000000000000000000000000000000000000000008152600401611e0e906137fe565b60405180910390fd5b611e2360008383611f96565b80600254611e31919061319e565b600281905550806000808473ffffffffffffffffffffffffffffffffffffffff1673ffffffffffffffffffffffffffffffffffffffff16815260200190815260200160002054611e81919061319e565b6000808473ffffffffffffffffffffffffffffffffffffffff1673ffffffffffffffffffffffffffffffffffffffff168152602001908152602001600020819055508173ffffffffffffffffffffffffffffffffffffffff16600073ffffffffffffffffffffffffffffffffffffffff167fddf252ad1be2c89b69c2b068fc378daa952ba7f163c4a11628f55a4df523b3ef83604051611f2191906128c2565b60405180910390a35050565b600081608001518260400151611f43919061319e565b421115611f535760009050611f91565b81606001518260200151610e10846040015142611f70919061316a565b611f7a919061384d565b611f84919061387e565b611f8e919061384d565b90505b919050565b505050565b60008211611fde576040517f08c379a0000000000000000000000000000000000000000000000000000000008152600401611fd590613924565b60405180910390fd5b6000811480611fed5750600181145b80611ff85750600281145b612037576040517f08c379a000000000000000000000000000000000000000000000000000000000815260040161202e90613990565b60405180910390fd5b6000600a60003373ffffffffffffffffffffffffffffffffffffffff1673ffffffffffffffffffffffffffffffffffffffff16815260200190815260200160002054905060008114156120be5761208d336125f3565b905082600982815481106120a4576120a3613260565b5b9060005260206000209060050201600101819055506121dc565b6000600982815481106120d4576120d3613260565b5b906000526020600020906005020160010154612199600984815481106120fd576120fc613260565b5b90600052602060002090600502016040518060a00160405290816000820160009054906101000a900473ffffffffffffffffffffffffffffffffffffffff1673ffffffffffffffffffffffffffffffffffffffff1673ffffffffffffffffffffffffffffffffffffffff168152602001600182015481526020016002820154815260200160038201548152602001600482015481525050611f2d565b6121a3919061319e565b905080846121b1919061319e565b600983815481106121c5576121c4613260565b5b906000526020600020906005020160010181905550505b600042905080600983815481106121f6576121f5613260565b5b9060005260206000209060050201600201819055503373ffffffffffffffffffffffffffffffffffffffff167fb4caaf29adda3eefee3ad552a8e85058589bf834c7466cae4ee58787f70589ed856009858154811061225857612257613260565b5b9060005260206000209060050201600101548460405161227a939291906139b0565b60405180910390a260008314156122e95762093a80600983815481106122a3576122a2613260565b5b906000526020600020906005020160040181905550600b54600983815481106122cf576122ce613260565b5b9060005260206000209060050201600301819055506123b5565b600183141561235057621275006009838154811061230a57612309613260565b5b906000526020600020906005020160040181905550600c546009838154811061233657612335613260565b5b9060005260206000209060050201600301819055506123b4565b60028314156123b3576224ea006009838154811061237157612370613260565b5b906000526020600020906005020160040181905550600d546009838154811061239d5761239c613260565b5b9060005260206000209060050201600301819055505b5b5b50505050565b600073ffffffffffffffffffffffffffffffffffffffff168273ffffffffffffffffffffffffffffffffffffffff16141561242b576040517f08c379a000000000000000000000000000000000000000000000000000000000815260040161242290613a59565b60405180910390fd5b61243782600083611f96565b806000808473ffffffffffffffffffffffffffffffffffffffff1673ffffffffffffffffffffffffffffffffffffffff16815260200190815260200160002054612481919061316a565b6000808473ffffffffffffffffffffffffffffffffffffffff1673ffffffffffffffffffffffffffffffffffffffff16815260200190815260200160002081905550806002546124d1919061316a565b600281905550600073ffffffffffffffffffffffffffffffffffffffff168273ffffffffffffffffffffffffffffffffffffffff167fddf252ad1be2c89b69c2b068fc378daa952ba7f163c4a11628f55a4df523b3ef8360405161253591906128c2565b60405180910390a35050565b600a60003373ffffffffffffffffffffffffffffffffffffffff1673ffffffffffffffffffffffffffffffffffffffff168152602001908152602001600020600090556009818154811061259857612597613260565b5b9060005260206000209060050201600080820160006101000a81549073ffffffffffffffffffffffffffffffffffffffff02191690556001820160009055600282016000905560038201600090556004820160009055505050565b600060096001816001815401808255809150500390600052602060002090505060006001600980549050612627919061316a565b9050826009828154811061263e5761263d613260565b5b906000526020600020906005020160000160006101000a81548173ffffffffffffffffffffffffffffffffffffffff021916908373ffffffffffffffffffffffffffffffffffffffff16021790555080600a60008573ffffffffffffffffffffffffffffffffffffffff1673ffffffffffffffffffffffffffffffffffffffff1681526020019081526020016000208190555080915050919050565b600081519050919050565b600082825260208201905092915050565b60005b838110156127145780820151818401526020810190506126f9565b83811115612723576000848401525b50505050565b6000601f19601f8301169050919050565b6000612745826126da565b61274f81856126e5565b935061275f8185602086016126f6565b61276881612729565b840191505092915050565b6000602082019050818103600083015261278d818461273a565b905092915050565b6000604051905090565b600080fd5b600080fd5b600073ffffffffffffffffffffffffffffffffffffffff82169050919050565b60006127d4826127a9565b9050919050565b6127e4816127c9565b81146127ef57600080fd5b50565b600081359050612801816127db565b92915050565b6000819050919050565b61281a81612807565b811461282557600080fd5b50565b60008135905061283781612811565b92915050565b600080604083850312156128545761285361279f565b5b6000612862858286016127f2565b925050602061287385828601612828565b9150509250929050565b60008115159050919050565b6128928161287d565b82525050565b60006020820190506128ad6000830184612889565b92915050565b6128bc81612807565b82525050565b60006020820190506128d760008301846128b3565b92915050565b6000806000606084860312156128f6576128f561279f565b5b6000612904868287016127f2565b9350506020612915868287016127f2565b925050604061292686828701612828565b9150509250925092565b600060ff82169050919050565b61294681612930565b82525050565b6000602082019050612961600083018461293d565b92915050565b60006020828403121561297d5761297c61279f565b5b600061298b848285016127f2565b91505092915050565b600080fd5b600080fd5b7f4e487b7100000000000000000000000000000000000000000000000000000000600052604160045260246000fd5b6129d682612729565b810181811067ffffffffffffffff821117156129f5576129f461299e565b5b80604052505050565b6000612a08612795565b9050612a1482826129cd565b919050565b600067ffffffffffffffff821115612a3457612a3361299e565b5b612a3d82612729565b9050602081019050919050565b82818337600083830152505050565b6000612a6c612a6784612a19565b6129fe565b905082815260208101848484011115612a8857612a87612999565b5b612a93848285612a4a565b509392505050565b600082601f830112612ab057612aaf612994565b5b8135612ac0848260208601612a59565b91505092915050565b612ad281612930565b8114612add57600080fd5b50565b600081359050612aef81612ac9565b92915050565b60008060008060808587031215612b0f57612b0e61279f565b5b6000612b1d87828801612828565b945050602085013567ffffffffffffffff811115612b3e57612b3d6127a4565b5b612b4a87828801612a9b565b935050604085013567ffffffffffffffff811115612b6b57612b6a6127a4565b5b612b7787828801612a9b565b9250506060612b8887828801612ae0565b91505092959194509250565b612b9d816127c9565b82525050565b6000602082019050612bb86000830184612b94565b92915050565b600060208284031215612bd457612bd361279f565b5b6000612be284828501612828565b91505092915050565b60006040820190508181036000830152612c05818561273a565b90508181036020830152612c19818461273a565b90509392505050565b600080600060608486031215612c3b57612c3a61279f565b5b6000612c49868287016127f2565b9350506020612c5a86828701612828565b925050604084013567ffffffffffffffff811115612c7b57612c7a6127a4565b5b612c8786828701612a9b565b9150509250925092565b60008060008060808587031215612cab57612caa61279f565b5b6000612cb9878288016127f2565b9450506020612cca87828801612828565b935050604085013567ffffffffffffffff811115612ceb57612cea6127a4565b5b612cf787828801612a9b565b925050606085013567ffffffffffffffff811115612d1857612d176127a4565b5b612d2487828801612a9b565b91505092959194509250565b600080600060608486031215612d4957612d4861279f565b5b6000612d5786828701612828565b935050602084013567ffffffffffffffff811115612d7857612d776127a4565b5b612d8486828701612a9b565b9250506040612d9586828701612ae0565b9150509250925092565b60008060408385031215612db657612db561279f565b5b6000612dc4858286016127f2565b9250506020612dd5858286016127f2565b9150509250929050565b60008060008060808587031215612df957612df861279f565b5b6000612e07878288016127f2565b9450506020612e18878288016127f2565b9350506040612e2987828801612828565b925050606085013567ffffffffffffffff811115612e4a57612e496127a4565b5b612e5687828801612a9b565b91505092959194509250565b600080600080600060a08688031215612e7e57612e7d61279f565b5b6000612e8c888289016127f2565b9550506020612e9d888289016127f2565b9450506040612eae88828901612828565b935050606086013567ffffffffffffffff811115612ecf57612ece6127a4565b5b612edb88828901612a9b565b925050608086013567ffffffffffffffff811115612efc57612efb6127a4565b5b612f0888828901612a9b565b9150509295509295909350565b600060a082019050612f2a6000830188612889565b612f3760208301876128b3565b612f4460408301866128b3565b612f5160608301856128b3565b612f5e60808301846128b3565b9695505050505050565b600081519050919050565b600082825260208201905092915050565b6000819050602082019050919050565b600082825260208201905092915050565b6000612fb0826126da565b612fba8185612f94565b9350612fca8185602086016126f6565b612fd381612729565b840191505092915050565b60006040830160008301518482036000860152612ffb8282612fa5565b915050602083015184820360208601526130158282612fa5565b9150508091505092915050565b600061302e8383612fde565b905092915050565b6000602082019050919050565b600061304e82612f68565b6130588185612f73565b93508360208202850161306a85612f84565b8060005b858110156130a657848403895281516130878582613022565b945061309283613036565b925060208a0199505060018101905061306e565b50829750879550505050505092915050565b600060208201905081810360008301526130d28184613043565b905092915050565b7f4e487b7100000000000000000000000000000000000000000000000000000000600052602260045260246000fd5b6000600282049050600182168061312157607f821691505b60208210811415613135576131346130da565b5b50919050565b7f4e487b7100000000000000000000000000000000000000000000000000000000600052601160045260246000fd5b600061317582612807565b915061318083612807565b9250828210156131935761319261313b565b5b828203905092915050565b60006131a982612807565b91506131b483612807565b9250827fffffffffffffffffffffffffffffffffffffffffffffffffffffffffffffffff038211156131e9576131e861313b565b5b828201905092915050565b7f4f776e61626c653a2063616c6c6572206973206e6f7420746865206f776e6572600082015250565b600061322a6020836126e5565b9150613235826131f4565b602082019050919050565b600060208201905081810360008301526132598161321d565b9050919050565b7f4e487b7100000000000000000000000000000000000000000000000000000000600052603260045260246000fd5b7f4f776e61626c653a206e6577206f776e657220697320746865207a65726f206160008201527f6464726573730000000000000000000000000000000000000000000000000000602082015250565b60006132eb6026836126e5565b91506132f68261328f565b604082019050919050565b6000602082019050818103600083015261331a816132de565b9050919050565b7f45524332303a20617070726f76652066726f6d20746865207a65726f2061646460008201527f7265737300000000000000000000000000000000000000000000000000000000602082015250565b600061337d6024836126e5565b915061338882613321565b604082019050919050565b600060208201905081810360008301526133ac81613370565b9050919050565b7f45524332303a20617070726f766520746f20746865207a65726f20616464726560008201527f7373000000000000000000000000000000000000000000000000000000000000602082015250565b600061340f6022836126e5565b915061341a826133b3565b604082019050919050565b6000602082019050818103600083015261343e81613402565b9050919050565b7f45524332303a207472616e736665722066726f6d20746865207a65726f20616460008201527f6472657373000000000000000000000000000000000000000000000000000000602082015250565b60006134a16025836126e5565b91506134ac82613445565b604082019050919050565b600060208201905081810360008301526134d081613494565b9050919050565b7f45524332303a207472616e7366657220746f20746865207a65726f206164647260008201527f6573730000000000000000000000000000000000000000000000000000000000602082015250565b60006135336023836126e5565b915061353e826134d7565b604082019050919050565b6000602082019050818103600083015261356281613526565b9050919050565b7f42657474657254696d6573546f6b656e3a2043616e6e6f74207374616b65206d60008201527f6f7265207468616e20796f75206f776e00000000000000000000000000000000602082015250565b60006135c56030836126e5565b91506135d082613569565b604082019050919050565b600060208201905081810360008301526135f4816135b8565b9050919050565b600081905092915050565b6000613611826126da565b61361b81856135fb565b935061362b8185602086016126f6565b80840191505092915050565b7f277320686172642074696d65732073746f727920697320000000000000000000600082015250565b600061366d6017836135fb565b915061367882613637565b601782019050919050565b600061368f8285613606565b915061369a82613660565b91506136a68284613606565b91508190509392505050565b7f4c6174656c792c20492068656c70656420746f2072656d6f766520706f76657260008201527f74792066726f6d2074686520776f726c64206279200000000000000000000000602082015250565b600061370e6035836135fb565b9150613719826136b2565b603582019050919050565b600061372f82613701565b915061373b8284613606565b915081905092915050565b7f796f7520646f206e6f74206861766520616e7920636f696e73207374616b6564600082015250565b600061377c6020836126e5565b915061378782613746565b602082019050919050565b600060208201905081810360008301526137ab8161376f565b9050919050565b7f45524332303a206d696e7420746f20746865207a65726f206164647265737300600082015250565b60006137e8601f836126e5565b91506137f3826137b2565b602082019050919050565b60006020820190508181036000830152613817816137db565b9050919050565b7f4e487b7100000000000000000000000000000000000000000000000000000000600052601260045260246000fd5b600061385882612807565b915061386383612807565b9250826138735761387261381e565b5b828204905092915050565b600061388982612807565b915061389483612807565b9250817fffffffffffffffffffffffffffffffffffffffffffffffffffffffffffffffff04831182151516156138cd576138cc61313b565b5b828202905092915050565b7f43616e6e6f74207374616b65206e6f7468696e67000000000000000000000000600082015250565b600061390e6014836126e5565b9150613919826138d8565b602082019050919050565b6000602082019050818103600083015261393d81613901565b9050919050565b7f74696d656672616d652076616c7565206e6f742076616c696400000000000000600082015250565b600061397a6019836126e5565b915061398582613944565b602082019050919050565b600060208201905081810360008301526139a98161396d565b9050919050565b60006060820190506139c560008301866128b3565b6139d260208301856128b3565b6139df60408301846128b3565b949350505050565b7f45524332303a206275726e2066726f6d20746865207a65726f2061646472657360008201527f7300000000000000000000000000000000000000000000000000000000000000602082015250565b6000613a436021836126e5565b9150613a4e826139e7565b604082019050919050565b60006020820190508181036000830152613a7281613a36565b905091905056fea26469706673582212200078c2608d5cd844a5a3fada41050e6d3a192bfa385b9919839bff7838adaa8164736f6c634300080b003350657268617073206f6e65206f66207468652062657374207761797320746f20706f74656e7469616c6c792072656d6f766520706f766572747920697320746f20736861726520746865204561736965722054696d657320546f6b656e20776974682074686f73652077686f2066696e64207468656d73656c7665732066616c6c656e206f6e20686172642074696d65732e2054686174207761792c206120686967682064656d616e64206f662074686520636f696e2063616e206265636f6d652073796e6f6e796d6f75732077697468207265647563696e6720706f766572747920696e2074686520776f726c642c2073696e63652077686f657665722068617320746865736520636f696e732077696c6c20686176652074686569722066696e616e63657320696d70726f76696e672e45766572792074696d6520796f75207368617265206f72207374616b652074686520636f696e2c207468696e6b206f66207761797320696e20776869636820796f752063616e2068656c7020746f2072656d6f766520706f766572747920696e2074686520776f726c642c20616e64207768656e6576657220706f737369626c6520616374206f6e2074686f73652074686f75676874732e2049742063616e20626520736f6d657468696e6720617420746865206c6576656c206f6620796f75722066616d696c792c20796f757220636f6d6d756e6974792c20796f757220636974792c20757020746f207468652077686f6c6520776f726c642e53686172652074686520636f696e20776974682074686f736520696e206e656564",
  "immutableReferences": {},
  "source": "// SPDX-License-Identifier: MIT\r\n\r\npragma solidity ^0.8.9;\r\n\r\nimport \"../node_modules/openzeppelin-contracts/token/ERC20/ERC20.sol\";\r\nimport \"../node_modules/openzeppelin-contracts/access/Ownable.sol\";\r\nimport \"./SacredCoin.sol\";\r\nimport \"./SacredStakeable.sol\";\r\n\r\ncontract BetterTimesToken is ERC20, Ownable, SacredCoin, SacredStakeable {\r\n\r\n    constructor() ERC20(\"Better Times Token\", \"UPNUP\") {\r\n\r\n        /**\r\n        * @dev minting 679 million coins, an estimate of how much people are living in poverty at the moment of\r\n        * the coin creation\r\n        */\r\n        _mint(msg.sender, 679000000 * 10 ** decimals());\r\n\r\n        /**\r\n        * @dev calling the setGuideline function to create 2 guidelines:\r\n        */\r\n\r\n        setGuideline(\"Help to remove poverty\", \"Every time you share or stake the coin, think of ways in which you can help to remove poverty in the world, and whenever possible act on those thoughts. It can be something at the level of your family, your community, your city, up to the whole world.\");\r\n        setGuideline(\"Share the coin with those in need\", \"Perhaps one of the best ways to potentially remove poverty is to share the Easier Times Token with those who find themselves fallen on hard times. That way, a high demand of the coin can become synonymous with reducing poverty in the world, since whoever has these coins will have their finances improving.\");\r\n    }\r\n\r\n    mapping (address => bool) public WhitelistedToCallSacredMessages;\r\n\r\n\r\n    event SacredEvent(string BetterTimesMessage);\r\n\r\n    /**\r\n    * @dev Whitelist that has the ability to emit events.\r\n    */\r\n    modifier onlyWhitelistedToCallSacredMessages() {\r\n        require(isInSacredMessagesWhitelist(msg.sender), \"only whitelisted addresses can call this function\");\r\n        _;\r\n    }\r\n\r\n    function isInSacredMessagesWhitelist(address _address) public view returns (bool) {\r\n        return WhitelistedToCallSacredMessages[_address];\r\n    }\r\n\r\n    function addToSacredMessagesWhitelist(address _whitelistedAddress) public onlyOwner {\r\n        WhitelistedToCallSacredMessages[_whitelistedAddress]=true;\r\n    }\r\n\r\n    function removeFromSacredMessagesWhitelist(address _whitelistedAddress) public onlyOwner{\r\n        WhitelistedToCallSacredMessages[_whitelistedAddress]=false;\r\n    }\r\n\r\n    function SacredMessageOne(string memory yourDeeds) private {\r\n        emit SacredEvent(string(abi.encodePacked(\"Lately, I helped to remove poverty from the world by \", yourDeeds)));\r\n    }\r\n\r\n    function SacredMessageTwo(string memory name, string memory story) private {\r\n        emit SacredEvent(string(abi.encodePacked(name, \"'s hard times story is \", story)));\r\n    }\r\n\r\n    function transferSacredOne(address to, uint tokens, string memory yourDeeds) public {\r\n        super.transfer(to, tokens);\r\n        SacredMessageOne(yourDeeds);\r\n    }\r\n\r\n    function transferSacredTwo(address to, uint tokens, string memory name, string memory gratitudeObject) public {\r\n        super.transfer(to, tokens);\r\n        SacredMessageTwo(name, gratitudeObject);\r\n    }\r\n\r\n    function transferFromSacredOne(address sender, address recipient, uint256 amount, string memory yourDeeds) public {\r\n        super.transferFrom(sender, recipient, amount);\r\n        SacredMessageOne(yourDeeds);\r\n    }\r\n\r\n    function transferFromSacredTwo(address sender, address recipient, uint256 amount, string memory name, string memory story) public {\r\n        super.transferFrom(sender, recipient, amount);\r\n        SacredMessageTwo(name, story);\r\n    }\r\n\r\n    /**\r\n    * Add functionality like burn to the _stake afunction\r\n    *\r\n    */\r\n    function stake(uint256 _amount, uint8 timeframe) internal {\r\n        // Make sure staker actually is good for it\r\n        require(_amount < balanceOf(msg.sender), \"BetterTimesToken: Cannot stake more than you own\");\r\n\r\n        _stake(_amount, timeframe);\r\n        // Burn the amount of tokens on the sender\r\n        _burn(msg.sender, _amount);\r\n    }\r\n\r\n    function stakeOne(uint256 _amount, string memory yourDeeds, uint8 timeframe) public {\r\n        stake(_amount, timeframe);\r\n        SacredMessageOne(yourDeeds);\r\n    }\r\n\r\n    function stakeTwo(uint256 _amount, string memory name, string memory story, uint8 timeframe) public {\r\n        stake(_amount, timeframe);\r\n        SacredMessageTwo(name, story);\r\n    }\r\n\r\n    /**\r\n    * @notice withdrawStake is used to withdraw stakes from the account holder\r\n     */\r\n    function withdrawStake()  public {\r\n\r\n        uint256 amount_to_mint = _withdrawStake();\r\n        // Return staked tokens to user\r\n        _mint(msg.sender, amount_to_mint);\r\n    }\r\n}\r\n",
  "sourcePath": "C:\\code\\better_times_token_and_sacred_farm_backendd\\contracts\\BetterTimesToken.sol",
  "compiler": {
    "name": "solc",
    "version": "0.8.11+commit.d7f03943.Emscripten.clang"
  },
  "schemaVersion": "3.4.3",
  "updatedAt": "2022-02-05T23:46:49.869Z",
  "devdoc": {
    "kind": "dev",
    "methods": {
      "allowance(address,address)": {
        "details": "See {IERC20-allowance}."
      },
      "approve(address,uint256)": {
        "details": "See {IERC20-approve}. Requirements: - `spender` cannot be the zero address."
      },
      "balanceOf(address)": {
        "details": "See {IERC20-balanceOf}."
      },
      "decimals()": {
        "details": "Returns the number of decimals used to get its user representation. For example, if `decimals` equals `2`, a balance of `505` tokens should be displayed to a user as `5,05` (`505 / 10 ** 2`). Tokens usually opt for a value of 18, imitating the relationship between Ether and Wei. This is the value {ERC20} uses, unless {_setupDecimals} is called. NOTE: This information is only used for _display_ purposes: it in no way affects any of the arithmetic of the contract, including {IERC20-balanceOf} and {IERC20-transfer}."
      },
      "decreaseAllowance(address,uint256)": {
        "details": "Atomically decreases the allowance granted to `spender` by the caller. This is an alternative to {approve} that can be used as a mitigation for problems described in {IERC20-approve}. Emits an {Approval} event indicating the updated allowance. Requirements: - `spender` cannot be the zero address. - `spender` must have allowance for the caller of at least `subtractedValue`."
      },
      "increaseAllowance(address,uint256)": {
        "details": "Atomically increases the allowance granted to `spender` by the caller. This is an alternative to {approve} that can be used as a mitigation for problems described in {IERC20-approve}. Emits an {Approval} event indicating the updated allowance. Requirements: - `spender` cannot be the zero address."
      },
      "name()": {
        "details": "Returns the name of the token."
      },
      "owner()": {
        "details": "Returns the address of the current owner."
      },
      "renounceOwnership()": {
        "details": "Leaves the contract without owner. It will not be possible to call `onlyOwner` functions anymore. Can only be called by the current owner. NOTE: Renouncing ownership will leave the contract without an owner, thereby removing any functionality that is only available to the owner."
      },
      "returnAllGuidelines()": {
        "details": "Function that returns all guidelines. This allows iterating over all guidelines for the purpose of retrieval and/or display."
      },
      "returnSingleGuideline(uint256)": {
        "details": "Function that returns a single guideline. The element at location 0 of the array will store the guideline summary. The element at location 1 of the array will store the guideline itself."
      },
      "symbol()": {
        "details": "Returns the symbol of the token, usually a shorter version of the name."
      },
      "totalSupply()": {
        "details": "See {IERC20-totalSupply}."
      },
      "transfer(address,uint256)": {
        "details": "See {IERC20-transfer}. Requirements: - `recipient` cannot be the zero address. - the caller must have a balance of at least `amount`."
      },
      "transferFrom(address,address,uint256)": {
        "details": "See {IERC20-transferFrom}. Emits an {Approval} event indicating the updated allowance. This is not required by the EIP. See the note at the beginning of {ERC20}. Requirements: - `sender` and `recipient` cannot be the zero address. - `sender` must have a balance of at least `amount`. - the caller must have allowance for ``sender``'s tokens of at least `amount`."
      },
      "transferOwnership(address)": {
        "details": "Transfers ownership of the contract to a new account (`newOwner`). Can only be called by the current owner."
      }
    },
    "version": 1
  },
  "userdoc": {
    "events": {
      "Staked(address,uint256,uint256,uint256)": {
        "notice": "Staked event is triggered whenever a user stakes tokens, address is indexed to make it filterable"
      }
    },
    "kind": "user",
    "methods": {
      "hasStake(address)": {
        "notice": "hasStake is used to check if a account has stakes and the total amount along with all the separate stakes"
      },
      "withdrawStake()": {
        "notice": "withdrawStake is used to withdraw stakes from the account holder"
      }
    },
    "version": 1
  }
}