{
  "contractName": "BetterTimesToken",
  "abi": [
    {
      "inputs": [],
      "stateMutability": "nonpayable",
      "type": "constructor"
    },
    {
      "anonymous": false,
      "inputs": [
        {
          "indexed": true,
          "internalType": "address",
          "name": "owner",
          "type": "address"
        },
        {
          "indexed": true,
          "internalType": "address",
          "name": "spender",
          "type": "address"
        },
        {
          "indexed": false,
          "internalType": "uint256",
          "name": "value",
          "type": "uint256"
        }
      ],
      "name": "Approval",
      "type": "event"
    },
    {
      "anonymous": false,
      "inputs": [
        {
          "indexed": false,
          "internalType": "string",
          "name": "guidelineSummary",
          "type": "string"
        },
        {
          "indexed": false,
          "internalType": "string",
          "name": "guideline",
          "type": "string"
        }
      ],
      "name": "GuidelineCreated",
      "type": "event"
    },
    {
      "anonymous": false,
      "inputs": [
        {
          "indexed": true,
          "internalType": "address",
          "name": "previousOwner",
          "type": "address"
        },
        {
          "indexed": true,
          "internalType": "address",
          "name": "newOwner",
          "type": "address"
        }
      ],
      "name": "OwnershipTransferred",
      "type": "event"
    },
    {
      "anonymous": false,
      "inputs": [
        {
          "indexed": false,
          "internalType": "string",
          "name": "BetterTimesMessage",
          "type": "string"
        }
      ],
      "name": "SacredEvent",
      "type": "event"
    },
    {
      "anonymous": false,
      "inputs": [
        {
          "indexed": true,
          "internalType": "address",
          "name": "user",
          "type": "address"
        },
        {
          "indexed": false,
          "internalType": "uint256",
          "name": "thisAmount",
          "type": "uint256"
        },
        {
          "indexed": false,
          "internalType": "uint256",
          "name": "entireAmount",
          "type": "uint256"
        },
        {
          "indexed": false,
          "internalType": "uint256",
          "name": "timestamp",
          "type": "uint256"
        }
      ],
      "name": "Staked",
      "type": "event"
    },
    {
      "anonymous": false,
      "inputs": [
        {
          "indexed": true,
          "internalType": "address",
          "name": "from",
          "type": "address"
        },
        {
          "indexed": true,
          "internalType": "address",
          "name": "to",
          "type": "address"
        },
        {
          "indexed": false,
          "internalType": "uint256",
          "name": "value",
          "type": "uint256"
        }
      ],
      "name": "Transfer",
      "type": "event"
    },
    {
      "inputs": [
        {
          "internalType": "address",
          "name": "",
          "type": "address"
        }
      ],
      "name": "WhitelistedToCallSacredMessages",
      "outputs": [
        {
          "internalType": "bool",
          "name": "",
          "type": "bool"
        }
      ],
      "stateMutability": "view",
      "type": "function"
    },
    {
      "inputs": [
        {
          "internalType": "address",
          "name": "owner",
          "type": "address"
        },
        {
          "internalType": "address",
          "name": "spender",
          "type": "address"
        }
      ],
      "name": "allowance",
      "outputs": [
        {
          "internalType": "uint256",
          "name": "",
          "type": "uint256"
        }
      ],
      "stateMutability": "view",
      "type": "function"
    },
    {
      "inputs": [
        {
          "internalType": "address",
          "name": "spender",
          "type": "address"
        },
        {
          "internalType": "uint256",
          "name": "amount",
          "type": "uint256"
        }
      ],
      "name": "approve",
      "outputs": [
        {
          "internalType": "bool",
          "name": "",
          "type": "bool"
        }
      ],
      "stateMutability": "nonpayable",
      "type": "function"
    },
    {
      "inputs": [
        {
          "internalType": "address",
          "name": "account",
          "type": "address"
        }
      ],
      "name": "balanceOf",
      "outputs": [
        {
          "internalType": "uint256",
          "name": "",
          "type": "uint256"
        }
      ],
      "stateMutability": "view",
      "type": "function"
    },
    {
      "inputs": [],
      "name": "decimals",
      "outputs": [
        {
          "internalType": "uint8",
          "name": "",
          "type": "uint8"
        }
      ],
      "stateMutability": "view",
      "type": "function"
    },
    {
      "inputs": [
        {
          "internalType": "address",
          "name": "spender",
          "type": "address"
        },
        {
          "internalType": "uint256",
          "name": "subtractedValue",
          "type": "uint256"
        }
      ],
      "name": "decreaseAllowance",
      "outputs": [
        {
          "internalType": "bool",
          "name": "",
          "type": "bool"
        }
      ],
      "stateMutability": "nonpayable",
      "type": "function"
    },
    {
      "inputs": [
        {
          "internalType": "uint256",
          "name": "",
          "type": "uint256"
        }
      ],
      "name": "guidelines",
      "outputs": [
        {
          "internalType": "string",
          "name": "summary",
          "type": "string"
        },
        {
          "internalType": "string",
          "name": "guideline",
          "type": "string"
        }
      ],
      "stateMutability": "view",
      "type": "function"
    },
    {
      "inputs": [
        {
          "internalType": "address",
          "name": "_staker",
          "type": "address"
        }
      ],
      "name": "hasStake",
      "outputs": [
        {
          "internalType": "bool",
          "name": "isStaking",
          "type": "bool"
        },
        {
          "internalType": "uint256",
          "name": "stakedAmount",
          "type": "uint256"
        },
        {
          "internalType": "uint256",
          "name": "claimableReward",
          "type": "uint256"
        },
        {
          "internalType": "uint256",
          "name": "totalAmount",
          "type": "uint256"
        },
        {
          "internalType": "uint256",
          "name": "SecondsToEndOfStakingRewards",
          "type": "uint256"
        }
      ],
      "stateMutability": "view",
      "type": "function"
    },
    {
      "inputs": [
        {
          "internalType": "address",
          "name": "spender",
          "type": "address"
        },
        {
          "internalType": "uint256",
          "name": "addedValue",
          "type": "uint256"
        }
      ],
      "name": "increaseAllowance",
      "outputs": [
        {
          "internalType": "bool",
          "name": "",
          "type": "bool"
        }
      ],
      "stateMutability": "nonpayable",
      "type": "function"
    },
    {
      "inputs": [],
      "name": "name",
      "outputs": [
        {
          "internalType": "string",
          "name": "",
          "type": "string"
        }
      ],
      "stateMutability": "view",
      "type": "function"
    },
    {
      "inputs": [],
      "name": "numberOfGuidelines",
      "outputs": [
        {
          "internalType": "uint256",
          "name": "",
          "type": "uint256"
        }
      ],
      "stateMutability": "view",
      "type": "function"
    },
    {
      "inputs": [],
      "name": "owner",
      "outputs": [
        {
          "internalType": "address",
          "name": "",
          "type": "address"
        }
      ],
      "stateMutability": "view",
      "type": "function"
    },
    {
      "inputs": [],
      "name": "renounceOwnership",
      "outputs": [],
      "stateMutability": "nonpayable",
      "type": "function"
    },
    {
      "inputs": [],
      "name": "returnAllGuidelines",
      "outputs": [
        {
          "components": [
            {
              "internalType": "string",
              "name": "summary",
              "type": "string"
            },
            {
              "internalType": "string",
              "name": "guideline",
              "type": "string"
            }
          ],
          "internalType": "struct SacredCoin.Guideline[]",
          "name": "",
          "type": "tuple[]"
        }
      ],
      "stateMutability": "view",
      "type": "function"
    },
    {
      "inputs": [
        {
          "internalType": "uint256",
          "name": "_index",
          "type": "uint256"
        }
      ],
      "name": "returnSingleGuideline",
      "outputs": [
        {
          "internalType": "string",
          "name": "",
          "type": "string"
        },
        {
          "internalType": "string",
          "name": "",
          "type": "string"
        }
      ],
      "stateMutability": "view",
      "type": "function"
    },
    {
      "inputs": [],
      "name": "symbol",
      "outputs": [
        {
          "internalType": "string",
          "name": "",
          "type": "string"
        }
      ],
      "stateMutability": "view",
      "type": "function"
    },
    {
      "inputs": [],
      "name": "totalSupply",
      "outputs": [
        {
          "internalType": "uint256",
          "name": "",
          "type": "uint256"
        }
      ],
      "stateMutability": "view",
      "type": "function"
    },
    {
      "inputs": [
        {
          "internalType": "address",
          "name": "recipient",
          "type": "address"
        },
        {
          "internalType": "uint256",
          "name": "amount",
          "type": "uint256"
        }
      ],
      "name": "transfer",
      "outputs": [
        {
          "internalType": "bool",
          "name": "",
          "type": "bool"
        }
      ],
      "stateMutability": "nonpayable",
      "type": "function"
    },
    {
      "inputs": [
        {
          "internalType": "address",
          "name": "sender",
          "type": "address"
        },
        {
          "internalType": "address",
          "name": "recipient",
          "type": "address"
        },
        {
          "internalType": "uint256",
          "name": "amount",
          "type": "uint256"
        }
      ],
      "name": "transferFrom",
      "outputs": [
        {
          "internalType": "bool",
          "name": "",
          "type": "bool"
        }
      ],
      "stateMutability": "nonpayable",
      "type": "function"
    },
    {
      "inputs": [
        {
          "internalType": "address",
          "name": "newOwner",
          "type": "address"
        }
      ],
      "name": "transferOwnership",
      "outputs": [],
      "stateMutability": "nonpayable",
      "type": "function"
    },
    {
      "inputs": [
        {
          "internalType": "address",
          "name": "to",
          "type": "address"
        },
        {
          "internalType": "uint256",
          "name": "tokens",
          "type": "uint256"
        },
        {
          "internalType": "string",
          "name": "yourDeeds",
          "type": "string"
        }
      ],
      "name": "transferSacredOne",
      "outputs": [],
      "stateMutability": "nonpayable",
      "type": "function"
    },
    {
      "inputs": [
        {
          "internalType": "address",
          "name": "to",
          "type": "address"
        },
        {
          "internalType": "uint256",
          "name": "tokens",
          "type": "uint256"
        },
        {
          "internalType": "string",
          "name": "name",
          "type": "string"
        },
        {
          "internalType": "string",
          "name": "story",
          "type": "string"
        }
      ],
      "name": "transferSacredTwo",
      "outputs": [],
      "stateMutability": "nonpayable",
      "type": "function"
    },
    {
      "inputs": [
        {
          "internalType": "address",
          "name": "spender",
          "type": "address"
        },
        {
          "internalType": "uint256",
          "name": "amount",
          "type": "uint256"
        },
        {
          "internalType": "string",
          "name": "yourDeeds",
          "type": "string"
        }
      ],
      "name": "approveSacredOne",
      "outputs": [],
      "stateMutability": "nonpayable",
      "type": "function"
    },
    {
      "inputs": [
        {
          "internalType": "address",
          "name": "spender",
          "type": "address"
        },
        {
          "internalType": "uint256",
          "name": "amount",
          "type": "uint256"
        },
        {
          "internalType": "string",
          "name": "name",
          "type": "string"
        },
        {
          "internalType": "string",
          "name": "story",
          "type": "string"
        }
      ],
      "name": "approveSacredTwo",
      "outputs": [],
      "stateMutability": "nonpayable",
      "type": "function"
    },
    {
      "inputs": [
        {
          "internalType": "address",
          "name": "sender",
          "type": "address"
        },
        {
          "internalType": "address",
          "name": "recipient",
          "type": "address"
        },
        {
          "internalType": "uint256",
          "name": "amount",
          "type": "uint256"
        },
        {
          "internalType": "string",
          "name": "yourDeeds",
          "type": "string"
        }
      ],
      "name": "transferFromSacredOne",
      "outputs": [],
      "stateMutability": "nonpayable",
      "type": "function"
    },
    {
      "inputs": [
        {
          "internalType": "address",
          "name": "sender",
          "type": "address"
        },
        {
          "internalType": "address",
          "name": "recipient",
          "type": "address"
        },
        {
          "internalType": "uint256",
          "name": "amount",
          "type": "uint256"
        },
        {
          "internalType": "string",
          "name": "name",
          "type": "string"
        },
        {
          "internalType": "string",
          "name": "story",
          "type": "string"
        }
      ],
      "name": "transferFromSacredTwo",
      "outputs": [],
      "stateMutability": "nonpayable",
      "type": "function"
    },
    {
      "inputs": [
        {
          "internalType": "uint256",
          "name": "_amount",
          "type": "uint256"
        },
        {
          "internalType": "string",
          "name": "yourDeeds",
          "type": "string"
        },
        {
          "internalType": "uint8",
          "name": "timeframe",
          "type": "uint8"
        }
      ],
      "name": "stakeOne",
      "outputs": [],
      "stateMutability": "nonpayable",
      "type": "function"
    },
    {
      "inputs": [
        {
          "internalType": "uint256",
          "name": "_amount",
          "type": "uint256"
        },
        {
          "internalType": "string",
          "name": "name",
          "type": "string"
        },
        {
          "internalType": "string",
          "name": "story",
          "type": "string"
        },
        {
          "internalType": "uint8",
          "name": "timeframe",
          "type": "uint8"
        }
      ],
      "name": "stakeTwo",
      "outputs": [],
      "stateMutability": "nonpayable",
      "type": "function"
    },
    {
      "inputs": [],
      "name": "withdrawStake",
      "outputs": [],
      "stateMutability": "nonpayable",
      "type": "function"
    }
  ],
  "bytecode": "0x60806040526101f4600b55610271600c556103e8600d553480156200002357600080fd5b506040518060400160405280601281526020017f4265747465722054696d657320546f6b656e00000000000000000000000000008152506040518060400160405280600581526020017f55504e55500000000000000000000000000000000000000000000000000000008152508160039080519060200190620000a892919062000536565b508060049080519060200190620000c192919062000536565b506012600560006101000a81548160ff021916908360ff16021790555050506000620000f26200029c60201b60201c565b905080600560016101000a81548173ffffffffffffffffffffffffffffffffffffffff021916908373ffffffffffffffffffffffffffffffffffffffff1602179055508073ffffffffffffffffffffffffffffffffffffffff16600073ffffffffffffffffffffffffffffffffffffffff167f8be0079c531659141344cd1fd0a4f28419497f9722a3daafe3b4186f6b6457e060405160405180910390a350600960018160018154018082558091505003906000526020600020905050620001ee33620001c4620002a460201b60201c565b600a620001d2919062000780565b620f4240620001e29190620007d1565b620002bb60201b60201c565b6200024f6040518060400160405280601681526020017f48656c7020746f2072656d6f766520706f76657274790000000000000000000081525060405180610120016040528060fb81526020016200468660fb91396200045260201b60201c565b62000296604051806060016040528060218152602001620047816021913960405180610160016040528061013281526020016200455461013291396200045260201b60201c565b62000ac1565b600033905090565b6000600560009054906101000a900460ff16905090565b600073ffffffffffffffffffffffffffffffffffffffff168273ffffffffffffffffffffffffffffffffffffffff1614156200032e576040517f08c379a0000000000000000000000000000000000000000000000000000000008152600401620003259062000893565b60405180910390fd5b62000342600083836200053160201b60201c565b80600254620003529190620008b5565b600281905550806000808473ffffffffffffffffffffffffffffffffffffffff1673ffffffffffffffffffffffffffffffffffffffff16815260200190815260200160002054620003a49190620008b5565b6000808473ffffffffffffffffffffffffffffffffffffffff1673ffffffffffffffffffffffffffffffffffffffff168152602001908152602001600020819055508173ffffffffffffffffffffffffffffffffffffffff16600073ffffffffffffffffffffffffffffffffffffffff167fddf252ad1be2c89b69c2b068fc378daa952ba7f163c4a11628f55a4df523b3ef8360405162000446919062000923565b60405180910390a35050565b6000604051806040016040528084815260200183815250905060088190806001815401808255809150506001900390600052602060002090600202016000909190919091506000820151816000019080519060200190620004b592919062000536565b506020820151816001019080519060200190620004d492919062000536565b5050507ffeb3900704f1da20c6c7adbbed3b6e4244f5bb27d544d1e5bad423c970434f8183836040516200050a929190620009d3565b60405180910390a160066000815480929190620005279062000a0e565b9190505550505050565b505050565b828054620005449062000a8b565b90600052602060002090601f016020900481019282620005685760008555620005b4565b82601f106200058357805160ff1916838001178555620005b4565b82800160010185558215620005b4579182015b82811115620005b357825182559160200191906001019062000596565b5b509050620005c39190620005c7565b5090565b5b80821115620005e2576000816000905550600101620005c8565b5090565b7f4e487b7100000000000000000000000000000000000000000000000000000000600052601160045260246000fd5b60008160011c9050919050565b6000808291508390505b600185111562000674578086048111156200064c576200064b620005e6565b5b60018516156200065c5780820291505b80810290506200066c8562000615565b94506200062c565b94509492505050565b6000826200068f576001905062000762565b816200069f576000905062000762565b8160018114620006b85760028114620006c357620006f9565b600191505062000762565b60ff841115620006d857620006d7620005e6565b5b8360020a915084821115620006f257620006f1620005e6565b5b5062000762565b5060208310610133831016604e8410600b8410161715620007335782820a9050838111156200072d576200072c620005e6565b5b62000762565b62000742848484600162000622565b925090508184048111156200075c576200075b620005e6565b5b81810290505b9392505050565b6000819050919050565b600060ff82169050919050565b60006200078d8262000769565b91506200079a8362000773565b9250620007c97fffffffffffffffffffffffffffffffffffffffffffffffffffffffffffffffff84846200067d565b905092915050565b6000620007de8262000769565b9150620007eb8362000769565b9250817fffffffffffffffffffffffffffffffffffffffffffffffffffffffffffffffff0483118215151615620008275762000826620005e6565b5b828202905092915050565b600082825260208201905092915050565b7f45524332303a206d696e7420746f20746865207a65726f206164647265737300600082015250565b60006200087b601f8362000832565b9150620008888262000843565b602082019050919050565b60006020820190508181036000830152620008ae816200086c565b9050919050565b6000620008c28262000769565b9150620008cf8362000769565b9250827fffffffffffffffffffffffffffffffffffffffffffffffffffffffffffffffff03821115620009075762000906620005e6565b5b828201905092915050565b6200091d8162000769565b82525050565b60006020820190506200093a600083018462000912565b92915050565b600081519050919050565b60005b838110156200096b5780820151818401526020810190506200094e565b838111156200097b576000848401525b50505050565b6000601f19601f8301169050919050565b60006200099f8262000940565b620009ab818562000832565b9350620009bd8185602086016200094b565b620009c88162000981565b840191505092915050565b60006040820190508181036000830152620009ef818562000992565b9050818103602083015262000a05818462000992565b90509392505050565b600062000a1b8262000769565b91507fffffffffffffffffffffffffffffffffffffffffffffffffffffffffffffffff82141562000a515762000a50620005e6565b5b600182019050919050565b7f4e487b7100000000000000000000000000000000000000000000000000000000600052602260045260246000fd5b6000600282049050600182168062000aa457607f821691505b6020821081141562000abb5762000aba62000a5c565b5b50919050565b613a838062000ad16000396000f3fe608060405234801561001057600080fd5b50600436106101cf5760003560e01c8063995212a011610104578063da4dd05a116100a2578063e3f54e5811610071578063e3f54e5814610542578063e73e14bf1461055e578063f2409e6714610592578063f2fde38b146105b0576101cf565b8063da4dd05a146104a9578063dd62ed3e146104c5578063dda9db7c146104f5578063e2bff3ba14610511576101cf565b8063a9059cbb116100de578063a9059cbb14610423578063bed9d86114610453578063c147896f1461045d578063d485c97914610479576101cf565b8063995212a0146103b95780639ede4fc0146103d5578063a457c2d7146103f3576101cf565b806339509351116101715780637df1d4791161014b5780637df1d479146103305780638da5cb5b1461034c5780638f48ec3f1461036a57806395d89b411461039b576101cf565b806339509351146102c657806370a08231146102f6578063715018a614610326576101cf565b8063095ea7b3116101ad578063095ea7b31461022a57806318160ddd1461025a57806323b872dd14610278578063313ce567146102a8576101cf565b806303ea802d146101d457806306fdde03146101f057806308c1b0cd1461020e575b600080fd5b6101ee60048036038101906101e99190612752565b6105cc565b005b6101f86105e7565b6040516102059190612879565b60405180910390f35b6102286004803603810190610223919061289b565b610679565b005b610244600480360381019061023f919061290a565b610692565b6040516102519190612965565b60405180910390f35b6102626106b0565b60405161026f919061298f565b60405180910390f35b610292600480360381019061028d91906129aa565b6106ba565b60405161029f9190612965565b60405180910390f35b6102b0610772565b6040516102bd9190612a19565b60405180910390f35b6102e060048036038101906102db919061290a565b610789565b6040516102ed9190612965565b60405180910390f35b610310600480360381019061030b9190612a34565b610835565b60405161031d919061298f565b60405180910390f35b61032e61087d565b005b61034a60048036038101906103459190612a8d565b6109d5565b005b6103546109ef565b6040516103619190612b3b565b60405180910390f35b610384600480360381019061037f9190612b56565b610a19565b604051610392929190612b83565b60405180910390f35b6103a3610b87565b6040516103b09190612879565b60405180910390f35b6103d360048036038101906103ce919061289b565b610c19565b005b6103dd610c32565b6040516103ea919061298f565b60405180910390f35b61040d6004803603810190610408919061290a565b610c38565b60405161041a9190612965565b60405180910390f35b61043d6004803603810190610438919061290a565b610ce4565b60405161044a9190612965565b60405180910390f35b61045b610d02565b005b61047760048036038101906104729190612752565b610d1b565b005b610493600480360381019061048e9190612a34565b610d36565b6040516104a09190612965565b60405180910390f35b6104c360048036038101906104be9190612bba565b610d56565b005b6104df60048036038101906104da9190612c29565b610d6e565b6040516104ec919061298f565b60405180910390f35b61050f600480360381019061050a9190612c69565b610df5565b005b61052b60048036038101906105269190612b56565b610e10565b604051610539929190612b83565b60405180910390f35b61055c60048036038101906105579190612cec565b610f54565b005b61057860048036038101906105739190612a34565b610f71565b604051610589959493929190612d9f565b60405180910390f35b61059a61113b565b6040516105a79190612f42565b60405180910390f35b6105ca60048036038101906105c59190612a34565b6112be565b005b6105d68484610692565b506105e18282611485565b50505050565b6060600380546105f690612f93565b80601f016020809104026020016040519081016040528092919081815260200182805461062290612f93565b801561066f5780601f106106445761010080835404028352916020019161066f565b820191906000526020600020905b81548152906001019060200180831161065257829003601f168201915b5050505050905090565b6106838383610692565b5061068d816114e1565b505050565b60006106a661069f61153a565b8484611542565b6001905092915050565b6000600254905090565b60006106c784848461170d565b610767846106d361153a565b84600160008973ffffffffffffffffffffffffffffffffffffffff1673ffffffffffffffffffffffffffffffffffffffff168152602001908152602001600020600061071d61153a565b73ffffffffffffffffffffffffffffffffffffffff1673ffffffffffffffffffffffffffffffffffffffff168152602001908152602001600020546107629190612ff4565b611542565b600190509392505050565b6000600560009054906101000a900460ff16905090565b600061082b61079661153a565b8484600160006107a461153a565b73ffffffffffffffffffffffffffffffffffffffff1673ffffffffffffffffffffffffffffffffffffffff16815260200190815260200160002060008873ffffffffffffffffffffffffffffffffffffffff1673ffffffffffffffffffffffffffffffffffffffff168152602001908152602001600020546108269190613028565b611542565b6001905092915050565b60008060008373ffffffffffffffffffffffffffffffffffffffff1673ffffffffffffffffffffffffffffffffffffffff168152602001908152602001600020549050919050565b61088561153a565b73ffffffffffffffffffffffffffffffffffffffff16600560019054906101000a900473ffffffffffffffffffffffffffffffffffffffff1673ffffffffffffffffffffffffffffffffffffffff1614610914576040517f08c379a000000000000000000000000000000000000000000000000000000000815260040161090b906130ca565b60405180910390fd5b600073ffffffffffffffffffffffffffffffffffffffff16600560019054906101000a900473ffffffffffffffffffffffffffffffffffffffff1673ffffffffffffffffffffffffffffffffffffffff167f8be0079c531659141344cd1fd0a4f28419497f9722a3daafe3b4186f6b6457e060405160405180910390a36000600560016101000a81548173ffffffffffffffffffffffffffffffffffffffff021916908373ffffffffffffffffffffffffffffffffffffffff160217905550565b6109df848261197a565b6109e98383611485565b50505050565b6000600560019054906101000a900473ffffffffffffffffffffffffffffffffffffffff16905090565b60608060088381548110610a3057610a2f6130ea565b5b906000526020600020906002020160000160088481548110610a5557610a546130ea565b5b9060005260206000209060020201600101818054610a7290612f93565b80601f0160208091040260200160405190810160405280929190818152602001828054610a9e90612f93565b8015610aeb5780601f10610ac057610100808354040283529160200191610aeb565b820191906000526020600020905b815481529060010190602001808311610ace57829003601f168201915b50505050509150808054610afe90612f93565b80601f0160208091040260200160405190810160405280929190818152602001828054610b2a90612f93565b8015610b775780601f10610b4c57610100808354040283529160200191610b77565b820191906000526020600020905b815481529060010190602001808311610b5a57829003601f168201915b5050505050905091509150915091565b606060048054610b9690612f93565b80601f0160208091040260200160405190810160405280929190818152602001828054610bc290612f93565b8015610c0f5780601f10610be457610100808354040283529160200191610c0f565b820191906000526020600020905b815481529060010190602001808311610bf257829003601f168201915b5050505050905090565b610c238383610ce4565b50610c2d816114e1565b505050565b60065481565b6000610cda610c4561153a565b848460016000610c5361153a565b73ffffffffffffffffffffffffffffffffffffffff1673ffffffffffffffffffffffffffffffffffffffff16815260200190815260200160002060008873ffffffffffffffffffffffffffffffffffffffff1673ffffffffffffffffffffffffffffffffffffffff16815260200190815260200160002054610cd59190612ff4565b611542565b6001905092915050565b6000610cf8610cf161153a565b848461170d565b6001905092915050565b6000610d0c611a35565b9050610d183382611c31565b50565b610d258484610ce4565b50610d308282611485565b50505050565b600e6020528060005260406000206000915054906101000a900460ff1681565b610d60838261197a565b610d69826114e1565b505050565b6000600160008473ffffffffffffffffffffffffffffffffffffffff1673ffffffffffffffffffffffffffffffffffffffff16815260200190815260200160002060008373ffffffffffffffffffffffffffffffffffffffff1673ffffffffffffffffffffffffffffffffffffffff16815260200190815260200160002054905092915050565b610e008484846106ba565b50610e0a816114e1565b50505050565b60088181548110610e2057600080fd5b9060005260206000209060020201600091509050806000018054610e4390612f93565b80601f0160208091040260200160405190810160405280929190818152602001828054610e6f90612f93565b8015610ebc5780601f10610e9157610100808354040283529160200191610ebc565b820191906000526020600020905b815481529060010190602001808311610e9f57829003601f168201915b505050505090806001018054610ed190612f93565b80601f0160208091040260200160405190810160405280929190818152602001828054610efd90612f93565b8015610f4a5780601f10610f1f57610100808354040283529160200191610f4a565b820191906000526020600020905b815481529060010190602001808311610f2d57829003601f168201915b5050505050905082565b610f5f8585856106ba565b50610f6a8282611485565b5050505050565b600080600080600080600a60008873ffffffffffffffffffffffffffffffffffffffff1673ffffffffffffffffffffffffffffffffffffffff1681526020019081526020016000205490506000811415610fde576000955060009450600093506000925060009150611131565b6001955060098181548110610ff657610ff56130ea565b5b90600052602060002090600502016001015494506110bd60098281548110611021576110206130ea565b5b90600052602060002090600502016040518060a00160405290816000820160009054906101000a900473ffffffffffffffffffffffffffffffffffffffff1673ffffffffffffffffffffffffffffffffffffffff1673ffffffffffffffffffffffffffffffffffffffff168152602001600182015481526020016002820154815260200160038201548152602001600482015481525050611db7565b935083856110cb9190613028565b9250600981815481106110e1576110e06130ea565b5b90600052602060002090600502016004015460098281548110611107576111066130ea565b5b906000526020600020906005020160020154426111249190612ff4565b61112e9190613028565b91505b5091939590929450565b60606008805480602002602001604051908101604052809291908181526020016000905b828210156112b5578382906000526020600020906002020160405180604001604052908160008201805461119290612f93565b80601f01602080910402602001604051908101604052809291908181526020018280546111be90612f93565b801561120b5780601f106111e05761010080835404028352916020019161120b565b820191906000526020600020905b8154815290600101906020018083116111ee57829003601f168201915b5050505050815260200160018201805461122490612f93565b80601f016020809104026020016040519081016040528092919081815260200182805461125090612f93565b801561129d5780601f106112725761010080835404028352916020019161129d565b820191906000526020600020905b81548152906001019060200180831161128057829003601f168201915b5050505050815250508152602001906001019061115f565b50505050905090565b6112c661153a565b73ffffffffffffffffffffffffffffffffffffffff16600560019054906101000a900473ffffffffffffffffffffffffffffffffffffffff1673ffffffffffffffffffffffffffffffffffffffff1614611355576040517f08c379a000000000000000000000000000000000000000000000000000000000815260040161134c906130ca565b60405180910390fd5b600073ffffffffffffffffffffffffffffffffffffffff168173ffffffffffffffffffffffffffffffffffffffff1614156113c5576040517f08c379a00000000000000000000000000000000000000000000000000000000081526004016113bc9061318b565b60405180910390fd5b8073ffffffffffffffffffffffffffffffffffffffff16600560019054906101000a900473ffffffffffffffffffffffffffffffffffffffff1673ffffffffffffffffffffffffffffffffffffffff167f8be0079c531659141344cd1fd0a4f28419497f9722a3daafe3b4186f6b6457e060405160405180910390a380600560016101000a81548173ffffffffffffffffffffffffffffffffffffffff021916908373ffffffffffffffffffffffffffffffffffffffff16021790555050565b7f7f731b7b4a0303837e68a08203313dd7b3741c073cc72958a608262f721690e082826040516020016114b9929190613233565b6040516020818303038152906040526040516114d59190612879565b60405180910390a15050565b7f7f731b7b4a0303837e68a08203313dd7b3741c073cc72958a608262f721690e08160405160200161151391906132d4565b60405160208183030381529060405260405161152f9190612879565b60405180910390a150565b600033905090565b600073ffffffffffffffffffffffffffffffffffffffff168373ffffffffffffffffffffffffffffffffffffffff1614156115b2576040517f08c379a00000000000000000000000000000000000000000000000000000000081526004016115a990613368565b60405180910390fd5b600073ffffffffffffffffffffffffffffffffffffffff168273ffffffffffffffffffffffffffffffffffffffff161415611622576040517f08c379a0000000000000000000000000000000000000000000000000000000008152600401611619906133fa565b60405180910390fd5b80600160008573ffffffffffffffffffffffffffffffffffffffff1673ffffffffffffffffffffffffffffffffffffffff16815260200190815260200160002060008473ffffffffffffffffffffffffffffffffffffffff1673ffffffffffffffffffffffffffffffffffffffff168152602001908152602001600020819055508173ffffffffffffffffffffffffffffffffffffffff168373ffffffffffffffffffffffffffffffffffffffff167f8c5be1e5ebec7d5bd14f71427d1e84f3dd0314c0f7b2291e5b200ac8c7c3b92583604051611700919061298f565b60405180910390a3505050565b600073ffffffffffffffffffffffffffffffffffffffff168373ffffffffffffffffffffffffffffffffffffffff16141561177d576040517f08c379a00000000000000000000000000000000000000000000000000000000081526004016117749061348c565b60405180910390fd5b600073ffffffffffffffffffffffffffffffffffffffff168273ffffffffffffffffffffffffffffffffffffffff1614156117ed576040517f08c379a00000000000000000000000000000000000000000000000000000000081526004016117e49061351e565b60405180910390fd5b6117f8838383611e20565b806000808573ffffffffffffffffffffffffffffffffffffffff1673ffffffffffffffffffffffffffffffffffffffff168152602001908152602001600020546118429190612ff4565b6000808573ffffffffffffffffffffffffffffffffffffffff1673ffffffffffffffffffffffffffffffffffffffff16815260200190815260200160002081905550806000808473ffffffffffffffffffffffffffffffffffffffff1673ffffffffffffffffffffffffffffffffffffffff168152602001908152602001600020546118ce9190613028565b6000808473ffffffffffffffffffffffffffffffffffffffff1673ffffffffffffffffffffffffffffffffffffffff168152602001908152602001600020819055508173ffffffffffffffffffffffffffffffffffffffff168373ffffffffffffffffffffffffffffffffffffffff167fddf252ad1be2c89b69c2b068fc378daa952ba7f163c4a11628f55a4df523b3ef8360405161196d919061298f565b60405180910390a3505050565b61198333610835565b82106119c4576040517f08c379a00000000000000000000000000000000000000000000000000000000081526004016119bb906135b0565b60405180910390fd5b6b0231a7d7c1818a46070000006119d96106b0565b1115611a1a576040517f08c379a0000000000000000000000000000000000000000000000000000000008152600401611a1190613642565b60405180910390fd5b611a27828260ff16611e25565b611a313383612245565b5050565b600080600a60003373ffffffffffffffffffffffffffffffffffffffff1673ffffffffffffffffffffffffffffffffffffffff1681526020019081526020016000205490506000811415611abe576040517f08c379a0000000000000000000000000000000000000000000000000000000008152600401611ab5906136ae565b60405180910390fd5b426203f48060098381548110611ad757611ad66130ea565b5b906000526020600020906005020160020154611af39190613028565b10611b33576040517f08c379a0000000000000000000000000000000000000000000000000000000008152600401611b2a90613766565b60405180910390fd5b600060098281548110611b4957611b486130ea565b5b90600052602060002090600502016001015490506000611c1260098481548110611b7657611b756130ea565b5b90600052602060002090600502016040518060a00160405290816000820160009054906101000a900473ffffffffffffffffffffffffffffffffffffffff1673ffffffffffffffffffffffffffffffffffffffff1673ffffffffffffffffffffffffffffffffffffffff168152602001600182015481526020016002820154815260200160038201548152602001600482015481525050611db7565b9050611c1d836123cb565b8082611c299190613028565b935050505090565b600073ffffffffffffffffffffffffffffffffffffffff168273ffffffffffffffffffffffffffffffffffffffff161415611ca1576040517f08c379a0000000000000000000000000000000000000000000000000000000008152600401611c98906137d2565b60405180910390fd5b611cad60008383611e20565b80600254611cbb9190613028565b600281905550806000808473ffffffffffffffffffffffffffffffffffffffff1673ffffffffffffffffffffffffffffffffffffffff16815260200190815260200160002054611d0b9190613028565b6000808473ffffffffffffffffffffffffffffffffffffffff1673ffffffffffffffffffffffffffffffffffffffff168152602001908152602001600020819055508173ffffffffffffffffffffffffffffffffffffffff16600073ffffffffffffffffffffffffffffffffffffffff167fddf252ad1be2c89b69c2b068fc378daa952ba7f163c4a11628f55a4df523b3ef83604051611dab919061298f565b60405180910390a35050565b600081608001518260400151611dcd9190613028565b421115611ddd5760009050611e1b565b81606001518260200151610e10846040015142611dfa9190612ff4565b611e049190613821565b611e0e9190613852565b611e189190613821565b90505b919050565b505050565b60008211611e68576040517f08c379a0000000000000000000000000000000000000000000000000000000008152600401611e5f906138f8565b60405180910390fd5b6000811480611e775750600181145b80611e825750600281145b611ec1576040517f08c379a0000000000000000000000000000000000000000000000000000000008152600401611eb890613964565b60405180910390fd5b6000600a60003373ffffffffffffffffffffffffffffffffffffffff1673ffffffffffffffffffffffffffffffffffffffff1681526020019081526020016000205490506000811415611f4857611f173361247d565b90508260098281548110611f2e57611f2d6130ea565b5b906000526020600020906005020160010181905550612066565b600060098281548110611f5e57611f5d6130ea565b5b90600052602060002090600502016001015461202360098481548110611f8757611f866130ea565b5b90600052602060002090600502016040518060a00160405290816000820160009054906101000a900473ffffffffffffffffffffffffffffffffffffffff1673ffffffffffffffffffffffffffffffffffffffff1673ffffffffffffffffffffffffffffffffffffffff168152602001600182015481526020016002820154815260200160038201548152602001600482015481525050611db7565b61202d9190613028565b9050808461203b9190613028565b6009838154811061204f5761204e6130ea565b5b906000526020600020906005020160010181905550505b600042905080600983815481106120805761207f6130ea565b5b9060005260206000209060050201600201819055503373ffffffffffffffffffffffffffffffffffffffff167fb4caaf29adda3eefee3ad552a8e85058589bf834c7466cae4ee58787f70589ed85600985815481106120e2576120e16130ea565b5b9060005260206000209060050201600101548460405161210493929190613984565b60405180910390a260008314156121735762093a806009838154811061212d5761212c6130ea565b5b906000526020600020906005020160040181905550600b5460098381548110612159576121586130ea565b5b90600052602060002090600502016003018190555061223f565b60018314156121da576212750060098381548110612194576121936130ea565b5b906000526020600020906005020160040181905550600c54600983815481106121c0576121bf6130ea565b5b90600052602060002090600502016003018190555061223e565b600283141561223d576224ea00600983815481106121fb576121fa6130ea565b5b906000526020600020906005020160040181905550600d5460098381548110612227576122266130ea565b5b9060005260206000209060050201600301819055505b5b5b50505050565b600073ffffffffffffffffffffffffffffffffffffffff168273ffffffffffffffffffffffffffffffffffffffff1614156122b5576040517f08c379a00000000000000000000000000000000000000000000000000000000081526004016122ac90613a2d565b60405180910390fd5b6122c182600083611e20565b806000808473ffffffffffffffffffffffffffffffffffffffff1673ffffffffffffffffffffffffffffffffffffffff1681526020019081526020016000205461230b9190612ff4565b6000808473ffffffffffffffffffffffffffffffffffffffff1673ffffffffffffffffffffffffffffffffffffffff168152602001908152602001600020819055508060025461235b9190612ff4565b600281905550600073ffffffffffffffffffffffffffffffffffffffff168273ffffffffffffffffffffffffffffffffffffffff167fddf252ad1be2c89b69c2b068fc378daa952ba7f163c4a11628f55a4df523b3ef836040516123bf919061298f565b60405180910390a35050565b600a60003373ffffffffffffffffffffffffffffffffffffffff1673ffffffffffffffffffffffffffffffffffffffff1681526020019081526020016000206000905560098181548110612422576124216130ea565b5b9060005260206000209060050201600080820160006101000a81549073ffffffffffffffffffffffffffffffffffffffff02191690556001820160009055600282016000905560038201600090556004820160009055505050565b6000600960018160018154018082558091505003906000526020600020905050600060016009805490506124b19190612ff4565b905082600982815481106124c8576124c76130ea565b5b906000526020600020906005020160000160006101000a81548173ffffffffffffffffffffffffffffffffffffffff021916908373ffffffffffffffffffffffffffffffffffffffff16021790555080600a60008573ffffffffffffffffffffffffffffffffffffffff1673ffffffffffffffffffffffffffffffffffffffff1681526020019081526020016000208190555080915050919050565b6000604051905090565b600080fd5b600080fd5b600073ffffffffffffffffffffffffffffffffffffffff82169050919050565b60006125a382612578565b9050919050565b6125b381612598565b81146125be57600080fd5b50565b6000813590506125d0816125aa565b92915050565b6000819050919050565b6125e9816125d6565b81146125f457600080fd5b50565b600081359050612606816125e0565b92915050565b600080fd5b600080fd5b6000601f19601f8301169050919050565b7f4e487b7100000000000000000000000000000000000000000000000000000000600052604160045260246000fd5b61265f82612616565b810181811067ffffffffffffffff8211171561267e5761267d612627565b5b80604052505050565b6000612691612564565b905061269d8282612656565b919050565b600067ffffffffffffffff8211156126bd576126bc612627565b5b6126c682612616565b9050602081019050919050565b82818337600083830152505050565b60006126f56126f0846126a2565b612687565b90508281526020810184848401111561271157612710612611565b5b61271c8482856126d3565b509392505050565b600082601f8301126127395761273861260c565b5b81356127498482602086016126e2565b91505092915050565b6000806000806080858703121561276c5761276b61256e565b5b600061277a878288016125c1565b945050602061278b878288016125f7565b935050604085013567ffffffffffffffff8111156127ac576127ab612573565b5b6127b887828801612724565b925050606085013567ffffffffffffffff8111156127d9576127d8612573565b5b6127e587828801612724565b91505092959194509250565b600081519050919050565b600082825260208201905092915050565b60005b8381101561282b578082015181840152602081019050612810565b8381111561283a576000848401525b50505050565b600061284b826127f1565b61285581856127fc565b935061286581856020860161280d565b61286e81612616565b840191505092915050565b600060208201905081810360008301526128938184612840565b905092915050565b6000806000606084860312156128b4576128b361256e565b5b60006128c2868287016125c1565b93505060206128d3868287016125f7565b925050604084013567ffffffffffffffff8111156128f4576128f3612573565b5b61290086828701612724565b9150509250925092565b600080604083850312156129215761292061256e565b5b600061292f858286016125c1565b9250506020612940858286016125f7565b9150509250929050565b60008115159050919050565b61295f8161294a565b82525050565b600060208201905061297a6000830184612956565b92915050565b612989816125d6565b82525050565b60006020820190506129a46000830184612980565b92915050565b6000806000606084860312156129c3576129c261256e565b5b60006129d1868287016125c1565b93505060206129e2868287016125c1565b92505060406129f3868287016125f7565b9150509250925092565b600060ff82169050919050565b612a13816129fd565b82525050565b6000602082019050612a2e6000830184612a0a565b92915050565b600060208284031215612a4a57612a4961256e565b5b6000612a58848285016125c1565b91505092915050565b612a6a816129fd565b8114612a7557600080fd5b50565b600081359050612a8781612a61565b92915050565b60008060008060808587031215612aa757612aa661256e565b5b6000612ab5878288016125f7565b945050602085013567ffffffffffffffff811115612ad657612ad5612573565b5b612ae287828801612724565b935050604085013567ffffffffffffffff811115612b0357612b02612573565b5b612b0f87828801612724565b9250506060612b2087828801612a78565b91505092959194509250565b612b3581612598565b82525050565b6000602082019050612b506000830184612b2c565b92915050565b600060208284031215612b6c57612b6b61256e565b5b6000612b7a848285016125f7565b91505092915050565b60006040820190508181036000830152612b9d8185612840565b90508181036020830152612bb18184612840565b90509392505050565b600080600060608486031215612bd357612bd261256e565b5b6000612be1868287016125f7565b935050602084013567ffffffffffffffff811115612c0257612c01612573565b5b612c0e86828701612724565b9250506040612c1f86828701612a78565b9150509250925092565b60008060408385031215612c4057612c3f61256e565b5b6000612c4e858286016125c1565b9250506020612c5f858286016125c1565b9150509250929050565b60008060008060808587031215612c8357612c8261256e565b5b6000612c91878288016125c1565b9450506020612ca2878288016125c1565b9350506040612cb3878288016125f7565b925050606085013567ffffffffffffffff811115612cd457612cd3612573565b5b612ce087828801612724565b91505092959194509250565b600080600080600060a08688031215612d0857612d0761256e565b5b6000612d16888289016125c1565b9550506020612d27888289016125c1565b9450506040612d38888289016125f7565b935050606086013567ffffffffffffffff811115612d5957612d58612573565b5b612d6588828901612724565b925050608086013567ffffffffffffffff811115612d8657612d85612573565b5b612d9288828901612724565b9150509295509295909350565b600060a082019050612db46000830188612956565b612dc16020830187612980565b612dce6040830186612980565b612ddb6060830185612980565b612de86080830184612980565b9695505050505050565b600081519050919050565b600082825260208201905092915050565b6000819050602082019050919050565b600082825260208201905092915050565b6000612e3a826127f1565b612e448185612e1e565b9350612e5481856020860161280d565b612e5d81612616565b840191505092915050565b60006040830160008301518482036000860152612e858282612e2f565b91505060208301518482036020860152612e9f8282612e2f565b9150508091505092915050565b6000612eb88383612e68565b905092915050565b6000602082019050919050565b6000612ed882612df2565b612ee28185612dfd565b935083602082028501612ef485612e0e565b8060005b85811015612f305784840389528151612f118582612eac565b9450612f1c83612ec0565b925060208a01995050600181019050612ef8565b50829750879550505050505092915050565b60006020820190508181036000830152612f5c8184612ecd565b905092915050565b7f4e487b7100000000000000000000000000000000000000000000000000000000600052602260045260246000fd5b60006002820490506001821680612fab57607f821691505b60208210811415612fbf57612fbe612f64565b5b50919050565b7f4e487b7100000000000000000000000000000000000000000000000000000000600052601160045260246000fd5b6000612fff826125d6565b915061300a836125d6565b92508282101561301d5761301c612fc5565b5b828203905092915050565b6000613033826125d6565b915061303e836125d6565b9250827fffffffffffffffffffffffffffffffffffffffffffffffffffffffffffffffff0382111561307357613072612fc5565b5b828201905092915050565b7f4f776e61626c653a2063616c6c6572206973206e6f7420746865206f776e6572600082015250565b60006130b46020836127fc565b91506130bf8261307e565b602082019050919050565b600060208201905081810360008301526130e3816130a7565b9050919050565b7f4e487b7100000000000000000000000000000000000000000000000000000000600052603260045260246000fd5b7f4f776e61626c653a206e6577206f776e657220697320746865207a65726f206160008201527f6464726573730000000000000000000000000000000000000000000000000000602082015250565b60006131756026836127fc565b915061318082613119565b604082019050919050565b600060208201905081810360008301526131a481613168565b9050919050565b600081905092915050565b60006131c1826127f1565b6131cb81856131ab565b93506131db81856020860161280d565b80840191505092915050565b7f277320686172642074696d65732073746f727920697320000000000000000000600082015250565b600061321d6017836131ab565b9150613228826131e7565b601782019050919050565b600061323f82856131b6565b915061324a82613210565b915061325682846131b6565b91508190509392505050565b7f4c6174656c792c20492068656c70656420746f2072656d6f766520706f76657260008201527f74792066726f6d2074686520776f726c64206279200000000000000000000000602082015250565b60006132be6035836131ab565b91506132c982613262565b603582019050919050565b60006132df826132b1565b91506132eb82846131b6565b915081905092915050565b7f45524332303a20617070726f76652066726f6d20746865207a65726f2061646460008201527f7265737300000000000000000000000000000000000000000000000000000000602082015250565b60006133526024836127fc565b915061335d826132f6565b604082019050919050565b6000602082019050818103600083015261338181613345565b9050919050565b7f45524332303a20617070726f766520746f20746865207a65726f20616464726560008201527f7373000000000000000000000000000000000000000000000000000000000000602082015250565b60006133e46022836127fc565b91506133ef82613388565b604082019050919050565b60006020820190508181036000830152613413816133d7565b9050919050565b7f45524332303a207472616e736665722066726f6d20746865207a65726f20616460008201527f6472657373000000000000000000000000000000000000000000000000000000602082015250565b60006134766025836127fc565b91506134818261341a565b604082019050919050565b600060208201905081810360008301526134a581613469565b9050919050565b7f45524332303a207472616e7366657220746f20746865207a65726f206164647260008201527f6573730000000000000000000000000000000000000000000000000000000000602082015250565b60006135086023836127fc565b9150613513826134ac565b604082019050919050565b60006020820190508181036000830152613537816134fb565b9050919050565b7f42657474657254696d6573546f6b656e3a2043616e6e6f74207374616b65206d60008201527f6f7265207468616e20796f75206f776e00000000000000000000000000000000602082015250565b600061359a6030836127fc565b91506135a58261353e565b604082019050919050565b600060208201905081810360008301526135c98161358d565b9050919050565b7f42657474657254696d6573546f6b656e3a20737570706c79206861732072656160008201527f6368656420363739206d696c6c696f6e00000000000000000000000000000000602082015250565b600061362c6030836127fc565b9150613637826135d0565b604082019050919050565b6000602082019050818103600083015261365b8161361f565b9050919050565b7f796f7520646f206e6f74206861766520616e7920636f696e73207374616b6564600082015250565b60006136986020836127fc565b91506136a382613662565b602082019050919050565b600060208201905081810360008301526136c78161368b565b9050919050565b7f796f75206861766520746f20776169742061206d696e696d756d206f6620332060008201527f64617973206265666f726520796f752063616e2077697468647261772061207360208201527f74616b6500000000000000000000000000000000000000000000000000000000604082015250565b60006137506044836127fc565b915061375b826136ce565b606082019050919050565b6000602082019050818103600083015261377f81613743565b9050919050565b7f45524332303a206d696e7420746f20746865207a65726f206164647265737300600082015250565b60006137bc601f836127fc565b91506137c782613786565b602082019050919050565b600060208201905081810360008301526137eb816137af565b9050919050565b7f4e487b7100000000000000000000000000000000000000000000000000000000600052601260045260246000fd5b600061382c826125d6565b9150613837836125d6565b925082613847576138466137f2565b5b828204905092915050565b600061385d826125d6565b9150613868836125d6565b9250817fffffffffffffffffffffffffffffffffffffffffffffffffffffffffffffffff04831182151516156138a1576138a0612fc5565b5b828202905092915050565b7f43616e6e6f74207374616b65206e6f7468696e67000000000000000000000000600082015250565b60006138e26014836127fc565b91506138ed826138ac565b602082019050919050565b60006020820190508181036000830152613911816138d5565b9050919050565b7f74696d656672616d652076616c7565206e6f742076616c696400000000000000600082015250565b600061394e6019836127fc565b915061395982613918565b602082019050919050565b6000602082019050818103600083015261397d81613941565b9050919050565b60006060820190506139996000830186612980565b6139a66020830185612980565b6139b36040830184612980565b949350505050565b7f45524332303a206275726e2066726f6d20746865207a65726f2061646472657360008201527f7300000000000000000000000000000000000000000000000000000000000000602082015250565b6000613a176021836127fc565b9150613a22826139bb565b604082019050919050565b60006020820190508181036000830152613a4681613a0a565b905091905056fea26469706673582212206cc4fbf6f04199899822b75ea12dc1ed9fe08167340436f30a0cec922368e01464736f6c634300080b003350657268617073206f6e65206f66207468652062657374207761797320746f20706f74656e7469616c6c792072656d6f766520706f766572747920697320746f20736861726520746865204561736965722054696d657320546f6b656e20776974682074686f73652077686f2066696e64207468656d73656c7665732066616c6c656e206f6e20686172642074696d65732e2054686174207761792c206120686967682064656d616e64206f662074686520636f696e2063616e206265636f6d652073796e6f6e796d6f75732077697468207265647563696e6720706f766572747920696e2074686520776f726c642c2073696e63652077686f657665722068617320746865736520636f696e732077696c6c20686176652074686569722066696e616e63657320696d70726f76696e672e45766572792074696d6520796f75207368617265206f72207374616b652074686520636f696e2c207468696e6b206f66207761797320696e20776869636820796f752063616e2068656c7020746f2072656d6f766520706f766572747920696e2074686520776f726c642c20616e64207768656e6576657220706f737369626c6520616374206f6e2074686f73652074686f75676874732e2049742063616e20626520736f6d657468696e6720617420746865206c6576656c206f6620796f75722066616d696c792c20796f757220636f6d6d756e6974792c20796f757220636974792c20757020746f207468652077686f6c6520776f726c642e53686172652074686520636f696e20776974682074686f736520696e206e656564",
  "immutableReferences": {},
  "source": "// SPDX-License-Identifier: MIT\r\n\r\npragma solidity ^0.8.9;\r\n\r\nimport \"../node_modules/openzeppelin-contracts/token/ERC20/ERC20.sol\";\r\nimport \"../node_modules/openzeppelin-contracts/access/Ownable.sol\";\r\nimport \"./SacredCoin.sol\";\r\nimport \"./SacredStakeable.sol\";\r\n\r\ncontract BetterTimesToken is ERC20, Ownable, SacredCoin, SacredStakeable {\r\n\r\n    constructor() ERC20(\"Better Times Token\", \"UPNUP\") {\r\n\r\n        /**\r\n        * @dev minting 679 million coins, an estimate of how much people are living in poverty at the moment of\r\n        * the coin creation\r\n        */\r\n        _mint(msg.sender, 1000000 * 10 ** decimals());\r\n\r\n        /**\r\n        * @dev calling the setGuideline function to create 2 guidelines:\r\n        */\r\n\r\n        setGuideline(\"Help to remove poverty\", \"Every time you share or stake the coin, think of ways in which you can help to remove poverty in the world, and whenever possible act on those thoughts. It can be something at the level of your family, your community, your city, up to the whole world.\");\r\n        setGuideline(\"Share the coin with those in need\", \"Perhaps one of the best ways to potentially remove poverty is to share the Easier Times Token with those who find themselves fallen on hard times. That way, a high demand of the coin can become synonymous with reducing poverty in the world, since whoever has these coins will have their finances improving.\");\r\n    }\r\n\r\n    mapping (address => bool) public WhitelistedToCallSacredMessages;\r\n\r\n\r\n    event SacredEvent(string BetterTimesMessage);\r\n\r\n    function SacredMessageOne(string memory yourDeeds) private {\r\n        emit SacredEvent(string(abi.encodePacked(\"Lately, I helped to remove poverty from the world by \", yourDeeds)));\r\n    }\r\n\r\n    function SacredMessageTwo(string memory name, string memory story) private {\r\n        emit SacredEvent(string(abi.encodePacked(name, \"'s hard times story is \", story)));\r\n    }\r\n\r\n    function transferSacredOne(address to, uint tokens, string memory yourDeeds) public {\r\n        super.transfer(to, tokens);\r\n        SacredMessageOne(yourDeeds);\r\n    }\r\n\r\n    function transferSacredTwo(address to, uint tokens, string memory name, string memory story) public {\r\n        super.transfer(to, tokens);\r\n        SacredMessageTwo(name, story);\r\n    }\r\n\r\n    function approveSacredOne(address spender, uint256 amount, string memory yourDeeds) public {\r\n        super.approve(spender, amount);\r\n        SacredMessageOne(yourDeeds);\r\n    }\r\n\r\n    function approveSacredTwo(address spender, uint256 amount, string memory name, string memory story) public {\r\n        super.approve(spender, amount);\r\n        SacredMessageTwo(name, story);\r\n    }\r\n\r\n    function transferFromSacredOne(address sender, address recipient, uint256 amount, string memory yourDeeds) public {\r\n        super.transferFrom(sender, recipient, amount);\r\n        SacredMessageOne(yourDeeds);\r\n    }\r\n\r\n    function transferFromSacredTwo(\r\n        address sender,\r\n        address recipient,\r\n        uint256 amount,\r\n        string memory name,\r\n        string memory story\r\n    ) public {\r\n        super.transferFrom(sender, recipient, amount);\r\n        SacredMessageTwo(name, story);\r\n    }\r\n\r\n    /**\r\n    * Add functionality like burn to the _stake afunction\r\n    *\r\n    */\r\n    function stake(uint256 _amount, uint8 timeframe) internal {\r\n        // Make sure staker actually is good for it\r\n        require(_amount < balanceOf(msg.sender), \"BetterTimesToken: Cannot stake more than you own\");\r\n        require(totalSupply() <= 679000000000000000000000000, \"BetterTimesToken: supply has reached 679 million\");\r\n\r\n        _stake(_amount, timeframe);\r\n        // Burn the amount of tokens on the sender\r\n        _burn(msg.sender, _amount);\r\n    }\r\n\r\n    function stakeOne(uint256 _amount, string memory yourDeeds, uint8 timeframe) public {\r\n        stake(_amount, timeframe);\r\n        SacredMessageOne(yourDeeds);\r\n    }\r\n\r\n    function stakeTwo(uint256 _amount, string memory name, string memory story, uint8 timeframe) public {\r\n        stake(_amount, timeframe);\r\n        SacredMessageTwo(name, story);\r\n    }\r\n\r\n    /**\r\n    * @notice withdrawStake is used to withdraw stakes from the account holder\r\n     */\r\n    function withdrawStake()  public {\r\n\r\n        uint256 amount_to_mint = _withdrawStake();\r\n        // Return staked tokens to user\r\n        _mint(msg.sender, amount_to_mint);\r\n    }\r\n}\r\n",
  "sourcePath": "C:\\code\\better_times_token_and_sacred_farm_backendd\\contracts\\BetterTimesToken.sol",
  "compiler": {
    "name": "solc",
    "version": "0.8.11+commit.d7f03943.Emscripten.clang"
  },
  "schemaVersion": "3.4.3",
  "updatedAt": "2022-02-06T03:22:08.307Z",
  "devdoc": {
    "kind": "dev",
    "methods": {
      "allowance(address,address)": {
        "details": "See {IERC20-allowance}."
      },
      "approve(address,uint256)": {
        "details": "See {IERC20-approve}. Requirements: - `spender` cannot be the zero address."
      },
      "balanceOf(address)": {
        "details": "See {IERC20-balanceOf}."
      },
      "decimals()": {
        "details": "Returns the number of decimals used to get its user representation. For example, if `decimals` equals `2`, a balance of `505` tokens should be displayed to a user as `5,05` (`505 / 10 ** 2`). Tokens usually opt for a value of 18, imitating the relationship between Ether and Wei. This is the value {ERC20} uses, unless {_setupDecimals} is called. NOTE: This information is only used for _display_ purposes: it in no way affects any of the arithmetic of the contract, including {IERC20-balanceOf} and {IERC20-transfer}."
      },
      "decreaseAllowance(address,uint256)": {
        "details": "Atomically decreases the allowance granted to `spender` by the caller. This is an alternative to {approve} that can be used as a mitigation for problems described in {IERC20-approve}. Emits an {Approval} event indicating the updated allowance. Requirements: - `spender` cannot be the zero address. - `spender` must have allowance for the caller of at least `subtractedValue`."
      },
      "increaseAllowance(address,uint256)": {
        "details": "Atomically increases the allowance granted to `spender` by the caller. This is an alternative to {approve} that can be used as a mitigation for problems described in {IERC20-approve}. Emits an {Approval} event indicating the updated allowance. Requirements: - `spender` cannot be the zero address."
      },
      "name()": {
        "details": "Returns the name of the token."
      },
      "owner()": {
        "details": "Returns the address of the current owner."
      },
      "renounceOwnership()": {
        "details": "Leaves the contract without owner. It will not be possible to call `onlyOwner` functions anymore. Can only be called by the current owner. NOTE: Renouncing ownership will leave the contract without an owner, thereby removing any functionality that is only available to the owner."
      },
      "returnAllGuidelines()": {
        "details": "Function that returns all guidelines. This allows iterating over all guidelines for the purpose of retrieval and/or display."
      },
      "returnSingleGuideline(uint256)": {
        "details": "Function that returns a single guideline. The element at location 0 of the array will store the guideline summary. The element at location 1 of the array will store the guideline itself."
      },
      "symbol()": {
        "details": "Returns the symbol of the token, usually a shorter version of the name."
      },
      "totalSupply()": {
        "details": "See {IERC20-totalSupply}."
      },
      "transfer(address,uint256)": {
        "details": "See {IERC20-transfer}. Requirements: - `recipient` cannot be the zero address. - the caller must have a balance of at least `amount`."
      },
      "transferFrom(address,address,uint256)": {
        "details": "See {IERC20-transferFrom}. Emits an {Approval} event indicating the updated allowance. This is not required by the EIP. See the note at the beginning of {ERC20}. Requirements: - `sender` and `recipient` cannot be the zero address. - `sender` must have a balance of at least `amount`. - the caller must have allowance for ``sender``'s tokens of at least `amount`."
      },
      "transferOwnership(address)": {
        "details": "Transfers ownership of the contract to a new account (`newOwner`). Can only be called by the current owner."
      }
    },
    "version": 1
  },
  "userdoc": {
    "events": {
      "Staked(address,uint256,uint256,uint256)": {
        "notice": "Staked event is triggered whenever a user stakes tokens, address is indexed to make it filterable"
      }
    },
    "kind": "user",
    "methods": {
      "hasStake(address)": {
        "notice": "hasStake is used to check if a account has stakes and the total amount along with all the separate stakes"
      },
      "withdrawStake()": {
        "notice": "withdrawStake is used to withdraw stakes from the account holder"
      }
    },
    "version": 1
  }
}