{
  "contractName": "BetterTimesToken",
  "abi": [
    {
      "inputs": [],
      "stateMutability": "nonpayable",
      "type": "constructor"
    },
    {
      "anonymous": false,
      "inputs": [
        {
          "indexed": true,
          "internalType": "address",
          "name": "owner",
          "type": "address"
        },
        {
          "indexed": true,
          "internalType": "address",
          "name": "spender",
          "type": "address"
        },
        {
          "indexed": false,
          "internalType": "uint256",
          "name": "value",
          "type": "uint256"
        }
      ],
      "name": "Approval",
      "type": "event"
    },
    {
      "anonymous": false,
      "inputs": [
        {
          "indexed": false,
          "internalType": "string",
          "name": "guidelineSummary",
          "type": "string"
        },
        {
          "indexed": false,
          "internalType": "string",
          "name": "guideline",
          "type": "string"
        }
      ],
      "name": "GuidelineCreated",
      "type": "event"
    },
    {
      "anonymous": false,
      "inputs": [
        {
          "indexed": true,
          "internalType": "address",
          "name": "previousOwner",
          "type": "address"
        },
        {
          "indexed": true,
          "internalType": "address",
          "name": "newOwner",
          "type": "address"
        }
      ],
      "name": "OwnershipTransferred",
      "type": "event"
    },
    {
      "anonymous": false,
      "inputs": [
        {
          "indexed": false,
          "internalType": "string",
          "name": "BetterTimesMessage",
          "type": "string"
        }
      ],
      "name": "SacredEvent",
      "type": "event"
    },
    {
      "anonymous": false,
      "inputs": [
        {
          "indexed": true,
          "internalType": "address",
          "name": "from",
          "type": "address"
        },
        {
          "indexed": true,
          "internalType": "address",
          "name": "to",
          "type": "address"
        },
        {
          "indexed": false,
          "internalType": "uint256",
          "name": "value",
          "type": "uint256"
        }
      ],
      "name": "Transfer",
      "type": "event"
    },
    {
      "inputs": [
        {
          "internalType": "address",
          "name": "",
          "type": "address"
        }
      ],
      "name": "WhitelistedToCallSacredMessages",
      "outputs": [
        {
          "internalType": "bool",
          "name": "",
          "type": "bool"
        }
      ],
      "stateMutability": "view",
      "type": "function",
      "constant": true
    },
    {
      "inputs": [
        {
          "internalType": "address",
          "name": "owner",
          "type": "address"
        },
        {
          "internalType": "address",
          "name": "spender",
          "type": "address"
        }
      ],
      "name": "allowance",
      "outputs": [
        {
          "internalType": "uint256",
          "name": "",
          "type": "uint256"
        }
      ],
      "stateMutability": "view",
      "type": "function",
      "constant": true
    },
    {
      "inputs": [
        {
          "internalType": "address",
          "name": "spender",
          "type": "address"
        },
        {
          "internalType": "uint256",
          "name": "amount",
          "type": "uint256"
        }
      ],
      "name": "approve",
      "outputs": [
        {
          "internalType": "bool",
          "name": "",
          "type": "bool"
        }
      ],
      "stateMutability": "nonpayable",
      "type": "function"
    },
    {
      "inputs": [
        {
          "internalType": "address",
          "name": "account",
          "type": "address"
        }
      ],
      "name": "balanceOf",
      "outputs": [
        {
          "internalType": "uint256",
          "name": "",
          "type": "uint256"
        }
      ],
      "stateMutability": "view",
      "type": "function",
      "constant": true
    },
    {
      "inputs": [],
      "name": "decimals",
      "outputs": [
        {
          "internalType": "uint8",
          "name": "",
          "type": "uint8"
        }
      ],
      "stateMutability": "view",
      "type": "function",
      "constant": true
    },
    {
      "inputs": [
        {
          "internalType": "address",
          "name": "spender",
          "type": "address"
        },
        {
          "internalType": "uint256",
          "name": "subtractedValue",
          "type": "uint256"
        }
      ],
      "name": "decreaseAllowance",
      "outputs": [
        {
          "internalType": "bool",
          "name": "",
          "type": "bool"
        }
      ],
      "stateMutability": "nonpayable",
      "type": "function"
    },
    {
      "inputs": [
        {
          "internalType": "uint256",
          "name": "",
          "type": "uint256"
        }
      ],
      "name": "guidelines",
      "outputs": [
        {
          "internalType": "string",
          "name": "summary",
          "type": "string"
        },
        {
          "internalType": "string",
          "name": "guideline",
          "type": "string"
        }
      ],
      "stateMutability": "view",
      "type": "function",
      "constant": true
    },
    {
      "inputs": [
        {
          "internalType": "address",
          "name": "spender",
          "type": "address"
        },
        {
          "internalType": "uint256",
          "name": "addedValue",
          "type": "uint256"
        }
      ],
      "name": "increaseAllowance",
      "outputs": [
        {
          "internalType": "bool",
          "name": "",
          "type": "bool"
        }
      ],
      "stateMutability": "nonpayable",
      "type": "function"
    },
    {
      "inputs": [],
      "name": "name",
      "outputs": [
        {
          "internalType": "string",
          "name": "",
          "type": "string"
        }
      ],
      "stateMutability": "view",
      "type": "function",
      "constant": true
    },
    {
      "inputs": [],
      "name": "numberOfGuidelines",
      "outputs": [
        {
          "internalType": "uint256",
          "name": "",
          "type": "uint256"
        }
      ],
      "stateMutability": "view",
      "type": "function",
      "constant": true
    },
    {
      "inputs": [],
      "name": "owner",
      "outputs": [
        {
          "internalType": "address",
          "name": "",
          "type": "address"
        }
      ],
      "stateMutability": "view",
      "type": "function",
      "constant": true
    },
    {
      "inputs": [],
      "name": "renounceOwnership",
      "outputs": [],
      "stateMutability": "nonpayable",
      "type": "function"
    },
    {
      "inputs": [],
      "name": "returnAllGuidelines",
      "outputs": [
        {
          "components": [
            {
              "internalType": "string",
              "name": "summary",
              "type": "string"
            },
            {
              "internalType": "string",
              "name": "guideline",
              "type": "string"
            }
          ],
          "internalType": "struct SacredCoin.Guideline[]",
          "name": "",
          "type": "tuple[]"
        }
      ],
      "stateMutability": "view",
      "type": "function",
      "constant": true
    },
    {
      "inputs": [
        {
          "internalType": "uint256",
          "name": "_index",
          "type": "uint256"
        }
      ],
      "name": "returnSingleGuideline",
      "outputs": [
        {
          "internalType": "string",
          "name": "",
          "type": "string"
        },
        {
          "internalType": "string",
          "name": "",
          "type": "string"
        }
      ],
      "stateMutability": "view",
      "type": "function",
      "constant": true
    },
    {
      "inputs": [],
      "name": "symbol",
      "outputs": [
        {
          "internalType": "string",
          "name": "",
          "type": "string"
        }
      ],
      "stateMutability": "view",
      "type": "function",
      "constant": true
    },
    {
      "inputs": [],
      "name": "totalSupply",
      "outputs": [
        {
          "internalType": "uint256",
          "name": "",
          "type": "uint256"
        }
      ],
      "stateMutability": "view",
      "type": "function",
      "constant": true
    },
    {
      "inputs": [
        {
          "internalType": "address",
          "name": "recipient",
          "type": "address"
        },
        {
          "internalType": "uint256",
          "name": "amount",
          "type": "uint256"
        }
      ],
      "name": "transfer",
      "outputs": [
        {
          "internalType": "bool",
          "name": "",
          "type": "bool"
        }
      ],
      "stateMutability": "nonpayable",
      "type": "function"
    },
    {
      "inputs": [
        {
          "internalType": "address",
          "name": "sender",
          "type": "address"
        },
        {
          "internalType": "address",
          "name": "recipient",
          "type": "address"
        },
        {
          "internalType": "uint256",
          "name": "amount",
          "type": "uint256"
        }
      ],
      "name": "transferFrom",
      "outputs": [
        {
          "internalType": "bool",
          "name": "",
          "type": "bool"
        }
      ],
      "stateMutability": "nonpayable",
      "type": "function"
    },
    {
      "inputs": [
        {
          "internalType": "address",
          "name": "newOwner",
          "type": "address"
        }
      ],
      "name": "transferOwnership",
      "outputs": [],
      "stateMutability": "nonpayable",
      "type": "function"
    },
    {
      "inputs": [
        {
          "internalType": "address",
          "name": "_address",
          "type": "address"
        }
      ],
      "name": "isInSacredMessagesWhitelist",
      "outputs": [
        {
          "internalType": "bool",
          "name": "",
          "type": "bool"
        }
      ],
      "stateMutability": "view",
      "type": "function",
      "constant": true
    },
    {
      "inputs": [
        {
          "internalType": "address",
          "name": "_whitelistedAddress",
          "type": "address"
        }
      ],
      "name": "addToSacredMessagesWhitelist",
      "outputs": [],
      "stateMutability": "nonpayable",
      "type": "function"
    },
    {
      "inputs": [
        {
          "internalType": "address",
          "name": "_whitelistedAddress",
          "type": "address"
        }
      ],
      "name": "RemoveFromSacredMessagesWhitelist",
      "outputs": [],
      "stateMutability": "nonpayable",
      "type": "function"
    },
    {
      "inputs": [
        {
          "internalType": "string",
          "name": "yourDeeds",
          "type": "string"
        }
      ],
      "name": "SacredMessageOne",
      "outputs": [],
      "stateMutability": "nonpayable",
      "type": "function"
    },
    {
      "inputs": [
        {
          "internalType": "string",
          "name": "name",
          "type": "string"
        },
        {
          "internalType": "string",
          "name": "story",
          "type": "string"
        }
      ],
      "name": "SacredMessageTwo",
      "outputs": [],
      "stateMutability": "nonpayable",
      "type": "function"
    },
    {
      "inputs": [
        {
          "internalType": "address",
          "name": "to",
          "type": "address"
        },
        {
          "internalType": "uint256",
          "name": "tokens",
          "type": "uint256"
        },
        {
          "internalType": "string",
          "name": "yourDeeds",
          "type": "string"
        }
      ],
      "name": "transferSacredOne",
      "outputs": [],
      "stateMutability": "nonpayable",
      "type": "function"
    },
    {
      "inputs": [
        {
          "internalType": "address",
          "name": "to",
          "type": "address"
        },
        {
          "internalType": "uint256",
          "name": "tokens",
          "type": "uint256"
        },
        {
          "internalType": "string",
          "name": "name",
          "type": "string"
        },
        {
          "internalType": "string",
          "name": "gratitudeObject",
          "type": "string"
        }
      ],
      "name": "transferSacredTwo",
      "outputs": [],
      "stateMutability": "nonpayable",
      "type": "function"
    },
    {
      "inputs": [
        {
          "internalType": "address",
          "name": "sender",
          "type": "address"
        },
        {
          "internalType": "address",
          "name": "recipient",
          "type": "address"
        },
        {
          "internalType": "uint256",
          "name": "amount",
          "type": "uint256"
        },
        {
          "internalType": "string",
          "name": "yourDeeds",
          "type": "string"
        }
      ],
      "name": "transferFromSacredOne",
      "outputs": [],
      "stateMutability": "nonpayable",
      "type": "function"
    },
    {
      "inputs": [
        {
          "internalType": "address",
          "name": "sender",
          "type": "address"
        },
        {
          "internalType": "address",
          "name": "recipient",
          "type": "address"
        },
        {
          "internalType": "uint256",
          "name": "amount",
          "type": "uint256"
        },
        {
          "internalType": "string",
          "name": "name",
          "type": "string"
        },
        {
          "internalType": "string",
          "name": "story",
          "type": "string"
        }
      ],
      "name": "transferFromSacredTwo",
      "outputs": [],
      "stateMutability": "nonpayable",
      "type": "function"
    }
  ],
  "bytecode": "0x60806040523480156200001157600080fd5b506040518060400160405280601281526020017f4265747465722054696d657320546f6b656e00000000000000000000000000008152506040518060400160405280600581526020017f55504e555000000000000000000000000000000000000000000000000000000081525081600390805190602001906200009692919062000507565b508060049080519060200190620000af92919062000507565b506012600560006101000a81548160ff021916908360ff16021790555050506000620000e06200026d60201b60201c565b905080600560016101000a81548173ffffffffffffffffffffffffffffffffffffffff021916908373ffffffffffffffffffffffffffffffffffffffff1602179055508073ffffffffffffffffffffffffffffffffffffffff16600073ffffffffffffffffffffffffffffffffffffffff167f8be0079c531659141344cd1fd0a4f28419497f9722a3daafe3b4186f6b6457e060405160405180910390a350620001bf33620001946200027560201b60201c565b600a620001a2919062000751565b632878b7c0620001b39190620007a2565b6200028c60201b60201c565b620002206040518060400160405280601681526020017f48656c7020746f2072656d6f766520706f76657274790000000000000000000081525060405180610120016040528060fb81526020016200359160fb91396200042360201b60201c565b620002676040518060600160405280602181526020016200368c6021913960405180610160016040528061013281526020016200345f61013291396200042360201b60201c565b62000a92565b600033905090565b6000600560009054906101000a900460ff16905090565b600073ffffffffffffffffffffffffffffffffffffffff168273ffffffffffffffffffffffffffffffffffffffff161415620002ff576040517f08c379a0000000000000000000000000000000000000000000000000000000008152600401620002f69062000864565b60405180910390fd5b62000313600083836200050260201b60201c565b8060025462000323919062000886565b600281905550806000808473ffffffffffffffffffffffffffffffffffffffff1673ffffffffffffffffffffffffffffffffffffffff1681526020019081526020016000205462000375919062000886565b6000808473ffffffffffffffffffffffffffffffffffffffff1673ffffffffffffffffffffffffffffffffffffffff168152602001908152602001600020819055508173ffffffffffffffffffffffffffffffffffffffff16600073ffffffffffffffffffffffffffffffffffffffff167fddf252ad1be2c89b69c2b068fc378daa952ba7f163c4a11628f55a4df523b3ef83604051620004179190620008f4565b60405180910390a35050565b60006040518060400160405280848152602001838152509050600881908060018154018082558091505060019003906000526020600020906002020160009091909190915060008201518160000190805190602001906200048692919062000507565b506020820151816001019080519060200190620004a592919062000507565b5050507ffeb3900704f1da20c6c7adbbed3b6e4244f5bb27d544d1e5bad423c970434f818383604051620004db929190620009a4565b60405180910390a160066000815480929190620004f890620009df565b9190505550505050565b505050565b828054620005159062000a5c565b90600052602060002090601f01602090048101928262000539576000855562000585565b82601f106200055457805160ff191683800117855562000585565b8280016001018555821562000585579182015b828111156200058457825182559160200191906001019062000567565b5b50905062000594919062000598565b5090565b5b80821115620005b357600081600090555060010162000599565b5090565b7f4e487b7100000000000000000000000000000000000000000000000000000000600052601160045260246000fd5b60008160011c9050919050565b6000808291508390505b600185111562000645578086048111156200061d576200061c620005b7565b5b60018516156200062d5780820291505b80810290506200063d85620005e6565b9450620005fd565b94509492505050565b60008262000660576001905062000733565b8162000670576000905062000733565b81600181146200068957600281146200069457620006ca565b600191505062000733565b60ff841115620006a957620006a8620005b7565b5b8360020a915084821115620006c357620006c2620005b7565b5b5062000733565b5060208310610133831016604e8410600b8410161715620007045782820a905083811115620006fe57620006fd620005b7565b5b62000733565b620007138484846001620005f3565b925090508184048111156200072d576200072c620005b7565b5b81810290505b9392505050565b6000819050919050565b600060ff82169050919050565b60006200075e826200073a565b91506200076b8362000744565b92506200079a7fffffffffffffffffffffffffffffffffffffffffffffffffffffffffffffffff84846200064e565b905092915050565b6000620007af826200073a565b9150620007bc836200073a565b9250817fffffffffffffffffffffffffffffffffffffffffffffffffffffffffffffffff0483118215151615620007f857620007f7620005b7565b5b828202905092915050565b600082825260208201905092915050565b7f45524332303a206d696e7420746f20746865207a65726f206164647265737300600082015250565b60006200084c601f8362000803565b9150620008598262000814565b602082019050919050565b600060208201905081810360008301526200087f816200083d565b9050919050565b600062000893826200073a565b9150620008a0836200073a565b9250827fffffffffffffffffffffffffffffffffffffffffffffffffffffffffffffffff03821115620008d857620008d7620005b7565b5b828201905092915050565b620008ee816200073a565b82525050565b60006020820190506200090b6000830184620008e3565b92915050565b600081519050919050565b60005b838110156200093c5780820151818401526020810190506200091f565b838111156200094c576000848401525b50505050565b6000601f19601f8301169050919050565b6000620009708262000911565b6200097c818562000803565b93506200098e8185602086016200091c565b620009998162000952565b840191505092915050565b60006040820190508181036000830152620009c0818562000963565b90508181036020830152620009d6818462000963565b90509392505050565b6000620009ec826200073a565b91507fffffffffffffffffffffffffffffffffffffffffffffffffffffffffffffffff82141562000a225762000a21620005b7565b5b600182019050919050565b7f4e487b7100000000000000000000000000000000000000000000000000000000600052602260045260246000fd5b6000600282049050600182168062000a7557607f821691505b6020821081141562000a8c5762000a8b62000a2d565b5b50919050565b6129bd8062000aa26000396000f3fe608060405234801561001057600080fd5b50600436106101c45760003560e01c8063995212a0116100f9578063dd62ed3e11610097578063e2bff3ba11610071578063e2bff3ba1461052c578063e3f54e581461055d578063f2409e6714610579578063f2fde38b14610597576101c4565b8063dd62ed3e146104c4578063dda9db7c146104f4578063e00c6b2814610510576101c4565b8063a9059cbb116100d3578063a9059cbb1461042c578063b237d0841461045c578063c147896f14610478578063d485c97914610494576101c4565b8063995212a0146103c25780639ede4fc0146103de578063a457c2d7146103fc576101c4565b80635863ec28116101665780638da5cb5b116101405780638da5cb5b146103395780638f48ec3f1461035757806395d89b411461038857806396e436f1146103a6576101c4565b80635863ec28146102cf57806370a08231146102ff578063715018a61461032f576101c4565b806323b872dd116101a257806323b872dd146102355780632441cee014610265578063313ce56714610281578063395093511461029f576101c4565b806306fdde03146101c9578063095ea7b3146101e757806318160ddd14610217575b600080fd5b6101d16105b3565b6040516101de9190611a80565b60405180910390f35b61020160048036038101906101fc9190611b4a565b610645565b60405161020e9190611ba5565b60405180910390f35b61021f610663565b60405161022c9190611bcf565b60405180910390f35b61024f600480360381019061024a9190611bea565b61066d565b60405161025c9190611ba5565b60405180910390f35b61027f600480360381019061027a9190611c3d565b610725565b005b610289610817565b6040516102969190611c86565b60405180910390f35b6102b960048036038101906102b49190611b4a565b61082e565b6040516102c69190611ba5565b60405180910390f35b6102e960048036038101906102e49190611c3d565b6108da565b6040516102f69190611ba5565b60405180910390f35b61031960048036038101906103149190611c3d565b610930565b6040516103269190611bcf565b60405180910390f35b610337610978565b005b610341610ad0565b60405161034e9190611cb0565b60405180910390f35b610371600480360381019061036c9190611ccb565b610afa565b60405161037f929190611cf8565b60405180910390f35b610390610c68565b60405161039d9190611a80565b60405180910390f35b6103c060048036038101906103bb9190611c3d565b610cfa565b005b6103dc60048036038101906103d79190611e64565b610dec565b005b6103e6610e05565b6040516103f39190611bcf565b60405180910390f35b61041660048036038101906104119190611b4a565b610e0b565b6040516104239190611ba5565b60405180910390f35b61044660048036038101906104419190611b4a565b610eb7565b6040516104539190611ba5565b60405180910390f35b61047660048036038101906104719190611ed3565b610ed5565b005b610492600480360381019061048d9190611f1c565b610f76565b005b6104ae60048036038101906104a99190611c3d565b610f91565b6040516104bb9190611ba5565b60405180910390f35b6104de60048036038101906104d99190611fbb565b610fb1565b6040516104eb9190611bcf565b60405180910390f35b61050e60048036038101906105099190611ffb565b611038565b005b61052a6004803603810190610525919061207e565b611053565b005b61054660048036038101906105419190611ccb565b6110f7565b604051610554929190611cf8565b60405180910390f35b610577600480360381019061057291906120f6565b61123b565b005b610581611258565b60405161058e91906122f9565b60405180910390f35b6105b160048036038101906105ac9190611c3d565b6113db565b005b6060600380546105c29061234a565b80601f01602080910402602001604051908101604052809291908181526020018280546105ee9061234a565b801561063b5780601f106106105761010080835404028352916020019161063b565b820191906000526020600020905b81548152906001019060200180831161061e57829003601f168201915b5050505050905090565b60006106596106526115a2565b84846115aa565b6001905092915050565b6000600254905090565b600061067a848484611775565b61071a846106866115a2565b84600160008973ffffffffffffffffffffffffffffffffffffffff1673ffffffffffffffffffffffffffffffffffffffff16815260200190815260200160002060006106d06115a2565b73ffffffffffffffffffffffffffffffffffffffff1673ffffffffffffffffffffffffffffffffffffffff1681526020019081526020016000205461071591906123ab565b6115aa565b600190509392505050565b61072d6115a2565b73ffffffffffffffffffffffffffffffffffffffff16600560019054906101000a900473ffffffffffffffffffffffffffffffffffffffff1673ffffffffffffffffffffffffffffffffffffffff16146107bc576040517f08c379a00000000000000000000000000000000000000000000000000000000081526004016107b39061242b565b60405180910390fd5b6000600960008373ffffffffffffffffffffffffffffffffffffffff1673ffffffffffffffffffffffffffffffffffffffff16815260200190815260200160002060006101000a81548160ff02191690831515021790555050565b6000600560009054906101000a900460ff16905090565b60006108d061083b6115a2565b8484600160006108496115a2565b73ffffffffffffffffffffffffffffffffffffffff1673ffffffffffffffffffffffffffffffffffffffff16815260200190815260200160002060008873ffffffffffffffffffffffffffffffffffffffff1673ffffffffffffffffffffffffffffffffffffffff168152602001908152602001600020546108cb919061244b565b6115aa565b6001905092915050565b6000600960008373ffffffffffffffffffffffffffffffffffffffff1673ffffffffffffffffffffffffffffffffffffffff16815260200190815260200160002060009054906101000a900460ff169050919050565b60008060008373ffffffffffffffffffffffffffffffffffffffff1673ffffffffffffffffffffffffffffffffffffffff168152602001908152602001600020549050919050565b6109806115a2565b73ffffffffffffffffffffffffffffffffffffffff16600560019054906101000a900473ffffffffffffffffffffffffffffffffffffffff1673ffffffffffffffffffffffffffffffffffffffff1614610a0f576040517f08c379a0000000000000000000000000000000000000000000000000000000008152600401610a069061242b565b60405180910390fd5b600073ffffffffffffffffffffffffffffffffffffffff16600560019054906101000a900473ffffffffffffffffffffffffffffffffffffffff1673ffffffffffffffffffffffffffffffffffffffff167f8be0079c531659141344cd1fd0a4f28419497f9722a3daafe3b4186f6b6457e060405160405180910390a36000600560016101000a81548173ffffffffffffffffffffffffffffffffffffffff021916908373ffffffffffffffffffffffffffffffffffffffff160217905550565b6000600560019054906101000a900473ffffffffffffffffffffffffffffffffffffffff16905090565b60608060088381548110610b1157610b106124a1565b5b906000526020600020906002020160000160088481548110610b3657610b356124a1565b5b9060005260206000209060020201600101818054610b539061234a565b80601f0160208091040260200160405190810160405280929190818152602001828054610b7f9061234a565b8015610bcc5780601f10610ba157610100808354040283529160200191610bcc565b820191906000526020600020905b815481529060010190602001808311610baf57829003601f168201915b50505050509150808054610bdf9061234a565b80601f0160208091040260200160405190810160405280929190818152602001828054610c0b9061234a565b8015610c585780601f10610c2d57610100808354040283529160200191610c58565b820191906000526020600020905b815481529060010190602001808311610c3b57829003601f168201915b5050505050905091509150915091565b606060048054610c779061234a565b80601f0160208091040260200160405190810160405280929190818152602001828054610ca39061234a565b8015610cf05780601f10610cc557610100808354040283529160200191610cf0565b820191906000526020600020905b815481529060010190602001808311610cd357829003601f168201915b5050505050905090565b610d026115a2565b73ffffffffffffffffffffffffffffffffffffffff16600560019054906101000a900473ffffffffffffffffffffffffffffffffffffffff1673ffffffffffffffffffffffffffffffffffffffff1614610d91576040517f08c379a0000000000000000000000000000000000000000000000000000000008152600401610d889061242b565b60405180910390fd5b6001600960008373ffffffffffffffffffffffffffffffffffffffff1673ffffffffffffffffffffffffffffffffffffffff16815260200190815260200160002060006101000a81548160ff02191690831515021790555050565b610df68383610eb7565b50610e0081610ed5565b505050565b60065481565b6000610ead610e186115a2565b848460016000610e266115a2565b73ffffffffffffffffffffffffffffffffffffffff1673ffffffffffffffffffffffffffffffffffffffff16815260200190815260200160002060008873ffffffffffffffffffffffffffffffffffffffff1673ffffffffffffffffffffffffffffffffffffffff16815260200190815260200160002054610ea891906123ab565b6115aa565b6001905092915050565b6000610ecb610ec46115a2565b8484611775565b6001905092915050565b610ede336108da565b610f1d576040517f08c379a0000000000000000000000000000000000000000000000000000000008152600401610f1490612542565b60405180910390fd5b7f7f731b7b4a0303837e68a08203313dd7b3741c073cc72958a608262f721690e081604051602001610f4f9190612610565b604051602081830303815290604052604051610f6b9190611a80565b60405180910390a150565b610f808484610eb7565b50610f8b8282611053565b50505050565b60096020528060005260406000206000915054906101000a900460ff1681565b6000600160008473ffffffffffffffffffffffffffffffffffffffff1673ffffffffffffffffffffffffffffffffffffffff16815260200190815260200160002060008373ffffffffffffffffffffffffffffffffffffffff1673ffffffffffffffffffffffffffffffffffffffff16815260200190815260200160002054905092915050565b61104384848461066d565b5061104d81610ed5565b50505050565b61105c336108da565b61109b576040517f08c379a000000000000000000000000000000000000000000000000000000000815260040161109290612542565b60405180910390fd5b7f7f731b7b4a0303837e68a08203313dd7b3741c073cc72958a608262f721690e082826040516020016110cf92919061267e565b6040516020818303038152906040526040516110eb9190611a80565b60405180910390a15050565b6008818154811061110757600080fd5b906000526020600020906002020160009150905080600001805461112a9061234a565b80601f01602080910402602001604051908101604052809291908181526020018280546111569061234a565b80156111a35780601f10611178576101008083540402835291602001916111a3565b820191906000526020600020905b81548152906001019060200180831161118657829003601f168201915b5050505050908060010180546111b89061234a565b80601f01602080910402602001604051908101604052809291908181526020018280546111e49061234a565b80156112315780601f1061120657610100808354040283529160200191611231565b820191906000526020600020905b81548152906001019060200180831161121457829003601f168201915b5050505050905082565b61124685858561066d565b506112518282611053565b5050505050565b60606008805480602002602001604051908101604052809291908181526020016000905b828210156113d257838290600052602060002090600202016040518060400160405290816000820180546112af9061234a565b80601f01602080910402602001604051908101604052809291908181526020018280546112db9061234a565b80156113285780601f106112fd57610100808354040283529160200191611328565b820191906000526020600020905b81548152906001019060200180831161130b57829003601f168201915b505050505081526020016001820180546113419061234a565b80601f016020809104026020016040519081016040528092919081815260200182805461136d9061234a565b80156113ba5780601f1061138f576101008083540402835291602001916113ba565b820191906000526020600020905b81548152906001019060200180831161139d57829003601f168201915b5050505050815250508152602001906001019061127c565b50505050905090565b6113e36115a2565b73ffffffffffffffffffffffffffffffffffffffff16600560019054906101000a900473ffffffffffffffffffffffffffffffffffffffff1673ffffffffffffffffffffffffffffffffffffffff1614611472576040517f08c379a00000000000000000000000000000000000000000000000000000000081526004016114699061242b565b60405180910390fd5b600073ffffffffffffffffffffffffffffffffffffffff168173ffffffffffffffffffffffffffffffffffffffff1614156114e2576040517f08c379a00000000000000000000000000000000000000000000000000000000081526004016114d99061271f565b60405180910390fd5b8073ffffffffffffffffffffffffffffffffffffffff16600560019054906101000a900473ffffffffffffffffffffffffffffffffffffffff1673ffffffffffffffffffffffffffffffffffffffff167f8be0079c531659141344cd1fd0a4f28419497f9722a3daafe3b4186f6b6457e060405160405180910390a380600560016101000a81548173ffffffffffffffffffffffffffffffffffffffff021916908373ffffffffffffffffffffffffffffffffffffffff16021790555050565b600033905090565b600073ffffffffffffffffffffffffffffffffffffffff168373ffffffffffffffffffffffffffffffffffffffff16141561161a576040517f08c379a0000000000000000000000000000000000000000000000000000000008152600401611611906127b1565b60405180910390fd5b600073ffffffffffffffffffffffffffffffffffffffff168273ffffffffffffffffffffffffffffffffffffffff16141561168a576040517f08c379a000000000000000000000000000000000000000000000000000000000815260040161168190612843565b60405180910390fd5b80600160008573ffffffffffffffffffffffffffffffffffffffff1673ffffffffffffffffffffffffffffffffffffffff16815260200190815260200160002060008473ffffffffffffffffffffffffffffffffffffffff1673ffffffffffffffffffffffffffffffffffffffff168152602001908152602001600020819055508173ffffffffffffffffffffffffffffffffffffffff168373ffffffffffffffffffffffffffffffffffffffff167f8c5be1e5ebec7d5bd14f71427d1e84f3dd0314c0f7b2291e5b200ac8c7c3b925836040516117689190611bcf565b60405180910390a3505050565b600073ffffffffffffffffffffffffffffffffffffffff168373ffffffffffffffffffffffffffffffffffffffff1614156117e5576040517f08c379a00000000000000000000000000000000000000000000000000000000081526004016117dc906128d5565b60405180910390fd5b600073ffffffffffffffffffffffffffffffffffffffff168273ffffffffffffffffffffffffffffffffffffffff161415611855576040517f08c379a000000000000000000000000000000000000000000000000000000000815260040161184c90612967565b60405180910390fd5b6118608383836119e2565b806000808573ffffffffffffffffffffffffffffffffffffffff1673ffffffffffffffffffffffffffffffffffffffff168152602001908152602001600020546118aa91906123ab565b6000808573ffffffffffffffffffffffffffffffffffffffff1673ffffffffffffffffffffffffffffffffffffffff16815260200190815260200160002081905550806000808473ffffffffffffffffffffffffffffffffffffffff1673ffffffffffffffffffffffffffffffffffffffff16815260200190815260200160002054611936919061244b565b6000808473ffffffffffffffffffffffffffffffffffffffff1673ffffffffffffffffffffffffffffffffffffffff168152602001908152602001600020819055508173ffffffffffffffffffffffffffffffffffffffff168373ffffffffffffffffffffffffffffffffffffffff167fddf252ad1be2c89b69c2b068fc378daa952ba7f163c4a11628f55a4df523b3ef836040516119d59190611bcf565b60405180910390a3505050565b505050565b600081519050919050565b600082825260208201905092915050565b60005b83811015611a21578082015181840152602081019050611a06565b83811115611a30576000848401525b50505050565b6000601f19601f8301169050919050565b6000611a52826119e7565b611a5c81856119f2565b9350611a6c818560208601611a03565b611a7581611a36565b840191505092915050565b60006020820190508181036000830152611a9a8184611a47565b905092915050565b6000604051905090565b600080fd5b600080fd5b600073ffffffffffffffffffffffffffffffffffffffff82169050919050565b6000611ae182611ab6565b9050919050565b611af181611ad6565b8114611afc57600080fd5b50565b600081359050611b0e81611ae8565b92915050565b6000819050919050565b611b2781611b14565b8114611b3257600080fd5b50565b600081359050611b4481611b1e565b92915050565b60008060408385031215611b6157611b60611aac565b5b6000611b6f85828601611aff565b9250506020611b8085828601611b35565b9150509250929050565b60008115159050919050565b611b9f81611b8a565b82525050565b6000602082019050611bba6000830184611b96565b92915050565b611bc981611b14565b82525050565b6000602082019050611be46000830184611bc0565b92915050565b600080600060608486031215611c0357611c02611aac565b5b6000611c1186828701611aff565b9350506020611c2286828701611aff565b9250506040611c3386828701611b35565b9150509250925092565b600060208284031215611c5357611c52611aac565b5b6000611c6184828501611aff565b91505092915050565b600060ff82169050919050565b611c8081611c6a565b82525050565b6000602082019050611c9b6000830184611c77565b92915050565b611caa81611ad6565b82525050565b6000602082019050611cc56000830184611ca1565b92915050565b600060208284031215611ce157611ce0611aac565b5b6000611cef84828501611b35565b91505092915050565b60006040820190508181036000830152611d128185611a47565b90508181036020830152611d268184611a47565b90509392505050565b600080fd5b600080fd5b7f4e487b7100000000000000000000000000000000000000000000000000000000600052604160045260246000fd5b611d7182611a36565b810181811067ffffffffffffffff82111715611d9057611d8f611d39565b5b80604052505050565b6000611da3611aa2565b9050611daf8282611d68565b919050565b600067ffffffffffffffff821115611dcf57611dce611d39565b5b611dd882611a36565b9050602081019050919050565b82818337600083830152505050565b6000611e07611e0284611db4565b611d99565b905082815260208101848484011115611e2357611e22611d34565b5b611e2e848285611de5565b509392505050565b600082601f830112611e4b57611e4a611d2f565b5b8135611e5b848260208601611df4565b91505092915050565b600080600060608486031215611e7d57611e7c611aac565b5b6000611e8b86828701611aff565b9350506020611e9c86828701611b35565b925050604084013567ffffffffffffffff811115611ebd57611ebc611ab1565b5b611ec986828701611e36565b9150509250925092565b600060208284031215611ee957611ee8611aac565b5b600082013567ffffffffffffffff811115611f0757611f06611ab1565b5b611f1384828501611e36565b91505092915050565b60008060008060808587031215611f3657611f35611aac565b5b6000611f4487828801611aff565b9450506020611f5587828801611b35565b935050604085013567ffffffffffffffff811115611f7657611f75611ab1565b5b611f8287828801611e36565b925050606085013567ffffffffffffffff811115611fa357611fa2611ab1565b5b611faf87828801611e36565b91505092959194509250565b60008060408385031215611fd257611fd1611aac565b5b6000611fe085828601611aff565b9250506020611ff185828601611aff565b9150509250929050565b6000806000806080858703121561201557612014611aac565b5b600061202387828801611aff565b945050602061203487828801611aff565b935050604061204587828801611b35565b925050606085013567ffffffffffffffff81111561206657612065611ab1565b5b61207287828801611e36565b91505092959194509250565b6000806040838503121561209557612094611aac565b5b600083013567ffffffffffffffff8111156120b3576120b2611ab1565b5b6120bf85828601611e36565b925050602083013567ffffffffffffffff8111156120e0576120df611ab1565b5b6120ec85828601611e36565b9150509250929050565b600080600080600060a0868803121561211257612111611aac565b5b600061212088828901611aff565b955050602061213188828901611aff565b945050604061214288828901611b35565b935050606086013567ffffffffffffffff81111561216357612162611ab1565b5b61216f88828901611e36565b925050608086013567ffffffffffffffff8111156121905761218f611ab1565b5b61219c88828901611e36565b9150509295509295909350565b600081519050919050565b600082825260208201905092915050565b6000819050602082019050919050565b600082825260208201905092915050565b60006121f1826119e7565b6121fb81856121d5565b935061220b818560208601611a03565b61221481611a36565b840191505092915050565b6000604083016000830151848203600086015261223c82826121e6565b9150506020830151848203602086015261225682826121e6565b9150508091505092915050565b600061226f838361221f565b905092915050565b6000602082019050919050565b600061228f826121a9565b61229981856121b4565b9350836020820285016122ab856121c5565b8060005b858110156122e757848403895281516122c88582612263565b94506122d383612277565b925060208a019950506001810190506122af565b50829750879550505050505092915050565b600060208201905081810360008301526123138184612284565b905092915050565b7f4e487b7100000000000000000000000000000000000000000000000000000000600052602260045260246000fd5b6000600282049050600182168061236257607f821691505b602082108114156123765761237561231b565b5b50919050565b7f4e487b7100000000000000000000000000000000000000000000000000000000600052601160045260246000fd5b60006123b682611b14565b91506123c183611b14565b9250828210156123d4576123d361237c565b5b828203905092915050565b7f4f776e61626c653a2063616c6c6572206973206e6f7420746865206f776e6572600082015250565b60006124156020836119f2565b9150612420826123df565b602082019050919050565b6000602082019050818103600083015261244481612408565b9050919050565b600061245682611b14565b915061246183611b14565b9250827fffffffffffffffffffffffffffffffffffffffffffffffffffffffffffffffff038211156124965761249561237c565b5b828201905092915050565b7f4e487b7100000000000000000000000000000000000000000000000000000000600052603260045260246000fd5b7f6f6e6c792077686974656c6973746564206164647265737365732063616e206360008201527f616c6c20746869732066756e6374696f6e000000000000000000000000000000602082015250565b600061252c6031836119f2565b9150612537826124d0565b604082019050919050565b6000602082019050818103600083015261255b8161251f565b9050919050565b600081905092915050565b7f4c6174656c792c20492068656c70656420746f2072656d6f766520706f76657260008201527f74792066726f6d2074686520776f726c64206279200000000000000000000000602082015250565b60006125c9603583612562565b91506125d48261256d565b603582019050919050565b60006125ea826119e7565b6125f48185612562565b9350612604818560208601611a03565b80840191505092915050565b600061261b826125bc565b915061262782846125df565b915081905092915050565b7f277320686172642074696d65732073746f727920697320000000000000000000600082015250565b6000612668601783612562565b915061267382612632565b601782019050919050565b600061268a82856125df565b91506126958261265b565b91506126a182846125df565b91508190509392505050565b7f4f776e61626c653a206e6577206f776e657220697320746865207a65726f206160008201527f6464726573730000000000000000000000000000000000000000000000000000602082015250565b60006127096026836119f2565b9150612714826126ad565b604082019050919050565b60006020820190508181036000830152612738816126fc565b9050919050565b7f45524332303a20617070726f76652066726f6d20746865207a65726f2061646460008201527f7265737300000000000000000000000000000000000000000000000000000000602082015250565b600061279b6024836119f2565b91506127a68261273f565b604082019050919050565b600060208201905081810360008301526127ca8161278e565b9050919050565b7f45524332303a20617070726f766520746f20746865207a65726f20616464726560008201527f7373000000000000000000000000000000000000000000000000000000000000602082015250565b600061282d6022836119f2565b9150612838826127d1565b604082019050919050565b6000602082019050818103600083015261285c81612820565b9050919050565b7f45524332303a207472616e736665722066726f6d20746865207a65726f20616460008201527f6472657373000000000000000000000000000000000000000000000000000000602082015250565b60006128bf6025836119f2565b91506128ca82612863565b604082019050919050565b600060208201905081810360008301526128ee816128b2565b9050919050565b7f45524332303a207472616e7366657220746f20746865207a65726f206164647260008201527f6573730000000000000000000000000000000000000000000000000000000000602082015250565b60006129516023836119f2565b915061295c826128f5565b604082019050919050565b6000602082019050818103600083015261298081612944565b905091905056fea26469706673582212207cea3aafbfa8c83e91615dc2491fa0e74c8400c60ded2177651b52a0d2df8fbc64736f6c634300080b003350657268617073206f6e65206f66207468652062657374207761797320746f20706f74656e7469616c6c792072656d6f766520706f766572747920697320746f20736861726520746865204561736965722054696d657320546f6b656e20776974682074686f73652077686f2066696e64207468656d73656c7665732066616c6c656e206f6e20686172642074696d65732e2054686174207761792c206120686967682064656d616e64206f662074686520636f696e2063616e206265636f6d652073796e6f6e796d6f75732077697468207265647563696e6720706f766572747920696e2074686520776f726c642c2073696e63652077686f657665722068617320746865736520636f696e732077696c6c20686176652074686569722066696e616e63657320696d70726f76696e672e45766572792074696d6520796f75207368617265206f72207374616b652074686520636f696e2c207468696e6b206f66207761797320696e20776869636820796f752063616e2068656c7020746f2072656d6f766520706f766572747920696e2074686520776f726c642c20616e64207768656e6576657220706f737369626c6520616374206f6e2074686f73652074686f75676874732e2049742063616e20626520736f6d657468696e6720617420746865206c6576656c206f6620796f75722066616d696c792c20796f757220636f6d6d756e6974792c20796f757220636974792c20757020746f207468652077686f6c6520776f726c642e53686172652074686520636f696e20776974682074686f736520696e206e656564",
  "immutableReferences": {},
  "source": "// SPDX-License-Identifier: MIT\r\n\r\npragma solidity ^0.8.9;\r\n\r\nimport \"../node_modules/openzeppelin-contracts/token/ERC20/ERC20.sol\";\r\nimport \"../node_modules/openzeppelin-contracts/access/Ownable.sol\";\r\nimport \"./SacredCoin.sol\";\r\n\r\ncontract BetterTimesToken is ERC20, Ownable, SacredCoin {\r\n\r\n    constructor() ERC20(\"Better Times Token\", \"UPNUP\") {\r\n\r\n        /**\r\n        * @dev minting 679 million coins, an estimate of how much people are living in poverty at the moment of\r\n        * the coin creation\r\n        */\r\n        _mint(msg.sender, 679000000 * 10 ** decimals());\r\n\r\n        /**\r\n        * @dev calling the setGuideline function to create 2 guidelines:\r\n        */\r\n\r\n        setGuideline(\"Help to remove poverty\", \"Every time you share or stake the coin, think of ways in which you can help to remove poverty in the world, and whenever possible act on those thoughts. It can be something at the level of your family, your community, your city, up to the whole world.\");\r\n        setGuideline(\"Share the coin with those in need\", \"Perhaps one of the best ways to potentially remove poverty is to share the Easier Times Token with those who find themselves fallen on hard times. That way, a high demand of the coin can become synonymous with reducing poverty in the world, since whoever has these coins will have their finances improving.\");\r\n    }\r\n\r\n    mapping (address => bool) public WhitelistedToCallSacredMessages;\r\n\r\n\r\n    event SacredEvent(string BetterTimesMessage);\r\n\r\n    modifier onlyWhitelistedToCallSacredMessages() {\r\n        require( isInSacredMessagesWhitelist(msg.sender), \"only whitelisted addresses can call this function\");\r\n        _;\r\n    }\r\n\r\n    function isInSacredMessagesWhitelist(address _address) public view returns (bool) {\r\n        return WhitelistedToCallSacredMessages[_address];\r\n    }\r\n\r\n    function addToSacredMessagesWhitelist(address _whitelistedAddress) public onlyOwner {\r\n        WhitelistedToCallSacredMessages[_whitelistedAddress]=true;\r\n    }\r\n\r\n    function RemoveFromSacredMessagesWhitelist(address _whitelistedAddress) public onlyOwner{\r\n        WhitelistedToCallSacredMessages[_whitelistedAddress]=false;\r\n    }\r\n\r\n    function SacredMessageOne(string memory yourDeeds) public onlyWhitelistedToCallSacredMessages {\r\n        emit SacredEvent(string(abi.encodePacked(\"Lately, I helped to remove poverty from the world by \", yourDeeds)));\r\n    }\r\n\r\n    function SacredMessageTwo(string memory name, string memory story) public onlyWhitelistedToCallSacredMessages {\r\n        emit SacredEvent(string(abi.encodePacked(name, \"'s hard times story is \", story)));\r\n    }\r\n\r\n    function transferSacredOne(address to, uint tokens, string memory yourDeeds) public {\r\n        super.transfer(to, tokens);\r\n        SacredMessageOne(yourDeeds);\r\n    }\r\n\r\n    function transferSacredTwo(address to, uint tokens, string memory name, string memory gratitudeObject) public {\r\n        super.transfer(to, tokens);\r\n        SacredMessageTwo(name, gratitudeObject);\r\n    }\r\n\r\n    function transferFromSacredOne(address sender, address recipient, uint256 amount, string memory yourDeeds) public {\r\n        super.transferFrom(sender, recipient, amount);\r\n        SacredMessageOne(yourDeeds);\r\n    }\r\n\r\n    function transferFromSacredTwo(address sender, address recipient, uint256 amount, string memory name, string memory story) public {\r\n        super.transferFrom(sender, recipient, amount);\r\n        SacredMessageTwo(name, story);\r\n    }\r\n}\r\n",
  "sourcePath": "C:\\code\\better_times_token_and_sacred_farm_backend\\contracts\\BetterTimesToken.sol",
  "compiler": {
    "name": "solc",
    "version": "0.8.11+commit.d7f03943.Emscripten.clang"
  },
  "schemaVersion": "3.4.3",
  "updatedAt": "2022-02-03T16:17:26.096Z",
  "networkType": "ethereum",
  "devdoc": {
    "kind": "dev",
    "methods": {
      "allowance(address,address)": {
        "details": "See {IERC20-allowance}."
      },
      "approve(address,uint256)": {
        "details": "See {IERC20-approve}. Requirements: - `spender` cannot be the zero address."
      },
      "balanceOf(address)": {
        "details": "See {IERC20-balanceOf}."
      },
      "decimals()": {
        "details": "Returns the number of decimals used to get its user representation. For example, if `decimals` equals `2`, a balance of `505` tokens should be displayed to a user as `5,05` (`505 / 10 ** 2`). Tokens usually opt for a value of 18, imitating the relationship between Ether and Wei. This is the value {ERC20} uses, unless {_setupDecimals} is called. NOTE: This information is only used for _display_ purposes: it in no way affects any of the arithmetic of the contract, including {IERC20-balanceOf} and {IERC20-transfer}."
      },
      "decreaseAllowance(address,uint256)": {
        "details": "Atomically decreases the allowance granted to `spender` by the caller. This is an alternative to {approve} that can be used as a mitigation for problems described in {IERC20-approve}. Emits an {Approval} event indicating the updated allowance. Requirements: - `spender` cannot be the zero address. - `spender` must have allowance for the caller of at least `subtractedValue`."
      },
      "increaseAllowance(address,uint256)": {
        "details": "Atomically increases the allowance granted to `spender` by the caller. This is an alternative to {approve} that can be used as a mitigation for problems described in {IERC20-approve}. Emits an {Approval} event indicating the updated allowance. Requirements: - `spender` cannot be the zero address."
      },
      "name()": {
        "details": "Returns the name of the token."
      },
      "owner()": {
        "details": "Returns the address of the current owner."
      },
      "renounceOwnership()": {
        "details": "Leaves the contract without owner. It will not be possible to call `onlyOwner` functions anymore. Can only be called by the current owner. NOTE: Renouncing ownership will leave the contract without an owner, thereby removing any functionality that is only available to the owner."
      },
      "returnAllGuidelines()": {
        "details": "Function that returns all guidelines. This allows iterating over all guidelines for the purpose of retrieval and/or display."
      },
      "returnSingleGuideline(uint256)": {
        "details": "Function that returns a single guideline. The element at location 0 of the array will store the guideline summary. The element at location 1 of the array will store the guideline itself."
      },
      "symbol()": {
        "details": "Returns the symbol of the token, usually a shorter version of the name."
      },
      "totalSupply()": {
        "details": "See {IERC20-totalSupply}."
      },
      "transfer(address,uint256)": {
        "details": "See {IERC20-transfer}. Requirements: - `recipient` cannot be the zero address. - the caller must have a balance of at least `amount`."
      },
      "transferFrom(address,address,uint256)": {
        "details": "See {IERC20-transferFrom}. Emits an {Approval} event indicating the updated allowance. This is not required by the EIP. See the note at the beginning of {ERC20}. Requirements: - `sender` and `recipient` cannot be the zero address. - `sender` must have a balance of at least `amount`. - the caller must have allowance for ``sender``'s tokens of at least `amount`."
      },
      "transferOwnership(address)": {
        "details": "Transfers ownership of the contract to a new account (`newOwner`). Can only be called by the current owner."
      }
    },
    "version": 1
  },
  "userdoc": {
    "kind": "user",
    "methods": {},
    "version": 1
  }
}