{
  "contractName": "BetterTimesToken",
  "abi": [
    {
      "inputs": [],
      "stateMutability": "nonpayable",
      "type": "constructor"
    },
    {
      "anonymous": false,
      "inputs": [
        {
          "indexed": true,
          "internalType": "address",
          "name": "owner",
          "type": "address"
        },
        {
          "indexed": true,
          "internalType": "address",
          "name": "spender",
          "type": "address"
        },
        {
          "indexed": false,
          "internalType": "uint256",
          "name": "value",
          "type": "uint256"
        }
      ],
      "name": "Approval",
      "type": "event"
    },
    {
      "anonymous": false,
      "inputs": [
        {
          "indexed": false,
          "internalType": "string",
          "name": "guidelineSummary",
          "type": "string"
        },
        {
          "indexed": false,
          "internalType": "string",
          "name": "guideline",
          "type": "string"
        }
      ],
      "name": "GuidelineCreated",
      "type": "event"
    },
    {
      "anonymous": false,
      "inputs": [
        {
          "indexed": true,
          "internalType": "address",
          "name": "previousOwner",
          "type": "address"
        },
        {
          "indexed": true,
          "internalType": "address",
          "name": "newOwner",
          "type": "address"
        }
      ],
      "name": "OwnershipTransferred",
      "type": "event"
    },
    {
      "anonymous": false,
      "inputs": [
        {
          "indexed": false,
          "internalType": "string",
          "name": "BetterTimesMessage",
          "type": "string"
        }
      ],
      "name": "SacredEvent",
      "type": "event"
    },
    {
      "anonymous": false,
      "inputs": [
        {
          "indexed": true,
          "internalType": "address",
          "name": "user",
          "type": "address"
        },
        {
          "indexed": false,
          "internalType": "uint256",
          "name": "amount",
          "type": "uint256"
        },
        {
          "indexed": false,
          "internalType": "uint256",
          "name": "timestamp",
          "type": "uint256"
        }
      ],
      "name": "Staked",
      "type": "event"
    },
    {
      "anonymous": false,
      "inputs": [
        {
          "indexed": true,
          "internalType": "address",
          "name": "from",
          "type": "address"
        },
        {
          "indexed": true,
          "internalType": "address",
          "name": "to",
          "type": "address"
        },
        {
          "indexed": false,
          "internalType": "uint256",
          "name": "value",
          "type": "uint256"
        }
      ],
      "name": "Transfer",
      "type": "event"
    },
    {
      "inputs": [
        {
          "internalType": "address",
          "name": "",
          "type": "address"
        }
      ],
      "name": "WhitelistedToCallSacredMessages",
      "outputs": [
        {
          "internalType": "bool",
          "name": "",
          "type": "bool"
        }
      ],
      "stateMutability": "view",
      "type": "function"
    },
    {
      "inputs": [
        {
          "internalType": "address",
          "name": "owner",
          "type": "address"
        },
        {
          "internalType": "address",
          "name": "spender",
          "type": "address"
        }
      ],
      "name": "allowance",
      "outputs": [
        {
          "internalType": "uint256",
          "name": "",
          "type": "uint256"
        }
      ],
      "stateMutability": "view",
      "type": "function"
    },
    {
      "inputs": [
        {
          "internalType": "address",
          "name": "spender",
          "type": "address"
        },
        {
          "internalType": "uint256",
          "name": "amount",
          "type": "uint256"
        }
      ],
      "name": "approve",
      "outputs": [
        {
          "internalType": "bool",
          "name": "",
          "type": "bool"
        }
      ],
      "stateMutability": "nonpayable",
      "type": "function"
    },
    {
      "inputs": [
        {
          "internalType": "address",
          "name": "account",
          "type": "address"
        }
      ],
      "name": "balanceOf",
      "outputs": [
        {
          "internalType": "uint256",
          "name": "",
          "type": "uint256"
        }
      ],
      "stateMutability": "view",
      "type": "function"
    },
    {
      "inputs": [],
      "name": "decimals",
      "outputs": [
        {
          "internalType": "uint8",
          "name": "",
          "type": "uint8"
        }
      ],
      "stateMutability": "view",
      "type": "function"
    },
    {
      "inputs": [
        {
          "internalType": "address",
          "name": "spender",
          "type": "address"
        },
        {
          "internalType": "uint256",
          "name": "subtractedValue",
          "type": "uint256"
        }
      ],
      "name": "decreaseAllowance",
      "outputs": [
        {
          "internalType": "bool",
          "name": "",
          "type": "bool"
        }
      ],
      "stateMutability": "nonpayable",
      "type": "function"
    },
    {
      "inputs": [
        {
          "internalType": "uint256",
          "name": "",
          "type": "uint256"
        }
      ],
      "name": "guidelines",
      "outputs": [
        {
          "internalType": "string",
          "name": "summary",
          "type": "string"
        },
        {
          "internalType": "string",
          "name": "guideline",
          "type": "string"
        }
      ],
      "stateMutability": "view",
      "type": "function"
    },
    {
      "inputs": [
        {
          "internalType": "address",
          "name": "_staker",
          "type": "address"
        }
      ],
      "name": "hasStake",
      "outputs": [
        {
          "internalType": "bool",
          "name": "isStaking",
          "type": "bool"
        },
        {
          "components": [
            {
              "internalType": "uint256",
              "name": "total_amount",
              "type": "uint256"
            },
            {
              "internalType": "uint256",
              "name": "SecondsToEndOfStakingRewards",
              "type": "uint256"
            }
          ],
          "internalType": "struct SacredStakeable.StakingSummary",
          "name": "",
          "type": "tuple"
        }
      ],
      "stateMutability": "view",
      "type": "function"
    },
    {
      "inputs": [
        {
          "internalType": "address",
          "name": "spender",
          "type": "address"
        },
        {
          "internalType": "uint256",
          "name": "addedValue",
          "type": "uint256"
        }
      ],
      "name": "increaseAllowance",
      "outputs": [
        {
          "internalType": "bool",
          "name": "",
          "type": "bool"
        }
      ],
      "stateMutability": "nonpayable",
      "type": "function"
    },
    {
      "inputs": [],
      "name": "name",
      "outputs": [
        {
          "internalType": "string",
          "name": "",
          "type": "string"
        }
      ],
      "stateMutability": "view",
      "type": "function"
    },
    {
      "inputs": [],
      "name": "numberOfGuidelines",
      "outputs": [
        {
          "internalType": "uint256",
          "name": "",
          "type": "uint256"
        }
      ],
      "stateMutability": "view",
      "type": "function"
    },
    {
      "inputs": [],
      "name": "owner",
      "outputs": [
        {
          "internalType": "address",
          "name": "",
          "type": "address"
        }
      ],
      "stateMutability": "view",
      "type": "function"
    },
    {
      "inputs": [],
      "name": "renounceOwnership",
      "outputs": [],
      "stateMutability": "nonpayable",
      "type": "function"
    },
    {
      "inputs": [],
      "name": "returnAllGuidelines",
      "outputs": [
        {
          "components": [
            {
              "internalType": "string",
              "name": "summary",
              "type": "string"
            },
            {
              "internalType": "string",
              "name": "guideline",
              "type": "string"
            }
          ],
          "internalType": "struct SacredCoin.Guideline[]",
          "name": "",
          "type": "tuple[]"
        }
      ],
      "stateMutability": "view",
      "type": "function"
    },
    {
      "inputs": [
        {
          "internalType": "uint256",
          "name": "_index",
          "type": "uint256"
        }
      ],
      "name": "returnSingleGuideline",
      "outputs": [
        {
          "internalType": "string",
          "name": "",
          "type": "string"
        },
        {
          "internalType": "string",
          "name": "",
          "type": "string"
        }
      ],
      "stateMutability": "view",
      "type": "function"
    },
    {
      "inputs": [],
      "name": "symbol",
      "outputs": [
        {
          "internalType": "string",
          "name": "",
          "type": "string"
        }
      ],
      "stateMutability": "view",
      "type": "function"
    },
    {
      "inputs": [],
      "name": "totalSupply",
      "outputs": [
        {
          "internalType": "uint256",
          "name": "",
          "type": "uint256"
        }
      ],
      "stateMutability": "view",
      "type": "function"
    },
    {
      "inputs": [
        {
          "internalType": "address",
          "name": "recipient",
          "type": "address"
        },
        {
          "internalType": "uint256",
          "name": "amount",
          "type": "uint256"
        }
      ],
      "name": "transfer",
      "outputs": [
        {
          "internalType": "bool",
          "name": "",
          "type": "bool"
        }
      ],
      "stateMutability": "nonpayable",
      "type": "function"
    },
    {
      "inputs": [
        {
          "internalType": "address",
          "name": "sender",
          "type": "address"
        },
        {
          "internalType": "address",
          "name": "recipient",
          "type": "address"
        },
        {
          "internalType": "uint256",
          "name": "amount",
          "type": "uint256"
        }
      ],
      "name": "transferFrom",
      "outputs": [
        {
          "internalType": "bool",
          "name": "",
          "type": "bool"
        }
      ],
      "stateMutability": "nonpayable",
      "type": "function"
    },
    {
      "inputs": [
        {
          "internalType": "address",
          "name": "newOwner",
          "type": "address"
        }
      ],
      "name": "transferOwnership",
      "outputs": [],
      "stateMutability": "nonpayable",
      "type": "function"
    },
    {
      "inputs": [
        {
          "internalType": "address",
          "name": "_address",
          "type": "address"
        }
      ],
      "name": "isInSacredMessagesWhitelist",
      "outputs": [
        {
          "internalType": "bool",
          "name": "",
          "type": "bool"
        }
      ],
      "stateMutability": "view",
      "type": "function"
    },
    {
      "inputs": [
        {
          "internalType": "address",
          "name": "_whitelistedAddress",
          "type": "address"
        }
      ],
      "name": "addToSacredMessagesWhitelist",
      "outputs": [],
      "stateMutability": "nonpayable",
      "type": "function"
    },
    {
      "inputs": [
        {
          "internalType": "address",
          "name": "_whitelistedAddress",
          "type": "address"
        }
      ],
      "name": "removeFromSacredMessagesWhitelist",
      "outputs": [],
      "stateMutability": "nonpayable",
      "type": "function"
    },
    {
      "inputs": [
        {
          "internalType": "address",
          "name": "to",
          "type": "address"
        },
        {
          "internalType": "uint256",
          "name": "tokens",
          "type": "uint256"
        },
        {
          "internalType": "string",
          "name": "yourDeeds",
          "type": "string"
        }
      ],
      "name": "transferSacredOne",
      "outputs": [],
      "stateMutability": "nonpayable",
      "type": "function"
    },
    {
      "inputs": [
        {
          "internalType": "address",
          "name": "to",
          "type": "address"
        },
        {
          "internalType": "uint256",
          "name": "tokens",
          "type": "uint256"
        },
        {
          "internalType": "string",
          "name": "name",
          "type": "string"
        },
        {
          "internalType": "string",
          "name": "gratitudeObject",
          "type": "string"
        }
      ],
      "name": "transferSacredTwo",
      "outputs": [],
      "stateMutability": "nonpayable",
      "type": "function"
    },
    {
      "inputs": [
        {
          "internalType": "address",
          "name": "sender",
          "type": "address"
        },
        {
          "internalType": "address",
          "name": "recipient",
          "type": "address"
        },
        {
          "internalType": "uint256",
          "name": "amount",
          "type": "uint256"
        },
        {
          "internalType": "string",
          "name": "yourDeeds",
          "type": "string"
        }
      ],
      "name": "transferFromSacredOne",
      "outputs": [],
      "stateMutability": "nonpayable",
      "type": "function"
    },
    {
      "inputs": [
        {
          "internalType": "address",
          "name": "sender",
          "type": "address"
        },
        {
          "internalType": "address",
          "name": "recipient",
          "type": "address"
        },
        {
          "internalType": "uint256",
          "name": "amount",
          "type": "uint256"
        },
        {
          "internalType": "string",
          "name": "name",
          "type": "string"
        },
        {
          "internalType": "string",
          "name": "story",
          "type": "string"
        }
      ],
      "name": "transferFromSacredTwo",
      "outputs": [],
      "stateMutability": "nonpayable",
      "type": "function"
    },
    {
      "inputs": [
        {
          "internalType": "uint256",
          "name": "_amount",
          "type": "uint256"
        },
        {
          "internalType": "string",
          "name": "yourDeeds",
          "type": "string"
        },
        {
          "internalType": "uint8",
          "name": "timeframe",
          "type": "uint8"
        }
      ],
      "name": "stakeOne",
      "outputs": [],
      "stateMutability": "nonpayable",
      "type": "function"
    },
    {
      "inputs": [
        {
          "internalType": "uint256",
          "name": "_amount",
          "type": "uint256"
        },
        {
          "internalType": "string",
          "name": "name",
          "type": "string"
        },
        {
          "internalType": "string",
          "name": "story",
          "type": "string"
        },
        {
          "internalType": "uint8",
          "name": "timeframe",
          "type": "uint8"
        }
      ],
      "name": "stakeTwo",
      "outputs": [],
      "stateMutability": "nonpayable",
      "type": "function"
    },
    {
      "inputs": [],
      "name": "withdrawStake",
      "outputs": [],
      "stateMutability": "nonpayable",
      "type": "function"
    }
  ],
  "bytecode": "0x60806040526103e8600b553480156200001757600080fd5b506040518060400160405280601281526020017f4265747465722054696d657320546f6b656e00000000000000000000000000008152506040518060400160405280600581526020017f55504e555000000000000000000000000000000000000000000000000000000081525081600390805190602001906200009c9291906200052b565b508060049080519060200190620000b59291906200052b565b506012600560006101000a81548160ff021916908360ff16021790555050506000620000e66200029160201b60201c565b905080600560016101000a81548173ffffffffffffffffffffffffffffffffffffffff021916908373ffffffffffffffffffffffffffffffffffffffff1602179055508073ffffffffffffffffffffffffffffffffffffffff16600073ffffffffffffffffffffffffffffffffffffffff167f8be0079c531659141344cd1fd0a4f28419497f9722a3daafe3b4186f6b6457e060405160405180910390a350600960018160018154018082558091505003906000526020600020905050620001e333620001b86200029960201b60201c565b600a620001c6919062000775565b632878b7c0620001d79190620007c6565b620002b060201b60201c565b620002446040518060400160405280601681526020017f48656c7020746f2072656d6f766520706f76657274790000000000000000000081525060405180610120016040528060fb81526020016200458660fb91396200044760201b60201c565b6200028b604051806060016040528060218152602001620046816021913960405180610160016040528061013281526020016200445461013291396200044760201b60201c565b62000ab6565b600033905090565b6000600560009054906101000a900460ff16905090565b600073ffffffffffffffffffffffffffffffffffffffff168273ffffffffffffffffffffffffffffffffffffffff16141562000323576040517f08c379a00000000000000000000000000000000000000000000000000000000081526004016200031a9062000888565b60405180910390fd5b62000337600083836200052660201b60201c565b80600254620003479190620008aa565b600281905550806000808473ffffffffffffffffffffffffffffffffffffffff1673ffffffffffffffffffffffffffffffffffffffff16815260200190815260200160002054620003999190620008aa565b6000808473ffffffffffffffffffffffffffffffffffffffff1673ffffffffffffffffffffffffffffffffffffffff168152602001908152602001600020819055508173ffffffffffffffffffffffffffffffffffffffff16600073ffffffffffffffffffffffffffffffffffffffff167fddf252ad1be2c89b69c2b068fc378daa952ba7f163c4a11628f55a4df523b3ef836040516200043b919062000918565b60405180910390a35050565b6000604051806040016040528084815260200183815250905060088190806001815401808255809150506001900390600052602060002090600202016000909190919091506000820151816000019080519060200190620004aa9291906200052b565b506020820151816001019080519060200190620004c99291906200052b565b5050507ffeb3900704f1da20c6c7adbbed3b6e4244f5bb27d544d1e5bad423c970434f818383604051620004ff929190620009c8565b60405180910390a1600660008154809291906200051c9062000a03565b9190505550505050565b505050565b828054620005399062000a80565b90600052602060002090601f0160209004810192826200055d5760008555620005a9565b82601f106200057857805160ff1916838001178555620005a9565b82800160010185558215620005a9579182015b82811115620005a85782518255916020019190600101906200058b565b5b509050620005b89190620005bc565b5090565b5b80821115620005d7576000816000905550600101620005bd565b5090565b7f4e487b7100000000000000000000000000000000000000000000000000000000600052601160045260246000fd5b60008160011c9050919050565b6000808291508390505b60018511156200066957808604811115620006415762000640620005db565b5b6001851615620006515780820291505b808102905062000661856200060a565b945062000621565b94509492505050565b60008262000684576001905062000757565b8162000694576000905062000757565b8160018114620006ad5760028114620006b857620006ee565b600191505062000757565b60ff841115620006cd57620006cc620005db565b5b8360020a915084821115620006e757620006e6620005db565b5b5062000757565b5060208310610133831016604e8410600b8410161715620007285782820a905083811115620007225762000721620005db565b5b62000757565b62000737848484600162000617565b92509050818404811115620007515762000750620005db565b5b81810290505b9392505050565b6000819050919050565b600060ff82169050919050565b600062000782826200075e565b91506200078f8362000768565b9250620007be7fffffffffffffffffffffffffffffffffffffffffffffffffffffffffffffffff848462000672565b905092915050565b6000620007d3826200075e565b9150620007e0836200075e565b9250817fffffffffffffffffffffffffffffffffffffffffffffffffffffffffffffffff04831182151516156200081c576200081b620005db565b5b828202905092915050565b600082825260208201905092915050565b7f45524332303a206d696e7420746f20746865207a65726f206164647265737300600082015250565b600062000870601f8362000827565b91506200087d8262000838565b602082019050919050565b60006020820190508181036000830152620008a38162000861565b9050919050565b6000620008b7826200075e565b9150620008c4836200075e565b9250827fffffffffffffffffffffffffffffffffffffffffffffffffffffffffffffffff03821115620008fc57620008fb620005db565b5b828201905092915050565b62000912816200075e565b82525050565b60006020820190506200092f600083018462000907565b92915050565b600081519050919050565b60005b838110156200096057808201518184015260208101905062000943565b8381111562000970576000848401525b50505050565b6000601f19601f8301169050919050565b6000620009948262000935565b620009a0818562000827565b9350620009b281856020860162000940565b620009bd8162000976565b840191505092915050565b60006040820190508181036000830152620009e4818562000987565b90508181036020830152620009fa818462000987565b90509392505050565b600062000a10826200075e565b91507fffffffffffffffffffffffffffffffffffffffffffffffffffffffffffffffff82141562000a465762000a45620005db565b5b600182019050919050565b7f4e487b7100000000000000000000000000000000000000000000000000000000600052602260045260246000fd5b6000600282049050600182168062000a9957607f821691505b6020821081141562000ab05762000aaf62000a51565b5b50919050565b61398e8062000ac66000396000f3fe608060405234801561001057600080fd5b50600436106101da5760003560e01c80639ede4fc011610104578063da4dd05a116100a2578063e3f54e5811610071578063e3f54e581461057d578063e73e14bf14610599578063f2409e67146105ca578063f2fde38b146105e8576101da565b8063da4dd05a146104e4578063dd62ed3e14610500578063dda9db7c14610530578063e2bff3ba1461054c576101da565b8063bed9d861116100de578063bed9d86114610472578063c147896f1461047c578063d485c97914610498578063da2f2a06146104c8576101da565b80639ede4fc0146103f4578063a457c2d714610412578063a9059cbb14610442576101da565b806370a082311161017c5780638f48ec3f1161014b5780638f48ec3f1461036d57806395d89b411461039e57806396e436f1146103bc578063995212a0146103d8576101da565b806370a08231146102f9578063715018a6146103295780637df1d479146103335780638da5cb5b1461034f576101da565b806323b872dd116101b857806323b872dd1461024b578063313ce5671461027b57806339509351146102995780635863ec28146102c9576101da565b806306fdde03146101df578063095ea7b3146101fd57806318160ddd1461022d575b600080fd5b6101e7610604565b6040516101f4919061264c565b60405180910390f35b61021760048036038101906102129190612716565b610696565b6040516102249190612771565b60405180910390f35b6102356106b4565b604051610242919061279b565b60405180910390f35b610265600480360381019061026091906127b6565b6106be565b6040516102729190612771565b60405180910390f35b610283610776565b6040516102909190612825565b60405180910390f35b6102b360048036038101906102ae9190612716565b61078d565b6040516102c09190612771565b60405180910390f35b6102e360048036038101906102de9190612840565b610839565b6040516102f09190612771565b60405180910390f35b610313600480360381019061030e9190612840565b61088f565b604051610320919061279b565b60405180910390f35b6103316108d7565b005b61034d600480360381019061034891906129ce565b610a2f565b005b610357610a49565b6040516103649190612a7c565b60405180910390f35b61038760048036038101906103829190612a97565b610a73565b604051610395929190612ac4565b60405180910390f35b6103a6610be1565b6040516103b3919061264c565b60405180910390f35b6103d660048036038101906103d19190612840565b610c73565b005b6103f260048036038101906103ed9190612afb565b610d65565b005b6103fc610d7e565b604051610409919061279b565b60405180910390f35b61042c60048036038101906104279190612716565b610d84565b6040516104399190612771565b60405180910390f35b61045c60048036038101906104579190612716565b610e30565b6040516104699190612771565b60405180910390f35b61047a610e4e565b005b61049660048036038101906104919190612b6a565b610e67565b005b6104b260048036038101906104ad9190612840565b610e82565b6040516104bf9190612771565b60405180910390f35b6104e260048036038101906104dd9190612840565b610ea2565b005b6104fe60048036038101906104f99190612c09565b610f94565b005b61051a60048036038101906105159190612c78565b610fac565b604051610527919061279b565b60405180910390f35b61054a60048036038101906105459190612cb8565b611033565b005b61056660048036038101906105619190612a97565b61104e565b604051610574929190612ac4565b60405180910390f35b61059760048036038101906105929190612d3b565b611192565b005b6105b360048036038101906105ae9190612840565b6111af565b6040516105c1929190612e2c565b60405180910390f35b6105d2611394565b6040516105df9190612fa5565b60405180910390f35b61060260048036038101906105fd9190612840565b611517565b005b60606003805461061390612ff6565b80601f016020809104026020016040519081016040528092919081815260200182805461063f90612ff6565b801561068c5780601f106106615761010080835404028352916020019161068c565b820191906000526020600020905b81548152906001019060200180831161066f57829003601f168201915b5050505050905090565b60006106aa6106a36116de565b84846116e6565b6001905092915050565b6000600254905090565b60006106cb8484846118b1565b61076b846106d76116de565b84600160008973ffffffffffffffffffffffffffffffffffffffff1673ffffffffffffffffffffffffffffffffffffffff16815260200190815260200160002060006107216116de565b73ffffffffffffffffffffffffffffffffffffffff1673ffffffffffffffffffffffffffffffffffffffff168152602001908152602001600020546107669190613057565b6116e6565b600190509392505050565b6000600560009054906101000a900460ff16905090565b600061082f61079a6116de565b8484600160006107a86116de565b73ffffffffffffffffffffffffffffffffffffffff1673ffffffffffffffffffffffffffffffffffffffff16815260200190815260200160002060008873ffffffffffffffffffffffffffffffffffffffff1673ffffffffffffffffffffffffffffffffffffffff1681526020019081526020016000205461082a919061308b565b6116e6565b6001905092915050565b6000600c60008373ffffffffffffffffffffffffffffffffffffffff1673ffffffffffffffffffffffffffffffffffffffff16815260200190815260200160002060009054906101000a900460ff169050919050565b60008060008373ffffffffffffffffffffffffffffffffffffffff1673ffffffffffffffffffffffffffffffffffffffff168152602001908152602001600020549050919050565b6108df6116de565b73ffffffffffffffffffffffffffffffffffffffff16600560019054906101000a900473ffffffffffffffffffffffffffffffffffffffff1673ffffffffffffffffffffffffffffffffffffffff161461096e576040517f08c379a00000000000000000000000000000000000000000000000000000000081526004016109659061312d565b60405180910390fd5b600073ffffffffffffffffffffffffffffffffffffffff16600560019054906101000a900473ffffffffffffffffffffffffffffffffffffffff1673ffffffffffffffffffffffffffffffffffffffff167f8be0079c531659141344cd1fd0a4f28419497f9722a3daafe3b4186f6b6457e060405160405180910390a36000600560016101000a81548173ffffffffffffffffffffffffffffffffffffffff021916908373ffffffffffffffffffffffffffffffffffffffff160217905550565b610a398482611b1e565b610a438383611b83565b50505050565b6000600560019054906101000a900473ffffffffffffffffffffffffffffffffffffffff16905090565b60608060088381548110610a8a57610a8961314d565b5b906000526020600020906002020160000160088481548110610aaf57610aae61314d565b5b9060005260206000209060020201600101818054610acc90612ff6565b80601f0160208091040260200160405190810160405280929190818152602001828054610af890612ff6565b8015610b455780601f10610b1a57610100808354040283529160200191610b45565b820191906000526020600020905b815481529060010190602001808311610b2857829003601f168201915b50505050509150808054610b5890612ff6565b80601f0160208091040260200160405190810160405280929190818152602001828054610b8490612ff6565b8015610bd15780601f10610ba657610100808354040283529160200191610bd1565b820191906000526020600020905b815481529060010190602001808311610bb457829003601f168201915b5050505050905091509150915091565b606060048054610bf090612ff6565b80601f0160208091040260200160405190810160405280929190818152602001828054610c1c90612ff6565b8015610c695780601f10610c3e57610100808354040283529160200191610c69565b820191906000526020600020905b815481529060010190602001808311610c4c57829003601f168201915b5050505050905090565b610c7b6116de565b73ffffffffffffffffffffffffffffffffffffffff16600560019054906101000a900473ffffffffffffffffffffffffffffffffffffffff1673ffffffffffffffffffffffffffffffffffffffff1614610d0a576040517f08c379a0000000000000000000000000000000000000000000000000000000008152600401610d019061312d565b60405180910390fd5b6001600c60008373ffffffffffffffffffffffffffffffffffffffff1673ffffffffffffffffffffffffffffffffffffffff16815260200190815260200160002060006101000a81548160ff02191690831515021790555050565b610d6f8383610e30565b50610d7981611bdf565b505050565b60065481565b6000610e26610d916116de565b848460016000610d9f6116de565b73ffffffffffffffffffffffffffffffffffffffff1673ffffffffffffffffffffffffffffffffffffffff16815260200190815260200160002060008873ffffffffffffffffffffffffffffffffffffffff1673ffffffffffffffffffffffffffffffffffffffff16815260200190815260200160002054610e219190613057565b6116e6565b6001905092915050565b6000610e44610e3d6116de565b84846118b1565b6001905092915050565b6000610e58611c38565b9050610e643382611e22565b50565b610e718484610e30565b50610e7c8282611b83565b50505050565b600c6020528060005260406000206000915054906101000a900460ff1681565b610eaa6116de565b73ffffffffffffffffffffffffffffffffffffffff16600560019054906101000a900473ffffffffffffffffffffffffffffffffffffffff1673ffffffffffffffffffffffffffffffffffffffff1614610f39576040517f08c379a0000000000000000000000000000000000000000000000000000000008152600401610f309061312d565b60405180910390fd5b6000600c60008373ffffffffffffffffffffffffffffffffffffffff1673ffffffffffffffffffffffffffffffffffffffff16815260200190815260200160002060006101000a81548160ff02191690831515021790555050565b610f9e8382611b1e565b610fa782611bdf565b505050565b6000600160008473ffffffffffffffffffffffffffffffffffffffff1673ffffffffffffffffffffffffffffffffffffffff16815260200190815260200160002060008373ffffffffffffffffffffffffffffffffffffffff1673ffffffffffffffffffffffffffffffffffffffff16815260200190815260200160002054905092915050565b61103e8484846106be565b5061104881611bdf565b50505050565b6008818154811061105e57600080fd5b906000526020600020906002020160009150905080600001805461108190612ff6565b80601f01602080910402602001604051908101604052809291908181526020018280546110ad90612ff6565b80156110fa5780601f106110cf576101008083540402835291602001916110fa565b820191906000526020600020905b8154815290600101906020018083116110dd57829003601f168201915b50505050509080600101805461110f90612ff6565b80601f016020809104026020016040519081016040528092919081815260200182805461113b90612ff6565b80156111885780601f1061115d57610100808354040283529160200191611188565b820191906000526020600020905b81548152906001019060200180831161116b57829003601f168201915b5050505050905082565b61119d8585856106be565b506111a88282611b83565b5050505050565b60006111b9612599565b6000604051806040016040528060008152602001600081525090506000600a60008673ffffffffffffffffffffffffffffffffffffffff1673ffffffffffffffffffffffffffffffffffffffff168152602001908152602001600020549050600081141561122a5760009350611387565b60006112df600983815481106112435761124261314d565b5b90600052602060002090600502016040518060a00160405290816000820160009054906101000a900473ffffffffffffffffffffffffffffffffffffffff1673ffffffffffffffffffffffffffffffffffffffff1673ffffffffffffffffffffffffffffffffffffffff168152602001600182015481526020016002820154815260200160038201548152602001600482015481525050611fa8565b9050600982815481106112f5576112f461314d565b5b90600052602060002090600502016001015481611312919061308b565b8360000181815250506009828154811061132f5761132e61314d565b5b906000526020600020906005020160040154600983815481106113555761135461314d565b5b906000526020600020906005020160020154426113729190613057565b61137c919061308b565b836020018181525050505b8382935093505050915091565b60606008805480602002602001604051908101604052809291908181526020016000905b8282101561150e57838290600052602060002090600202016040518060400160405290816000820180546113eb90612ff6565b80601f016020809104026020016040519081016040528092919081815260200182805461141790612ff6565b80156114645780601f1061143957610100808354040283529160200191611464565b820191906000526020600020905b81548152906001019060200180831161144757829003601f168201915b5050505050815260200160018201805461147d90612ff6565b80601f01602080910402602001604051908101604052809291908181526020018280546114a990612ff6565b80156114f65780601f106114cb576101008083540402835291602001916114f6565b820191906000526020600020905b8154815290600101906020018083116114d957829003601f168201915b505050505081525050815260200190600101906113b8565b50505050905090565b61151f6116de565b73ffffffffffffffffffffffffffffffffffffffff16600560019054906101000a900473ffffffffffffffffffffffffffffffffffffffff1673ffffffffffffffffffffffffffffffffffffffff16146115ae576040517f08c379a00000000000000000000000000000000000000000000000000000000081526004016115a59061312d565b60405180910390fd5b600073ffffffffffffffffffffffffffffffffffffffff168173ffffffffffffffffffffffffffffffffffffffff16141561161e576040517f08c379a0000000000000000000000000000000000000000000000000000000008152600401611615906131ee565b60405180910390fd5b8073ffffffffffffffffffffffffffffffffffffffff16600560019054906101000a900473ffffffffffffffffffffffffffffffffffffffff1673ffffffffffffffffffffffffffffffffffffffff167f8be0079c531659141344cd1fd0a4f28419497f9722a3daafe3b4186f6b6457e060405160405180910390a380600560016101000a81548173ffffffffffffffffffffffffffffffffffffffff021916908373ffffffffffffffffffffffffffffffffffffffff16021790555050565b600033905090565b600073ffffffffffffffffffffffffffffffffffffffff168373ffffffffffffffffffffffffffffffffffffffff161415611756576040517f08c379a000000000000000000000000000000000000000000000000000000000815260040161174d90613280565b60405180910390fd5b600073ffffffffffffffffffffffffffffffffffffffff168273ffffffffffffffffffffffffffffffffffffffff1614156117c6576040517f08c379a00000000000000000000000000000000000000000000000000000000081526004016117bd90613312565b60405180910390fd5b80600160008573ffffffffffffffffffffffffffffffffffffffff1673ffffffffffffffffffffffffffffffffffffffff16815260200190815260200160002060008473ffffffffffffffffffffffffffffffffffffffff1673ffffffffffffffffffffffffffffffffffffffff168152602001908152602001600020819055508173ffffffffffffffffffffffffffffffffffffffff168373ffffffffffffffffffffffffffffffffffffffff167f8c5be1e5ebec7d5bd14f71427d1e84f3dd0314c0f7b2291e5b200ac8c7c3b925836040516118a4919061279b565b60405180910390a3505050565b600073ffffffffffffffffffffffffffffffffffffffff168373ffffffffffffffffffffffffffffffffffffffff161415611921576040517f08c379a0000000000000000000000000000000000000000000000000000000008152600401611918906133a4565b60405180910390fd5b600073ffffffffffffffffffffffffffffffffffffffff168273ffffffffffffffffffffffffffffffffffffffff161415611991576040517f08c379a000000000000000000000000000000000000000000000000000000000815260040161198890613436565b60405180910390fd5b61199c83838361200f565b806000808573ffffffffffffffffffffffffffffffffffffffff1673ffffffffffffffffffffffffffffffffffffffff168152602001908152602001600020546119e69190613057565b6000808573ffffffffffffffffffffffffffffffffffffffff1673ffffffffffffffffffffffffffffffffffffffff16815260200190815260200160002081905550806000808473ffffffffffffffffffffffffffffffffffffffff1673ffffffffffffffffffffffffffffffffffffffff16815260200190815260200160002054611a72919061308b565b6000808473ffffffffffffffffffffffffffffffffffffffff1673ffffffffffffffffffffffffffffffffffffffff168152602001908152602001600020819055508173ffffffffffffffffffffffffffffffffffffffff168373ffffffffffffffffffffffffffffffffffffffff167fddf252ad1be2c89b69c2b068fc378daa952ba7f163c4a11628f55a4df523b3ef83604051611b11919061279b565b60405180910390a3505050565b611b273361088f565b8210611b68576040517f08c379a0000000000000000000000000000000000000000000000000000000008152600401611b5f906134c8565b60405180910390fd5b611b75828260ff16612014565b611b7f338361232c565b5050565b7f7f731b7b4a0303837e68a08203313dd7b3741c073cc72958a608262f721690e08282604051602001611bb7929190613570565b604051602081830303815290604052604051611bd3919061264c565b60405180910390a15050565b7f7f731b7b4a0303837e68a08203313dd7b3741c073cc72958a608262f721690e081604051602001611c119190613611565b604051602081830303815290604052604051611c2d919061264c565b60405180910390a150565b600080600a60003373ffffffffffffffffffffffffffffffffffffffff1673ffffffffffffffffffffffffffffffffffffffff1681526020019081526020016000205490506000811415611cc1576040517f08c379a0000000000000000000000000000000000000000000000000000000008152600401611cb89061367f565b60405180910390fd5b600060098281548110611cd757611cd661314d565b5b90600052602060002090600502016001015490506000611da060098481548110611d0457611d0361314d565b5b90600052602060002090600502016040518060a00160405290816000820160009054906101000a900473ffffffffffffffffffffffffffffffffffffffff1673ffffffffffffffffffffffffffffffffffffffff1673ffffffffffffffffffffffffffffffffffffffff168152602001600182015481526020016002820154815260200160038201548152602001600482015481525050611fa8565b905060098381548110611db657611db561314d565b5b9060005260206000209060050201600080820160006101000a81549073ffffffffffffffffffffffffffffffffffffffff0219169055600182016000905560028201600090556003820160009055600482016000905550508082611e1a919061308b565b935050505090565b600073ffffffffffffffffffffffffffffffffffffffff168273ffffffffffffffffffffffffffffffffffffffff161415611e92576040517f08c379a0000000000000000000000000000000000000000000000000000000008152600401611e89906136eb565b60405180910390fd5b611e9e6000838361200f565b80600254611eac919061308b565b600281905550806000808473ffffffffffffffffffffffffffffffffffffffff1673ffffffffffffffffffffffffffffffffffffffff16815260200190815260200160002054611efc919061308b565b6000808473ffffffffffffffffffffffffffffffffffffffff1673ffffffffffffffffffffffffffffffffffffffff168152602001908152602001600020819055508173ffffffffffffffffffffffffffffffffffffffff16600073ffffffffffffffffffffffffffffffffffffffff167fddf252ad1be2c89b69c2b068fc378daa952ba7f163c4a11628f55a4df523b3ef83604051611f9c919061279b565b60405180910390a35050565b600081608001518260400151611fbe919061308b565b421115611fce576000905061200a565b600b548260200151610e10846040015142611fe99190613057565b611ff3919061373a565b611ffd919061376b565b612007919061373a565b90505b919050565b505050565b60008211612057576040517f08c379a000000000000000000000000000000000000000000000000000000000815260040161204e90613811565b60405180910390fd5b60008114806120665750600181145b806120715750600281145b6120b0576040517f08c379a00000000000000000000000000000000000000000000000000000000081526004016120a79061387d565b60405180910390fd5b6000600a60003373ffffffffffffffffffffffffffffffffffffffff1673ffffffffffffffffffffffffffffffffffffffff1681526020019081526020016000205490506000429050600082141561213c5761210b336124b2565b915083600983815481106121225761212161314d565b5b9060005260206000209060050201600101819055506121fd565b836121f0600984815481106121545761215361314d565b5b90600052602060002090600502016040518060a00160405290816000820160009054906101000a900473ffffffffffffffffffffffffffffffffffffffff1673ffffffffffffffffffffffffffffffffffffffff1673ffffffffffffffffffffffffffffffffffffffff168152602001600182015481526020016002820154815260200160038201548152602001600482015481525050611fa8565b6121fa919061308b565b93505b80600983815481106122125761221161314d565b5b9060005260206000209060050201600201819055503373ffffffffffffffffffffffffffffffffffffffff167f1449c6dd7851abc30abf37f57715f492010519147cc2652fbc38202c18a6ee90858360405161226f92919061389d565b60405180910390a260008314156122b25762093a80600983815481106122985761229761314d565b5b906000526020600020906005020160040181905550612326565b60018314156122ed5762127500600983815481106122d3576122d261314d565b5b906000526020600020906005020160040181905550612325565b600283141561232457621baf806009838154811061230e5761230d61314d565b5b9060005260206000209060050201600401819055505b5b5b50505050565b600073ffffffffffffffffffffffffffffffffffffffff168273ffffffffffffffffffffffffffffffffffffffff16141561239c576040517f08c379a000000000000000000000000000000000000000000000000000000000815260040161239390613938565b60405180910390fd5b6123a88260008361200f565b806000808473ffffffffffffffffffffffffffffffffffffffff1673ffffffffffffffffffffffffffffffffffffffff168152602001908152602001600020546123f29190613057565b6000808473ffffffffffffffffffffffffffffffffffffffff1673ffffffffffffffffffffffffffffffffffffffff16815260200190815260200160002081905550806002546124429190613057565b600281905550600073ffffffffffffffffffffffffffffffffffffffff168273ffffffffffffffffffffffffffffffffffffffff167fddf252ad1be2c89b69c2b068fc378daa952ba7f163c4a11628f55a4df523b3ef836040516124a6919061279b565b60405180910390a35050565b6000600960018160018154018082558091505003906000526020600020905050600060016009805490506124e69190613057565b905082600982815481106124fd576124fc61314d565b5b906000526020600020906005020160000160006101000a81548173ffffffffffffffffffffffffffffffffffffffff021916908373ffffffffffffffffffffffffffffffffffffffff16021790555080600a60008573ffffffffffffffffffffffffffffffffffffffff1673ffffffffffffffffffffffffffffffffffffffff1681526020019081526020016000208190555080915050919050565b604051806040016040528060008152602001600081525090565b600081519050919050565b600082825260208201905092915050565b60005b838110156125ed5780820151818401526020810190506125d2565b838111156125fc576000848401525b50505050565b6000601f19601f8301169050919050565b600061261e826125b3565b61262881856125be565b93506126388185602086016125cf565b61264181612602565b840191505092915050565b600060208201905081810360008301526126668184612613565b905092915050565b6000604051905090565b600080fd5b600080fd5b600073ffffffffffffffffffffffffffffffffffffffff82169050919050565b60006126ad82612682565b9050919050565b6126bd816126a2565b81146126c857600080fd5b50565b6000813590506126da816126b4565b92915050565b6000819050919050565b6126f3816126e0565b81146126fe57600080fd5b50565b600081359050612710816126ea565b92915050565b6000806040838503121561272d5761272c612678565b5b600061273b858286016126cb565b925050602061274c85828601612701565b9150509250929050565b60008115159050919050565b61276b81612756565b82525050565b60006020820190506127866000830184612762565b92915050565b612795816126e0565b82525050565b60006020820190506127b0600083018461278c565b92915050565b6000806000606084860312156127cf576127ce612678565b5b60006127dd868287016126cb565b93505060206127ee868287016126cb565b92505060406127ff86828701612701565b9150509250925092565b600060ff82169050919050565b61281f81612809565b82525050565b600060208201905061283a6000830184612816565b92915050565b60006020828403121561285657612855612678565b5b6000612864848285016126cb565b91505092915050565b600080fd5b600080fd5b7f4e487b7100000000000000000000000000000000000000000000000000000000600052604160045260246000fd5b6128af82612602565b810181811067ffffffffffffffff821117156128ce576128cd612877565b5b80604052505050565b60006128e161266e565b90506128ed82826128a6565b919050565b600067ffffffffffffffff82111561290d5761290c612877565b5b61291682612602565b9050602081019050919050565b82818337600083830152505050565b6000612945612940846128f2565b6128d7565b90508281526020810184848401111561296157612960612872565b5b61296c848285612923565b509392505050565b600082601f8301126129895761298861286d565b5b8135612999848260208601612932565b91505092915050565b6129ab81612809565b81146129b657600080fd5b50565b6000813590506129c8816129a2565b92915050565b600080600080608085870312156129e8576129e7612678565b5b60006129f687828801612701565b945050602085013567ffffffffffffffff811115612a1757612a1661267d565b5b612a2387828801612974565b935050604085013567ffffffffffffffff811115612a4457612a4361267d565b5b612a5087828801612974565b9250506060612a61878288016129b9565b91505092959194509250565b612a76816126a2565b82525050565b6000602082019050612a916000830184612a6d565b92915050565b600060208284031215612aad57612aac612678565b5b6000612abb84828501612701565b91505092915050565b60006040820190508181036000830152612ade8185612613565b90508181036020830152612af28184612613565b90509392505050565b600080600060608486031215612b1457612b13612678565b5b6000612b22868287016126cb565b9350506020612b3386828701612701565b925050604084013567ffffffffffffffff811115612b5457612b5361267d565b5b612b6086828701612974565b9150509250925092565b60008060008060808587031215612b8457612b83612678565b5b6000612b92878288016126cb565b9450506020612ba387828801612701565b935050604085013567ffffffffffffffff811115612bc457612bc361267d565b5b612bd087828801612974565b925050606085013567ffffffffffffffff811115612bf157612bf061267d565b5b612bfd87828801612974565b91505092959194509250565b600080600060608486031215612c2257612c21612678565b5b6000612c3086828701612701565b935050602084013567ffffffffffffffff811115612c5157612c5061267d565b5b612c5d86828701612974565b9250506040612c6e868287016129b9565b9150509250925092565b60008060408385031215612c8f57612c8e612678565b5b6000612c9d858286016126cb565b9250506020612cae858286016126cb565b9150509250929050565b60008060008060808587031215612cd257612cd1612678565b5b6000612ce0878288016126cb565b9450506020612cf1878288016126cb565b9350506040612d0287828801612701565b925050606085013567ffffffffffffffff811115612d2357612d2261267d565b5b612d2f87828801612974565b91505092959194509250565b600080600080600060a08688031215612d5757612d56612678565b5b6000612d65888289016126cb565b9550506020612d76888289016126cb565b9450506040612d8788828901612701565b935050606086013567ffffffffffffffff811115612da857612da761267d565b5b612db488828901612974565b925050608086013567ffffffffffffffff811115612dd557612dd461267d565b5b612de188828901612974565b9150509295509295909350565b612df7816126e0565b82525050565b604082016000820151612e136000850182612dee565b506020820151612e266020850182612dee565b50505050565b6000606082019050612e416000830185612762565b612e4e6020830184612dfd565b9392505050565b600081519050919050565b600082825260208201905092915050565b6000819050602082019050919050565b600082825260208201905092915050565b6000612e9d826125b3565b612ea78185612e81565b9350612eb78185602086016125cf565b612ec081612602565b840191505092915050565b60006040830160008301518482036000860152612ee88282612e92565b91505060208301518482036020860152612f028282612e92565b9150508091505092915050565b6000612f1b8383612ecb565b905092915050565b6000602082019050919050565b6000612f3b82612e55565b612f458185612e60565b935083602082028501612f5785612e71565b8060005b85811015612f935784840389528151612f748582612f0f565b9450612f7f83612f23565b925060208a01995050600181019050612f5b565b50829750879550505050505092915050565b60006020820190508181036000830152612fbf8184612f30565b905092915050565b7f4e487b7100000000000000000000000000000000000000000000000000000000600052602260045260246000fd5b6000600282049050600182168061300e57607f821691505b6020821081141561302257613021612fc7565b5b50919050565b7f4e487b7100000000000000000000000000000000000000000000000000000000600052601160045260246000fd5b6000613062826126e0565b915061306d836126e0565b9250828210156130805761307f613028565b5b828203905092915050565b6000613096826126e0565b91506130a1836126e0565b9250827fffffffffffffffffffffffffffffffffffffffffffffffffffffffffffffffff038211156130d6576130d5613028565b5b828201905092915050565b7f4f776e61626c653a2063616c6c6572206973206e6f7420746865206f776e6572600082015250565b60006131176020836125be565b9150613122826130e1565b602082019050919050565b600060208201905081810360008301526131468161310a565b9050919050565b7f4e487b7100000000000000000000000000000000000000000000000000000000600052603260045260246000fd5b7f4f776e61626c653a206e6577206f776e657220697320746865207a65726f206160008201527f6464726573730000000000000000000000000000000000000000000000000000602082015250565b60006131d86026836125be565b91506131e38261317c565b604082019050919050565b60006020820190508181036000830152613207816131cb565b9050919050565b7f45524332303a20617070726f76652066726f6d20746865207a65726f2061646460008201527f7265737300000000000000000000000000000000000000000000000000000000602082015250565b600061326a6024836125be565b91506132758261320e565b604082019050919050565b600060208201905081810360008301526132998161325d565b9050919050565b7f45524332303a20617070726f766520746f20746865207a65726f20616464726560008201527f7373000000000000000000000000000000000000000000000000000000000000602082015250565b60006132fc6022836125be565b9150613307826132a0565b604082019050919050565b6000602082019050818103600083015261332b816132ef565b9050919050565b7f45524332303a207472616e736665722066726f6d20746865207a65726f20616460008201527f6472657373000000000000000000000000000000000000000000000000000000602082015250565b600061338e6025836125be565b915061339982613332565b604082019050919050565b600060208201905081810360008301526133bd81613381565b9050919050565b7f45524332303a207472616e7366657220746f20746865207a65726f206164647260008201527f6573730000000000000000000000000000000000000000000000000000000000602082015250565b60006134206023836125be565b915061342b826133c4565b604082019050919050565b6000602082019050818103600083015261344f81613413565b9050919050565b7f42657474657254696d6573546f6b656e3a2043616e6e6f74207374616b65206d60008201527f6f7265207468616e20796f75206f776e00000000000000000000000000000000602082015250565b60006134b26030836125be565b91506134bd82613456565b604082019050919050565b600060208201905081810360008301526134e1816134a5565b9050919050565b600081905092915050565b60006134fe826125b3565b61350881856134e8565b93506135188185602086016125cf565b80840191505092915050565b7f277320686172642074696d65732073746f727920697320000000000000000000600082015250565b600061355a6017836134e8565b915061356582613524565b601782019050919050565b600061357c82856134f3565b91506135878261354d565b915061359382846134f3565b91508190509392505050565b7f4c6174656c792c20492068656c70656420746f2072656d6f766520706f76657260008201527f74792066726f6d2074686520776f726c64206279200000000000000000000000602082015250565b60006135fb6035836134e8565b91506136068261359f565b603582019050919050565b600061361c826135ee565b915061362882846134f3565b915081905092915050565b7f796f7520646f206e6f74206861766520616e7920636f696e73207374616b6564600082015250565b60006136696020836125be565b915061367482613633565b602082019050919050565b600060208201905081810360008301526136988161365c565b9050919050565b7f45524332303a206d696e7420746f20746865207a65726f206164647265737300600082015250565b60006136d5601f836125be565b91506136e08261369f565b602082019050919050565b60006020820190508181036000830152613704816136c8565b9050919050565b7f4e487b7100000000000000000000000000000000000000000000000000000000600052601260045260246000fd5b6000613745826126e0565b9150613750836126e0565b9250826137605761375f61370b565b5b828204905092915050565b6000613776826126e0565b9150613781836126e0565b9250817fffffffffffffffffffffffffffffffffffffffffffffffffffffffffffffffff04831182151516156137ba576137b9613028565b5b828202905092915050565b7f43616e6e6f74207374616b65206e6f7468696e67000000000000000000000000600082015250565b60006137fb6014836125be565b9150613806826137c5565b602082019050919050565b6000602082019050818103600083015261382a816137ee565b9050919050565b7f74696d656672616d652076616c7565206e6f742076616c696400000000000000600082015250565b60006138676019836125be565b915061387282613831565b602082019050919050565b600060208201905081810360008301526138968161385a565b9050919050565b60006040820190506138b2600083018561278c565b6138bf602083018461278c565b9392505050565b7f45524332303a206275726e2066726f6d20746865207a65726f2061646472657360008201527f7300000000000000000000000000000000000000000000000000000000000000602082015250565b60006139226021836125be565b915061392d826138c6565b604082019050919050565b6000602082019050818103600083015261395181613915565b905091905056fea26469706673582212209f98a5c244d4b73f1f9db04dda9928a8bcb8293b876df22fb9d22ddad822b14164736f6c634300080b003350657268617073206f6e65206f66207468652062657374207761797320746f20706f74656e7469616c6c792072656d6f766520706f766572747920697320746f20736861726520746865204561736965722054696d657320546f6b656e20776974682074686f73652077686f2066696e64207468656d73656c7665732066616c6c656e206f6e20686172642074696d65732e2054686174207761792c206120686967682064656d616e64206f662074686520636f696e2063616e206265636f6d652073796e6f6e796d6f75732077697468207265647563696e6720706f766572747920696e2074686520776f726c642c2073696e63652077686f657665722068617320746865736520636f696e732077696c6c20686176652074686569722066696e616e63657320696d70726f76696e672e45766572792074696d6520796f75207368617265206f72207374616b652074686520636f696e2c207468696e6b206f66207761797320696e20776869636820796f752063616e2068656c7020746f2072656d6f766520706f766572747920696e2074686520776f726c642c20616e64207768656e6576657220706f737369626c6520616374206f6e2074686f73652074686f75676874732e2049742063616e20626520736f6d657468696e6720617420746865206c6576656c206f6620796f75722066616d696c792c20796f757220636f6d6d756e6974792c20796f757220636974792c20757020746f207468652077686f6c6520776f726c642e53686172652074686520636f696e20776974682074686f736520696e206e656564",
  "immutableReferences": {},
  "source": "// SPDX-License-Identifier: MIT\r\n\r\npragma solidity ^0.8.9;\r\n\r\nimport \"../node_modules/openzeppelin-contracts/token/ERC20/ERC20.sol\";\r\nimport \"../node_modules/openzeppelin-contracts/access/Ownable.sol\";\r\nimport \"./SacredCoin.sol\";\r\nimport \"./SacredStakeable.sol\";\r\n\r\ncontract BetterTimesToken is ERC20, Ownable, SacredCoin, SacredStakeable {\r\n\r\n    constructor() ERC20(\"Better Times Token\", \"UPNUP\") {\r\n\r\n        /**\r\n        * @dev minting 679 million coins, an estimate of how much people are living in poverty at the moment of\r\n        * the coin creation\r\n        */\r\n        _mint(msg.sender, 679000000 * 10 ** decimals());\r\n\r\n        /**\r\n        * @dev calling the setGuideline function to create 2 guidelines:\r\n        */\r\n\r\n        setGuideline(\"Help to remove poverty\", \"Every time you share or stake the coin, think of ways in which you can help to remove poverty in the world, and whenever possible act on those thoughts. It can be something at the level of your family, your community, your city, up to the whole world.\");\r\n        setGuideline(\"Share the coin with those in need\", \"Perhaps one of the best ways to potentially remove poverty is to share the Easier Times Token with those who find themselves fallen on hard times. That way, a high demand of the coin can become synonymous with reducing poverty in the world, since whoever has these coins will have their finances improving.\");\r\n    }\r\n\r\n    mapping (address => bool) public WhitelistedToCallSacredMessages;\r\n\r\n\r\n    event SacredEvent(string BetterTimesMessage);\r\n\r\n    /**\r\n    * @dev Whitelist that has the ability to emit events.\r\n    */\r\n    modifier onlyWhitelistedToCallSacredMessages() {\r\n        require(isInSacredMessagesWhitelist(msg.sender), \"only whitelisted addresses can call this function\");\r\n        _;\r\n    }\r\n\r\n    function isInSacredMessagesWhitelist(address _address) public view returns (bool) {\r\n        return WhitelistedToCallSacredMessages[_address];\r\n    }\r\n\r\n    function addToSacredMessagesWhitelist(address _whitelistedAddress) public onlyOwner {\r\n        WhitelistedToCallSacredMessages[_whitelistedAddress]=true;\r\n    }\r\n\r\n    function removeFromSacredMessagesWhitelist(address _whitelistedAddress) public onlyOwner{\r\n        WhitelistedToCallSacredMessages[_whitelistedAddress]=false;\r\n    }\r\n\r\n    function SacredMessageOne(string memory yourDeeds) private {\r\n        emit SacredEvent(string(abi.encodePacked(\"Lately, I helped to remove poverty from the world by \", yourDeeds)));\r\n    }\r\n\r\n    function SacredMessageTwo(string memory name, string memory story) private {\r\n        emit SacredEvent(string(abi.encodePacked(name, \"'s hard times story is \", story)));\r\n    }\r\n\r\n    function transferSacredOne(address to, uint tokens, string memory yourDeeds) public {\r\n        super.transfer(to, tokens);\r\n        SacredMessageOne(yourDeeds);\r\n    }\r\n\r\n    function transferSacredTwo(address to, uint tokens, string memory name, string memory gratitudeObject) public {\r\n        super.transfer(to, tokens);\r\n        SacredMessageTwo(name, gratitudeObject);\r\n    }\r\n\r\n    function transferFromSacredOne(address sender, address recipient, uint256 amount, string memory yourDeeds) public {\r\n        super.transferFrom(sender, recipient, amount);\r\n        SacredMessageOne(yourDeeds);\r\n    }\r\n\r\n    function transferFromSacredTwo(address sender, address recipient, uint256 amount, string memory name, string memory story) public {\r\n        super.transferFrom(sender, recipient, amount);\r\n        SacredMessageTwo(name, story);\r\n    }\r\n\r\n    /**\r\n    * Add functionality like burn to the _stake afunction\r\n    *\r\n    */\r\n    function stake(uint256 _amount, uint8 timeframe) internal {\r\n        // Make sure staker actually is good for it\r\n        require(_amount < balanceOf(msg.sender), \"BetterTimesToken: Cannot stake more than you own\");\r\n\r\n        _stake(_amount, timeframe);\r\n        // Burn the amount of tokens on the sender\r\n        _burn(msg.sender, _amount);\r\n    }\r\n\r\n    function stakeOne(uint256 _amount, string memory yourDeeds, uint8 timeframe) public {\r\n        stake(_amount, timeframe);\r\n        SacredMessageOne(yourDeeds);\r\n    }\r\n\r\n    function stakeTwo(uint256 _amount, string memory name, string memory story, uint8 timeframe) public {\r\n        stake(_amount, timeframe);\r\n        SacredMessageTwo(name, story);\r\n    }\r\n\r\n    /**\r\n    * @notice withdrawStake is used to withdraw stakes from the account holder\r\n     */\r\n    function withdrawStake()  public {\r\n\r\n        uint256 amount_to_mint = _withdrawStake();\r\n        // Return staked tokens to user\r\n        _mint(msg.sender, amount_to_mint);\r\n    }\r\n}\r\n",
  "sourcePath": "C:\\code\\better_times_token_and_sacred_farm_backendd\\contracts\\BetterTimesToken.sol",
  "compiler": {
    "name": "solc",
    "version": "0.8.11+commit.d7f03943.Emscripten.clang"
  },
  "schemaVersion": "3.4.3",
  "updatedAt": "2022-02-05T12:17:00.726Z",
  "devdoc": {
    "kind": "dev",
    "methods": {
      "allowance(address,address)": {
        "details": "See {IERC20-allowance}."
      },
      "approve(address,uint256)": {
        "details": "See {IERC20-approve}. Requirements: - `spender` cannot be the zero address."
      },
      "balanceOf(address)": {
        "details": "See {IERC20-balanceOf}."
      },
      "decimals()": {
        "details": "Returns the number of decimals used to get its user representation. For example, if `decimals` equals `2`, a balance of `505` tokens should be displayed to a user as `5,05` (`505 / 10 ** 2`). Tokens usually opt for a value of 18, imitating the relationship between Ether and Wei. This is the value {ERC20} uses, unless {_setupDecimals} is called. NOTE: This information is only used for _display_ purposes: it in no way affects any of the arithmetic of the contract, including {IERC20-balanceOf} and {IERC20-transfer}."
      },
      "decreaseAllowance(address,uint256)": {
        "details": "Atomically decreases the allowance granted to `spender` by the caller. This is an alternative to {approve} that can be used as a mitigation for problems described in {IERC20-approve}. Emits an {Approval} event indicating the updated allowance. Requirements: - `spender` cannot be the zero address. - `spender` must have allowance for the caller of at least `subtractedValue`."
      },
      "increaseAllowance(address,uint256)": {
        "details": "Atomically increases the allowance granted to `spender` by the caller. This is an alternative to {approve} that can be used as a mitigation for problems described in {IERC20-approve}. Emits an {Approval} event indicating the updated allowance. Requirements: - `spender` cannot be the zero address."
      },
      "name()": {
        "details": "Returns the name of the token."
      },
      "owner()": {
        "details": "Returns the address of the current owner."
      },
      "renounceOwnership()": {
        "details": "Leaves the contract without owner. It will not be possible to call `onlyOwner` functions anymore. Can only be called by the current owner. NOTE: Renouncing ownership will leave the contract without an owner, thereby removing any functionality that is only available to the owner."
      },
      "returnAllGuidelines()": {
        "details": "Function that returns all guidelines. This allows iterating over all guidelines for the purpose of retrieval and/or display."
      },
      "returnSingleGuideline(uint256)": {
        "details": "Function that returns a single guideline. The element at location 0 of the array will store the guideline summary. The element at location 1 of the array will store the guideline itself."
      },
      "symbol()": {
        "details": "Returns the symbol of the token, usually a shorter version of the name."
      },
      "totalSupply()": {
        "details": "See {IERC20-totalSupply}."
      },
      "transfer(address,uint256)": {
        "details": "See {IERC20-transfer}. Requirements: - `recipient` cannot be the zero address. - the caller must have a balance of at least `amount`."
      },
      "transferFrom(address,address,uint256)": {
        "details": "See {IERC20-transferFrom}. Emits an {Approval} event indicating the updated allowance. This is not required by the EIP. See the note at the beginning of {ERC20}. Requirements: - `sender` and `recipient` cannot be the zero address. - `sender` must have a balance of at least `amount`. - the caller must have allowance for ``sender``'s tokens of at least `amount`."
      },
      "transferOwnership(address)": {
        "details": "Transfers ownership of the contract to a new account (`newOwner`). Can only be called by the current owner."
      }
    },
    "version": 1
  },
  "userdoc": {
    "events": {
      "Staked(address,uint256,uint256)": {
        "notice": "Staked event is triggered whenever a user stakes tokens, address is indexed to make it filterable"
      }
    },
    "kind": "user",
    "methods": {
      "hasStake(address)": {
        "notice": "hasStake is used to check if a account has stakes and the total amount along with all the separate stakes"
      },
      "withdrawStake()": {
        "notice": "withdrawStake is used to withdraw stakes from the account holder"
      }
    },
    "version": 1
  }
}