{
  "contractName": "SacredCoin",
  "abi": [
    {
      "anonymous": false,
      "inputs": [
        {
          "indexed": false,
          "internalType": "string",
          "name": "guidelineSummary",
          "type": "string"
        },
        {
          "indexed": false,
          "internalType": "string",
          "name": "guideline",
          "type": "string"
        }
      ],
      "name": "GuidelineCreated",
      "type": "event"
    },
    {
      "inputs": [
        {
          "internalType": "uint256",
          "name": "",
          "type": "uint256"
        }
      ],
      "name": "guidelines",
      "outputs": [
        {
          "internalType": "string",
          "name": "summary",
          "type": "string"
        },
        {
          "internalType": "string",
          "name": "guideline",
          "type": "string"
        }
      ],
      "stateMutability": "view",
      "type": "function"
    },
    {
      "inputs": [],
      "name": "numberOfGuidelines",
      "outputs": [
        {
          "internalType": "uint256",
          "name": "",
          "type": "uint256"
        }
      ],
      "stateMutability": "view",
      "type": "function"
    },
    {
      "inputs": [
        {
          "internalType": "uint256",
          "name": "_index",
          "type": "uint256"
        }
      ],
      "name": "returnSingleGuideline",
      "outputs": [
        {
          "internalType": "string",
          "name": "",
          "type": "string"
        },
        {
          "internalType": "string",
          "name": "",
          "type": "string"
        }
      ],
      "stateMutability": "view",
      "type": "function"
    },
    {
      "inputs": [],
      "name": "returnAllGuidelines",
      "outputs": [
        {
          "components": [
            {
              "internalType": "string",
              "name": "summary",
              "type": "string"
            },
            {
              "internalType": "string",
              "name": "guideline",
              "type": "string"
            }
          ],
          "internalType": "struct SacredCoin.Guideline[]",
          "name": "",
          "type": "tuple[]"
        }
      ],
      "stateMutability": "view",
      "type": "function"
    }
  ],
  "bytecode": "0x608060405234801561001057600080fd5b506108c4806100206000396000f3fe608060405234801561001057600080fd5b506004361061004c5760003560e01c80638f48ec3f146100515780639ede4fc014610082578063e2bff3ba146100a0578063f2409e67146100d1575b600080fd5b61006b60048036038101906100669190610565565b6100ef565b60405161007992919061062b565b60405180910390f35b61008a61025d565b6040516100979190610671565b60405180910390f35b6100ba60048036038101906100b59190610565565b610263565b6040516100c892919061062b565b60405180910390f35b6100d96103a7565b6040516100e691906107dc565b60405180910390f35b60608060028381548110610106576101056107fe565b5b90600052602060002090600202016000016002848154811061012b5761012a6107fe565b5b90600052602060002090600202016001018180546101489061085c565b80601f01602080910402602001604051908101604052809291908181526020018280546101749061085c565b80156101c15780601f10610196576101008083540402835291602001916101c1565b820191906000526020600020905b8154815290600101906020018083116101a457829003601f168201915b505050505091508080546101d49061085c565b80601f01602080910402602001604051908101604052809291908181526020018280546102009061085c565b801561024d5780601f106102225761010080835404028352916020019161024d565b820191906000526020600020905b81548152906001019060200180831161023057829003601f168201915b5050505050905091509150915091565b60005481565b6002818154811061027357600080fd5b90600052602060002090600202016000915090508060000180546102969061085c565b80601f01602080910402602001604051908101604052809291908181526020018280546102c29061085c565b801561030f5780601f106102e45761010080835404028352916020019161030f565b820191906000526020600020905b8154815290600101906020018083116102f257829003601f168201915b5050505050908060010180546103249061085c565b80601f01602080910402602001604051908101604052809291908181526020018280546103509061085c565b801561039d5780601f106103725761010080835404028352916020019161039d565b820191906000526020600020905b81548152906001019060200180831161038057829003601f168201915b5050505050905082565b60606002805480602002602001604051908101604052809291908181526020016000905b8282101561052157838290600052602060002090600202016040518060400160405290816000820180546103fe9061085c565b80601f016020809104026020016040519081016040528092919081815260200182805461042a9061085c565b80156104775780601f1061044c57610100808354040283529160200191610477565b820191906000526020600020905b81548152906001019060200180831161045a57829003601f168201915b505050505081526020016001820180546104909061085c565b80601f01602080910402602001604051908101604052809291908181526020018280546104bc9061085c565b80156105095780601f106104de57610100808354040283529160200191610509565b820191906000526020600020905b8154815290600101906020018083116104ec57829003601f168201915b505050505081525050815260200190600101906103cb565b50505050905090565b600080fd5b6000819050919050565b6105428161052f565b811461054d57600080fd5b50565b60008135905061055f81610539565b92915050565b60006020828403121561057b5761057a61052a565b5b600061058984828501610550565b91505092915050565b600081519050919050565b600082825260208201905092915050565b60005b838110156105cc5780820151818401526020810190506105b1565b838111156105db576000848401525b50505050565b6000601f19601f8301169050919050565b60006105fd82610592565b610607818561059d565b93506106178185602086016105ae565b610620816105e1565b840191505092915050565b6000604082019050818103600083015261064581856105f2565b9050818103602083015261065981846105f2565b90509392505050565b61066b8161052f565b82525050565b60006020820190506106866000830184610662565b92915050565b600081519050919050565b600082825260208201905092915050565b6000819050602082019050919050565b600082825260208201905092915050565b60006106d482610592565b6106de81856106b8565b93506106ee8185602086016105ae565b6106f7816105e1565b840191505092915050565b6000604083016000830151848203600086015261071f82826106c9565b9150506020830151848203602086015261073982826106c9565b9150508091505092915050565b60006107528383610702565b905092915050565b6000602082019050919050565b60006107728261068c565b61077c8185610697565b93508360208202850161078e856106a8565b8060005b858110156107ca57848403895281516107ab8582610746565b94506107b68361075a565b925060208a01995050600181019050610792565b50829750879550505050505092915050565b600060208201905081810360008301526107f68184610767565b905092915050565b7f4e487b7100000000000000000000000000000000000000000000000000000000600052603260045260246000fd5b7f4e487b7100000000000000000000000000000000000000000000000000000000600052602260045260246000fd5b6000600282049050600182168061087457607f821691505b602082108114156108885761088761082d565b5b5091905056fea2646970667358221220074d3f19a2fb796807f6922361ce97d986693f467cd56e38037d48dd979210d064736f6c634300080b0033",
  "immutableReferences": {},
  "source": "// SPDX-License-Identifier: MIT\r\n// Sacred Coin Protocol v0.1.0\r\n\r\npragma solidity ^0.8.9;\r\n\r\n/**\r\n * @title Sacred Coin Protocol v0.1.0\r\n *\r\n * @dev A protocol to build an ERC20 token that allows for the creation of guidelines,\r\n * or recommendations on how to use the coin that are intended for the those who interact with it.\r\n *\r\n * Works in conjunction with an ERC20 implementation, such as the OpenZeppelin ERC20 contract.\r\n *\r\n * To understand the philosophy behind it, visit:\r\n * https://sacredcoinprotocol.com\r\n *\r\n * To see examples on how to use this contract go to the GitHub page:\r\n * https://github.com/tokenosopher/sacred-coin-protocol\r\n *\r\n */\r\n\r\ncontract SacredCoin {\r\n\r\n    uint public numberOfGuidelines;\r\n\r\n    /**\r\n    * @dev A string that holds all of the guidelines, for easy retrieval.\r\n    */\r\n    string [] private mergedGuidelines;\r\n\r\n    /**\r\n    * @dev The Guideline struct. Each guideline wil be stored in one.\r\n    */\r\n    struct Guideline {\r\n        string summary;\r\n        string guideline;\r\n    }\r\n\r\n    /**\r\n    * @dev An array of Guideline structs that stores all of the guidelines, for easy retrieval.\r\n    */\r\n    Guideline[] public guidelines;\r\n\r\n    /**\r\n    * @dev An event that records the fact that a guideline has been created.\r\n    * Because coin guidelines need to be explicitly stated during the coin creation,\r\n    * this event only gets emitted when the coin is created, one event per guideline.\r\n    */\r\n    event GuidelineCreated(string guidelineSummary, string guideline);\r\n\r\n    /**\r\n    * @dev The main function of the contract. Should be called in the constructor function of the coin\r\n    *\r\n    * @param _guidelineSummary A summary of the guideline. The summary can be used as a title for\r\n    * the guideline when it is retrieved and displayed on a front-end.\r\n    *\r\n    * @param _guideline The guideline itself.\r\n    */\r\n    function setGuideline(string memory _guidelineSummary, string memory _guideline) internal {\r\n\r\n        /**\r\n        * @dev creating a new struct instance of the type Guideline and storing it in memory.\r\n        */\r\n        Guideline memory guideline = Guideline(_guidelineSummary, _guideline);\r\n\r\n        /**\r\n        * @dev pushing the struct created above in the guideline_struct array.\r\n        */\r\n        guidelines.push(guideline);\r\n\r\n\r\n        /**\r\n        * @dev Emit the GuidelineCreated event.\r\n        */\r\n        emit GuidelineCreated(_guidelineSummary, _guideline);\r\n\r\n        /**\r\n        * @dev Increment numberOfGuidelines by one.\r\n        */\r\n        numberOfGuidelines++;\r\n    }\r\n\r\n    /**\r\n    * @dev Function that returns a single guideline.\r\n    * The element at location 0 of the array will store the guideline summary.\r\n    * The element at location 1 of the array will store the guideline itself.\r\n    */\r\n    function returnSingleGuideline(uint _index) public view returns(string memory, string memory) {\r\n        return (guidelines[_index].summary, guidelines[_index].guideline);\r\n    }\r\n\r\n    /**\r\n    * @dev Function that returns all guidelines.\r\n    * This allows iterating over all guidelines for the purpose of retrieval and/or display.\r\n    */\r\n    function returnAllGuidelines() public view returns(Guideline[] memory) {\r\n        return (guidelines);\r\n    }\r\n}\r\n",
  "sourcePath": "C:\\code\\better_times_token_and_sacred_farm_backend\\contracts\\SacredCoin.sol",
  "compiler": {
    "name": "solc",
    "version": "0.8.11+commit.d7f03943.Emscripten.clang"
  },
  "schemaVersion": "3.4.3",
  "updatedAt": "2022-02-03T16:17:10.121Z",
  "devdoc": {
    "details": "A protocol to build an ERC20 token that allows for the creation of guidelines, or recommendations on how to use the coin that are intended for the those who interact with it. Works in conjunction with an ERC20 implementation, such as the OpenZeppelin ERC20 contract. To understand the philosophy behind it, visit: https://sacredcoinprotocol.com To see examples on how to use this contract go to the GitHub page: https://github.com/tokenosopher/sacred-coin-protocol",
    "events": {
      "GuidelineCreated(string,string)": {
        "details": "An event that records the fact that a guideline has been created. Because coin guidelines need to be explicitly stated during the coin creation, this event only gets emitted when the coin is created, one event per guideline."
      }
    },
    "kind": "dev",
    "methods": {
      "returnAllGuidelines()": {
        "details": "Function that returns all guidelines. This allows iterating over all guidelines for the purpose of retrieval and/or display."
      },
      "returnSingleGuideline(uint256)": {
        "details": "Function that returns a single guideline. The element at location 0 of the array will store the guideline summary. The element at location 1 of the array will store the guideline itself."
      }
    },
    "stateVariables": {
      "guidelines": {
        "details": "An array of Guideline structs that stores all of the guidelines, for easy retrieval."
      },
      "mergedGuidelines": {
        "details": "A string that holds all of the guidelines, for easy retrieval."
      }
    },
    "title": "Sacred Coin Protocol v0.1.0",
    "version": 1
  },
  "userdoc": {
    "kind": "user",
    "methods": {},
    "version": 1
  }
}